:020000040800F2
:10000000E07F002045010008D71300080112000816
:10001000D51300082303000889170008000000001A
:100020000000000000000000000000006916000849
:100030003103000800000000D91300086B16000807
:100040005F0100085F0100085F0100085F01000810
:100050005F0100085F0100085F0100085F01000800
:100060005F0100085F0100085F0100085F010008F0
:100070005F0100085F0100085F0100082503000818
:100080005F0100085F0100085F0100085F010008D0
:100090005F0100085F0100085F0100085F010008C0
:1000A0005F0100085F0100085F0100085F010008B0
:1000B0005F0100085F0100085F0100085F010008A0
:1000C0005F0100085F0100085F0100085F01000890
:1000D0005F0100085F0100085F0100085F01000880
:1000E0005F0100085F0100085F0100085F01000870
:1000F0005F0100085F0100085F0100085F01000860
:100100005F0100085F0100085F0100085F0100084F
:100110005F0100085F0100085F0100085F0100083F
:100120005F0100085F0100085F0100085F0100082F
:10013000DFF80CD000F0B8F80048004769F9010872
:10014000E07F00200648804706480047FEE7FEE7BC
:10015000FEE7FEE7FEE7FEE7FEE7FEE7FEE7FEE777
:10016000CD160008310100082DE9F05F054600209A
:1001700092469B4688460646814640241BE0284618
:1001800041464746224600F020F853465A46C01AD8
:10019000914110D311461846224600F076F82D1AE8
:1001A00067EB01084F4622460120002100F06DF860
:1001B00017EB00094E41201EA4F10104DFDC484684
:1001C00031462A464346BDE8F09F202A04DB203A08
:1001D00021FA02F00021704721FA02F3D040C2F167
:1001E0002002914008431946704710B5431A9342C4
:1001F00009D28318881803E010F8011D03F8011DC7
:10020000521EF9D210BD40EA01039B0703D009E05A
:1002100008C9121F08C0042AFAD203E011F8013BF2
:1002200000F8013B521EF9D210BDD2B201E000F835
:10023000012B491EFBD270470022F6E710B513468A
:100240000A4604461946FFF7F0FF204610BD421C3F
:1002500010F8011B0029FBD1801A704710B500224D
:1002600000E0521C835C8C5CA34201D1002BF8D1CE
:10027000D8B2E1B2401A10BD034611F8012B00F8C4
:10028000012B002AF9D118467047202A04DB203AB6
:1002900000FA02F1002070479140C2F1200320FAD9
:1002A00003F3194390407047064C074D06E0E068A1
:1002B00040F0010394E8070098471034AC42F6D3AD
:1002C000FFF73AFFE48C0208048D020870B58C1821
:1002D00010F8015B15F0070301D110F8013B2A115A
:1002E00006D110F8012B03E010F8016B01F8016B47
:1002F0005B1EF9D12B0705D40023521E0DD401F843
:10030000013BFAE710F8013BCB1A921C03E013F80B
:10031000015B01F8015B521EF9D5A142D8D3002040
:1003200070BDFEE7014800F007B80000840200201D
:10033000704772B6FEE700002DE9F05FC16B0A68F6
:1003400001680B68046C4FF0040808FA04F8844D47
:10035000844E854FDFF814C2DFF81492DFF814A240
:10036000DFF814B2DFF814E218EA020F65D05FEA92
:10037000437862D50A68920603D40A6822F0040220
:100380000A60DFF8F0814FF48062016808F1140818
:1003900013011402414524D9A9420DD0B1420FD016
:1003A000B9421AD0614515D0494515D0514501D102
:1003B000120312E0594501D104220EE0714501D12A
:1003C00040220AE06D4D1435A94206D06B4A28320E
:1003D000914201D11A4600E022466749091F0A608E
:1003E00029E0A94213D0B14215D0B94220D06145CD
:1003F0001BD049451BD0514502D14FF4800217E074
:10040000414502D14FF0806212E0594501D10422EA
:100410000EE0714501D140220AE0584D1435A94241
:1004200006D0564A2832914201D11A4600E02246AF
:100430004B4908394A60C16A71E04FF0020808FA76
:1004400004F818EA020F70D05FEA83786DD50A6865
:10045000920606D40A6822F00A020A60012180F896
:100460002110DFF810814FF40072016808F11408C0
:1004700013011402414524D9A9420DD0B1420FD035
:10048000B9421AD0614515D0494515D0514501D121
:10049000120312E0594501D102220EE0714501D14B
:1004A00020220AE0354D1435A94206D0334A2832BD
:1004B000914201D11A4600E022462F49091F0A60E5
:1004C00029E0A94213D0B14215D0B94220D06145EC
:1004D0001BD049451BD0514502D14FF4001217E003
:1004E000414502D14FF0007212E0594501D102227C
:1004F0000EE0714501D120220AE0204D1435A942B9
:1005000006D01E4A2832914201D11A4600E0224606
:10051000134908394A60002180F82010816A0029B7
:100520001CD0BDE8F05F0847FFE70825A54015424D
:1005300014D01A0712D50A6822F00E020A6090F849
:100540004020C36B012101FA02F25A60816380F8F6
:100550002110002180F82010016BE0E7BDE8F09F3A
:10056000080002401C0002403000024044000240EB
:10057000580002406C000240080402401C04024083
:1005800030B560B11A4B026814219A4209D2194B56
:100590001344B3FBF1F18900016417490AE001201B
:1005A00030BD134B5B421344B3FBF1F1890001648E
:1005B0000F490839C163022180F82110136843F6FE
:1005C000F0718B43F0E901142143D0E902452C433B
:1005D0002143046921434469214384692143194328
:1005E000116000214163012242770177084630BD46
:1005F00008040240F8FFFDBF0000024070B5044649
:1006000000F014F90546601C02D004480078044448
:1006100000F00CF9401BA042FAD370BD040000208A
:100620002DE9F84FDFF8C891002409F1040A0AF116
:10063000040B23460F270BF1040ED1E00125A54042
:1006400006EA0502AA4276D1DFF8A8C14E68A6EBF9
:100650000C0866452BD00DDC032E34D005DC36B3F8
:10066000012E19D0022E2FD11BE0112E16D0122EE2
:100670002AD119E0B8F5881F19D006DCB8F5803FFB
:1006800015D0B8F5801F1FD111E0B8F5001F0ED0AE
:10069000B8F5041F18D10AE0CB6815E0CB681B1D24
:1006A00012E0CB6808330FE0CB680C330CE08B68AA
:1006B0002BB1012B4FF0080303D0456104E0042364
:1006C00002E0056100E00023FF2A01D8064601E0B0
:1006D00000F104064FEA840501D9A5F12005D6F8FA
:1006E000008007FA05FC28EA0C0803FA05F548EA39
:1006F0000508C6F800804D68ED0070D53E4DAE6926
:1007000046F00106AE61AD6924F0030605F001056F
:1007100000953A4D06EB050CDCF80850A607360F9D
:1007200007FA06F825EA0805DFF8D480404503D12A
:100730004FF0000825E052E0DFF8C880404502D1C4
:100740004FF001081DE0DFF8C080404502D14FF0B6
:10075000020816E0DFF8B480404502D14FF00308EC
:100760000FE0DFF8AC80404502D14FF0040808E00C
:10077000DFF8A080404502D14FF0050801E04FF0BE
:10078000060808FA06F848EA0508CCF808804D681B
:10079000D9F80060ED034D4601D5164300E09643BD
:1007A0002E604D68DAF80060AD03554601D516435A
:1007B00000E096432E604D68DBF80060ED025D4678
:1007C00001D5164300E096432E604D68DEF80060C8
:1007D000AD02754601D5164300E096432E60641CB9
:1007E0000A681646E2407FF429AFBDE8F88F0000A2
:1007F0000004014000001110001002400000014000
:1008000000080140000C01400010014000140140AC
:1008100000180140001C01408068084000D0012001
:1008200070470AB1016170470904FBE7014880681D
:10083000704700000400002006480168064A12784C
:100840001144016005480078002802D001201EF004
:100850008FBB70470C000020040000200000002027
:10086000074810B5016841F010010160032000F055
:1008700067F8002000F006F800F024F8002010BD12
:100880000020024070B50D4D04464FF47A7128786F
:10089000B1FBF0F00A490968B1FBF0F000F033FC5D
:1008A00048B9102C07D200222146501E00F028F82B
:1008B00000206C6070BD012070BD000004000020AD
:1008C000100000200C4808B5816941F001018161E8
:1008D000816901F001010091C16941F08051C1615C
:1008E000C06900F0805000900448416821F0E06148
:1008F00041F00071416008BD00100240000001405D
:10090000F0B40E4B1B680C46C3F30223C3F107057A
:10091000042D00D90425191D072901D2002300E068
:10092000DB1E012606FA05F1491E214099409E4032
:10093000761E16403143F0BC00F027BF0CED00E0FE
:10094000064900F0070208684FF6FF03184040EA26
:100950000220034A10430860704700000CED00E0DD
:100960000000FA052DE9F0470F46050061D0434E1F
:10097000306800F00700B84209D2306820F0070064
:1009800038433060306800F00700B84251D1286821
:100990003B4C810712D5400703D5606840F4E06006
:1009A00060602878000703D5606840F4605060609C
:1009B0006068A96820F0F000084360602878C007EC
:1009C00028D06868012810D02168022810D0890733
:1009D00000292EDA616821F0030101436160FFF70D
:1009E00025FF804641F288390DE021688903EFE751
:1009F0008901EDE7FFF71AFFA0EB0801494502D98D
:100A00000320BDE8F0876068696800F00C00B0EB77
:100A1000810FEFD1306800F00700B8420BD9306881
:100A200020F0070038433060306800F00700B8421B
:100A300001D00120E5E72878400705D56068E9681E
:100A400020F4E060084360602878000706D56068FD
:100A5000296920F4605040EAC100606000F038F875
:100A60006168084AC1F30311515CC8400649086037
:100A700006480068FFF706FF0020C2E7002002409A
:100A8000001002402E46020810000020080000203E
:100A90000448054900684968044AC1F30221515CD1
:100AA000C840704710000020001002403E46020877
:100AB0000448054900684968044AC1F3C221515CF1
:100AC000C840704710000020001002403E46020857
:100AD00012A185B00FC98DE80F0014A0144A006858
:100AE00004905168134801F00C03042B10D0082B1C
:100AF0000ED1C1F38343C9031DF803000AD5516821
:100B000004AAC1F34041515C0A4A5043B0FBF1F0E2
:100B100005B0704708494843FAE70000020304059E
:100B2000060708090A0B0C0D0E0F10100102000039
:100B30000010024000127A0000093D002DE9F84F34
:100B4000040070D02078C04DC00749D06868C0F359
:100B50008100012807D06868C0F38100022809D10C
:100B60006868C00306D52868800339D56068002806
:100B7000E7D035E06068B0F5803F0BD010B1B0F53C
:100B8000A02F11D0286820F480302860286820F435
:100B9000802002E0286840F480302860606890B1CE
:100BA000FFF744FE06460AE0286840F480202860EB
:100BB000F0E700BFFFF73AFE801B642873D828686F
:100BC0008003F7D50CE0FFF731FE064605E000BFD5
:100BD000FFF72CFE801B6428F0D828688003F7D428
:100BE00020789A4E80074FF001094FF0000839D560
:100BF000686810F00C0F07D06868C0F38100022805
:100C000009D16868C00306D42868800714D5206914
:100C1000012808D110E02069B0B1C6F80090FFF7B4
:100C200005FE074605E00AE1FFF700FEC01B0228AB
:100C3000C4D828688007F7D52868616920F0F800D3
:100C400040EAC10028600DE0C6F80080FFF7EEFD25
:100C5000074604E0FFF7EAFDC01B022823D82868F6
:100C60008007F7D4207800072CD57948A169D9B13D
:100C7000C0F80090FFF7DAFD074604E0FFF7D6FD65
:100C8000C01B02280FD8686A8007F7D571484FF457
:100C9000FA510068B0FBF1F0009000BF0098411ECF
:100CA0000091FAD20EE080E0C0F80080FFF7BEFDB0
:100CB000074604E0FFF7BAFDC01B022875D8686A32
:100CC0008007F7D42078400760D5E8690027C00086
:100CD00008D4E86940F08050E861E869012700F035
:100CE000805000905C480168C90513D401688346B0
:100CF00041F480710160FFF799FD824606E000BF74
:100D0000FFF794FDA0EB0A0064284ED8DBF8000042
:100D1000C005F5D5E06801280AD008B1052813D030
:100D2000286A20F001002862286A20F0040002E00E
:100D3000286A40F001002862E06841F2883B98B1DF
:100D4000FFF774FD82460BE0286A40F00400286239
:100D5000EEE700BFFFF76AFDA0EB0A0159455AD83C
:100D6000286A8007F6D50CE0FFF760FD824605E0B3
:100D7000FFF75CFDA0EB0A0159454CD8286A8007B3
:100D8000F6D41FB1E86920F08050E861E06988B3CB
:100D90006968C1F38101022944D00228C6F8608045
:100DA00004D0FFF743FD044638E034E0FFF73EFD92
:100DB000074604E0FFF73AFDC01B02282BD828683D
:100DC0008001F7D4206AB0F5803F05D16868A1683A
:100DD00020F4003008436860D4E9080108436968DA
:100DE00021F4741108436860C6F86090FFF71EFD97
:100DF000044606E025E000BFFFF718FD001B0228AF
:100E000009D828688001F7D51BE000BFFFF70EFD69
:100E1000001B022802D90320BDE8F88F2868800152
:100E2000F4D40EE00128F7D06868226A00F480311B
:100E3000914204D1616A00F47010884201D001200F
:100E4000EAE70020E8E7000000100240000042420C
:100E500080044242100000200070004070B5040081
:100E600009D0606A002540B125616561A56294F8EA
:100E7000510040B10CE0012070BD6068B0F5827F88
:100E8000F4D0E561F2E784F85050204600F040F8D5
:100E9000022084F851002068016821F040010160BF
:100EA000A088218900F4827001F404410843A189DB
:100EB00001F400610843217C01F002010843217D17
:100EC00001F001010843218B01F400710843217FE7
:100ED00001F03801084394F8201001F08001084324
:100EE000218D01F40051084321680860A0690421A4
:100EF00001EA1040216848602068C16921F400615E
:100F0000C1616565012084F85100002070BD0000BA
:100F100070B586B0002506460095019502950395AB
:100F200000681A4988422FD11949C86940F48040A5
:100F3000C861C86900F480400490886940F00800E6
:100F400088618869694600F0080004904FF42040E9
:100F5000009002200190032003900E48FFF760FBF1
:100F60000E4C0D4820601020C4E901058020C4E922
:100F700003056561A5612046E561FFF701FB08B146
:100F8000FFF7D7F9B464666206B070BD0038004060
:100F900000100240000C0140580002408402002072
:100FA0002DE9F84F044690F8500000271D461646DC
:100FB000894601280DD04FF0010B84F850B0FFF79F
:100FC00035FC804694F85100BA46012804D0022727
:100FD00093E00220BDE8F88FB9F1000F73D0002E26
:100FE00071D0032084F85100C4F854A0C4F83090A4
:100FF000A686E686C4F838A0A4F83CA0A4F83EA0D3
:10100000C4F844A0C4F840A0A068B0F5004F09D1CE
:101010002068016821F0400101602068016841F406
:101020008041016020680168490603D4016841F0ED
:1010300040010160E068B0F5006F606803D030B334
:10104000012E24D041E008B1012E1CD1206B216873
:101050000088C86006E020688168890709D5216B8F
:101060000988C160206B801C2063E08E401EE086F2
:1010700009E0FFF7DBFBA0EB0800A84202D3681CE5
:1010800001D031E07DB3E08E0028E4D120E0206B78
:1010900021680078087306E020688168890709D50F
:1010A000216B09780173206B401C2063E08E401E89
:1010B000E0860AE0FFF7BAFBA0EB0800A84203D3E2
:1010C000681C02D010E017E06DB1E08E0028E3D17B
:1010D00042462946204600F080F908B1202060658C
:1010E000A06818B106E0FFE7032706E02068C168A2
:1010F00080680090606D00B1012784F851B084F8D9
:1011000050A0384666E710B5401EB0F1807F01D38D
:10111000012010BD4FF0E02460610F21601700F046
:1011200034FB0020A06107202061002010BD70B5B5
:10113000040004D094F83D00002510B106E0012021
:1011400070BD84F83C50204600F022F8242084F83A
:101150003D002068C16821F40051C160204600F0C4
:10116000B7FA2068016921F4904101612068416962
:1011700021F02A0141612068C16841F40051C16039
:101180002564202084F83D0084F83E00002070BDD6
:1011900030B585B000240094019402940394006853
:1011A0001449884224D11448816941F48041816105
:1011B000816901F480410491816941F004018161F8
:1011C00080690E4D00F0040004904FF40070009010
:1011D000022001900320039069462846FFF720FA79
:1011E0002815CDE90004694628460294FFF718FA4D
:1011F00005B030BD00380140001002400008014039
:10120000FEE72DE9F04106461C4617460D462A200A
:1012100000F054F8304600F047F8384600F044F843
:101220002B2000F04BF82235A8B200F03DF8223414
:10123000A0B200F039F8BDE8F0412C2000F03EB833
:101240002DE9F04781469846581E83B21646501E37
:1012500082B20C464846089FFFF7D3FF0CE04D468C
:1012600006E000BF37F8020B00F01EF86D1CADB2AF
:10127000B542F7D3641CA4B24445F0D3BDE8F0876F
:1012800031B5074C4FF4001020604FF0FF330122BE
:1012900069460448FFF784FE2020206038BD000026
:1012A000100C01402C02002010B50446000AFFF784
:1012B000E7FFE0B2BDE81040FFF7E2BF10B5044C15
:1012C0004FF480112160FFF7DBFF1020206010BD7C
:1012D000100C014070B586B000241C4800940194A5
:1012E00002940394816941F020018161816901F0D8
:1012F00020010491816941F008018161816901F057
:1013000008010491816941F0040181618069104EF6
:1013100000F004000490012278213046FFF781FAA2
:101320004FF4004001258DE8310069460948FFF778
:1013300077F97820CDE900050320CDE90240694620
:101340003046FFF76DF906B070BD00000010024096
:10135000000C0140000801400F4810B50D49016024
:101360004FF48271416000218160C1604FF40072CE
:101370000161C0E90512C1610162416281620A2115
:10138000C162FFF76BFD002803D0BDE81040FEF7F7
:10139000D0BF10BD003800402C0200200C4810B512
:1013A0000A4901604FF4E1314160002181600C2263
:1013B000C160C0E904128161C161FFF7B8FE002875
:1013C00003D0BDE81040FEF7B4BF10BD00380140A7
:1013D000C8020020FEE7FEE7704738B50B460092D2
:1013E00004460022802100F009F8002804D0606D36
:1013F00040F020006065032038BD00002DE9F8436F
:101400001E46914688460446089DFFF70FFA401B8A
:10141000351AFFF70BFA074625480068C0F3CB30B2
:10142000684338E0701C37D0FFF700FAC01BA842B1
:1014300003D215B1009860B32CE02068416821F018
:10144000E00141606068B0F5827F0BD1A068B0F523
:10145000004F02D0B0F5806F04D12068016821F000
:1014600040010160A06AB0F5005F09D12068016801
:1014700021F4005101602068016841F400510160CD
:10148000012084F85100002084F850000320BDE8BA
:10149000F8830025401E00902068816838EA01002A
:1014A00004D000214945BDD10020F0E70121F9E732
:1014B0001000002010B56B4C4FF4002020601E205F
:1014C000FFF79CF8082020606420FFF797F8402081
:1014D00020606420FFF792F81120FFF7EFFE7820DC
:1014E000FFF78CF83620FFF7E9FE7020FFF7C8FE03
:1014F0003A20FFF7E3FE0520FFF7C2FEB220FFF718
:10150000DDFE0C20FFF7BCFE0C20FFF7B9FE00202B
:10151000FFF7B6FE3320FFF7B3FE3320FFF7B0FE30
:10152000B720FFF7CBFE3520FFF7AAFEBB20FFF761
:10153000C5FE3520FFF7A4FEC020FFF7BFFE2C201C
:10154000FFF79EFEC220FFF7B9FE0120FFF798FECD
:10155000C320FFF7B3FE1320FFF792FEC420FFF76E
:10156000ADFE2020FFF78CFEC620FFF7A7FE0F2060
:10157000FFF786FED020FFF7A1FEA420FFF780FE34
:10158000A120FFF77DFED620FFF798FEA120FFF7F0
:1015900077FEE020FFF792FEF020FFF771FE0020BB
:1015A000FFF76EFE0420FFF76BFE0420FFF768FED6
:1015B0000420FFF765FE0520FFF762FE2920FFF7F4
:1015C0005FFE3320FFF75CFE3E20FFF759FE382018
:1015D000FFF756FE1220FFF753FE1220FFF750FED2
:1015E0002820FFF74DFE3020FFF74AFEE120FFF7ED
:1015F00065FEF020FFF744FE0720FFF741FE0A20BA
:10160000FFF73EFE0D20FFF73BFE0B20FFF738FEF5
:101610000720FFF735FE2820FFF732FE3320FFF7C3
:101620002FFE3E20FFF72CFE3620FFF729FE142068
:10163000FFF726FE1420FFF723FE2920FFF720FEE8
:101640003220FFF71DFE2120FFF738FE1120FFF7A3
:1016500035FE7820FEF7D2FFBDE810402920FFF7C5
:101660002DBE0000100C01407047FFF7E5B830B503
:101670008FB028216846FEF7DFFD14210AA8FEF787
:10168000DBFD01210804CDE90010002402940225AD
:101690000491CDE907504FF4E01009906846FFF738
:1016A0004DFA08B172B6FEE70F20CDE90A054FF4F6
:1016B0008060CDE90C4002210AA80E94FFF752F990
:1016C000002801D072B6FEE70FB030BD70470000B1
:1016D00070B5044600680169E26821F44051114385
:1016E00001612169A0680843616908432168CA68EB
:1016F00041F20C639A430243CA6020684169A269BF
:1017000021F44071114341611E492068884202D191
:10171000FFF7CEF901E0FFF7BBF900EBC00101EBE9
:101720000012606864218000B2FBF0F3B3FBF1F3B8
:101730006FF018067343B2FBF0F5B2FBF0F605EB61
:101740008305322303EB0515B5FBF1F5B6FBF1F686
:1017500005F0F00505EB0615B2FBF0F6B2FBF0F074
:10176000B0FBF1F06FF01802504306EB800003EB82
:101770000010B0FBF1F0216800F00F0028448860F1
:1017800070BD000000380140FEE70907090E00287F
:1017900004DB00F1E02080F80014704700F00F0037
:1017A00000F1E02080F8141D704702E008C8121F05
:1017B00008C1002AFAD170477047002001E001C13A
:1017C000121F002AFBD1704770B5044600256FF048
:1017D0002F0608E02068411C2160007805EB850198
:1017E00006EB410145182068007800F004F8002855
:1017F000F0D1284670BD3038092801D80120704743
:101800000020704710B54021074800F0B6FD0022C7
:101810001E2106481DF006FC054CA06001F022FECA
:101820000020207010BD0000880400200D35000845
:101830008001002070B5B1F90030B2F90040A34238
:1018400000DC23460380B1F90250B2F90240A54200
:1018500000DD2C464480B1F90460B2F90450AE4278
:1018600000DA35468580B1F90610B2F906209142BA
:1018700000DB1146C1800120AB4201DC8C4200DD5F
:10188000002070BDF8B50D460446B0F90000B1F96E
:1018900000101646884247DBB4F90210B5F9022061
:1018A000914241DBB4F90410B5F9042091423BDCCC
:1018B000B4F90610B5F90620914235DC96B3ADF8BF
:1018C00000006088ADF8020032466946284600F004
:1018D00099F8002827D0A088ADF800006088ADF8FE
:1018E000020032466946284600F08CF800281AD0DB
:1018F0002088ADF80000E088ADF802003246694665
:10190000284600F07FF800280DD0A088ADF8000030
:10191000E088ADF8020032466946284600F072F8C9
:10192000002800D00120F8BD0020F8BDB0F900204B
:10193000B1F904309A4213DCB0F90420B1F9003057
:101940009A420DDBB0F90220B1F906309A4207DC69
:10195000B0F90600B1F90210884201DB012070479E
:1019600000207047F8B50D460446B0F90400B1F9FF
:1019700000101646884243DBB4F90600B5F90210A0
:1019800088423DDBB4F90000B5F90410884237DC29
:10199000B4F90210B5F90620914231DC76B3ADF806
:1019A00000006088ADF8020032466946284600F023
:1019B00029F818BBA088ADF800006088ADF80200D7
:1019C00032466946284600F01DF8B8B92088ADF8BF
:1019D0000000E088ADF8020032466946284600F073
:1019E00011F858B9A088ADF80000E088ADF8020001
:1019F00032466946284600F005F808B10020F8BDD7
:101A00000120F8BD2DE9FC4114460E46B1F9002035
:101A1000B0F9001005468A423ADBB5F9040082426B
:101A200036DCB6F90270B5F90220974230DBB5F921
:101A300006309F422CDC002C75DD401A9A1A401C9F
:101A4000521C00B212B200EBD07002EBD272401006
:101A50005210904200DB1046844200DD0446ADF88F
:101A60000010288800222044ADF804006888ADF8F2
:101A70000200688831462044ADF806006846FFF74A
:101A8000C1FF40B1BDF804002044ADF804003FE0C0
:101A90000020BDE8FC81E8880022001BADF80200B0
:101AA000E888ADF8060031466846FFF7ABFF28B17D
:101AB000BDF804002044ADF8040011E0A88800221D
:101AC000001BADF80000A888ADF804003146684658
:101AD000FFF798FF50B1BDF80000001BADF8000003
:101AE000BDF80200001BADF8020016E06888ADF8F2
:101AF0000200688800222044ADF80600314668469E
:101B0000FFF780FF70B1BDF80000001BADF80000CA
:101B1000BDF806002044ADF80600314668461AF0CC
:101B2000EDFFB6E7FFE70120B3E710B5B1F90040DC
:101B3000B2F900309C4200DA23460380B1F902403A
:101B4000B2F902309C4200DA23464380B1F90440E6
:101B5000B2F904309C4200DD23468380B1F90610BF
:101B6000B2F90620914200DC1146C18010BD000090
:101B7000FEB507461DF0F2F90025354C06460095E6
:101B800037B1F868606038461DF01AFB606802E003
:101B900010F044FB606000691AF0ACFE60684069B8
:101BA00008B11AF0A7FE6068C0691AF0A3FE606869
:101BB000006A1AF09FFE60680169E1B31BF052F8F9
:101BC0001EF0C4FE6068B0F8501199B30168097C3A
:101BD000890715D510F080FB401E07B2606810F031
:101BE00035FB401E03B20022114601A800970EF0FB
:101BF00002FA606801A90268D26B516004F07CF9B6
:101C000060684FF48071303016F0A8FB60682021C6
:101C100000F5987016F0A2FB6068A0F850513046AD
:101C20001DF096F9009060680068436A13B122685D
:101C30000099984700E007E016F00EFA00F036F839
:101C4000BDE8FE4000F006B8A0F85051FEBD00000F
:101C50004000002070B50A4D002400BFC4EBC4064C
:101C600055F8260008B116F06BFA05EB86001C212A
:101C700016F074FB641CE4B2042CEFD370BD0000BA
:101C800064050020084949680AE04A68824202D097
:101C90000A68824203D10A7E42F001020A7649694B
:101CA0000029F2D1704700001400002070470000A6
:101CB0000421014800F061BB7C0400202021014880
:101CC00000F05BBB940400202DE9FF410446DDE9F0
:101CD0000A671D004FF0000002D1B6F5807F2BD0BF
:101CE000039001900290ADF80C100090ADF8041034
:101CF000ADF80A20ADF80E203B463246294668462C
:101D00001AF05CFE3B463246294601A81AF056FE00
:101D10003B463246294602A81AF050FE3B46324660
:101D2000294603A81AF04AFEBDF90000BDF90430A7
:101D3000984209DA054608E02080491E6080A180AB
:101D4000521EE280BDE8FF811D46BDF90820BDF9A5
:101D50000C108A4201DA164600E00E46B54203DA5C
:101D6000984206DB184604E08A4201DA104600E099
:101D70000846801E2080BDF90030BDF90420934242
:101D800001DD1D4600E01546BDF90800BDF90C1047
:101D9000884201DD064600E00E46B54205DD93426D
:101DA00001DD194604E0114602E0884200DD0146EB
:101DB000891CA180BDF90230BDF90620934201DAE9
:101DC0001D4600E01546BDF90A00BDF90E10884217
:101DD00001DA064600E00E46B54205DA934201DA22
:101DE000194604E0114602E0884200DA0146891EE5
:101DF0006180BDF90230BDF90620934201DD1D4628
:101E000000E01546BDF90A00BDF90E10884201DD5B
:101E1000064600E00E46B54205DD934201DD194657
:101E200004E0114602E0884200DD0146891CE180A1
:101E300088E700002DE9F04115460E460746114C93
:101E40001DF08CF880462B4632463946204614F069
:101E500015FA20B10020A062E06950B110E02C21F9
:101E6000204616F07BFA4FF00040A0620020BDE84B
:101E7000F08140461DF06CF8E06108B90120E06196
:101E80002046F4E7B804002010B51421074800F0FC
:101E900074FA14F0B9F940B105490160054941608F
:101EA000054981600549C16010BDFEE7A00400201E
:101EB000315C0108AD5F010829610108FD5B010883
:101EC00070B50D4604461021284616F047FA2068E2
:101ED0000078012804D0022807D0042807D008E0A1
:101EE000208A2880608A688003E0E06800E00A2099
:101EF000686020684268002A03D02946BDE8704027
:101F0000104770BDFEB5866A0446BEB9A08A218A14
:101F10000844A082E08A618A0844E08220460AF0F0
:101F200094F9060079D020460CF02CFC00220921FF
:101F3000304613F0A9F8607880076ED4208A10B973
:101F4000608A002869D00025ADF80450ADF808502B
:101F500094F83C0000F00F000328304616D017F02C
:101F60008FFF0746304617F045FE03460C200090D1
:101F7000B4F912103A46304609F024FDADF80800D5
:101F8000304617F089FEC10712D017E017F00CFF9A
:101F90000746304617F0A8FE024603200090B4F929
:101FA00010103B46304609F00DFDADF80400E7E7A0
:101FB000BDF90410002901DDADF80450810705D4F6
:101FC000BDF90410002901DAADF80450410705D429
:101FD000BDF90810002901DDADF80850000705D44F
:101FE000BDF90800002801DAADF8085002AA01A9DD
:101FF00020461FF01DFB0023BDF90820BDF9041089
:10200000304619F0FFFFA08ABDF804100844A082F2
:10201000E08ABDF808100844E082FEBD2DE9FC5FAF
:102020000446806A5FEA000B71D094F83C00000718
:102030006DD014F0B5FB019000684021457E5846F4
:1020400018F0D5FE4FF0000818B9A4F81A80A4F8CB
:102050001880584617F006FF8246584617F009FFC9
:10206000064694F83C004FF0640900F00F000C287D
:1020700002D003284CD09AE0A4F8188056B1B4F9E5
:102080001A50002714F08CFB0068407EC0F16401F8
:10209000484622E0B4F91A00C5F16401484390FBB8
:1020A000F9F06083584617F0A5FD0546584617F02D
:1020B000E7FE02460C200090B4F91A102B46584651
:1020C00009F080FC6083024600231EE07A1917B2F3
:1020D00001FB05F292FBF0F215B2002DF6D1ADF83E
:1020E0000070A4F81A806A46002120461FF0A0FA6A
:1020F00041F6FF72BDF90030514258460AF00AFA23
:10210000BDF800100123084402B200214CE09AE01F
:10211000A4F81A80BAF1000F0AD0B4F918500027B9
:1021200014F03EFB00684946407EC0F1640022E0A6
:10213000B4F91800C5F16401484390FBF9F020831D
:10214000584617F0D1FD0546584617F02DFE0346B8
:1021500003200090B4F918102A46584609F032FCC2
:102160002083014600231EE07A1917B200FB05F216
:1021700092FBF1F215B2002DF6D1ADF80070A4F883
:1021800018800022694620461FF052FA41F6FF727D
:10219000BDF90030514258460AF034F9BDF800103C
:1021A0000123084401B20022584619F02BFF208B6E
:1021B000002848D1608B002845D1C6B9584617F091
:1021C0005FFE0546584617F015FD002D06DC002879
:1021D0000DDD002D02DA01232A4604E0002806DA8C
:1021E0000123404202B20021584619F00BFFBAF118
:1021F000000F19D1584617F077FD0546584617F0DD
:10220000D3FD002D07DC00280EDD002D03DA0123AD
:102210000022294605E0002806DA01230022404278
:1022200001B2584619F0EEFE0A215846019A12F002
:102230002BFF6078800706D414F83C0F20F00F00C5
:10224000207044F8148CBDE8FC9F7FB50E46040056
:1022500003D10FF0E3FF04002CD010F053F8002856
:1022600028D094F82800400724D4002506B3ADF800
:102270000050ADF8025020460FF0E8FF401EADF8C8
:102280000400204610F028F8401EADF806006A460B
:10229000314602A8FFF7CEFA00280BD02068017C57
:1022A000890708D5DDE90001C4E90C01012029E016
:1022B000A4F850517FBD82690AB102A99047002657
:1022C0000AE004EBC601002202A83031FFF7DAFA77
:1022D0000028EFD1761CB6B2B4F85001B042F0D865
:1022E00080B2202804D204EBC00002A9303004E000
:1022F000A4F8505104F1300069460DF0C4FDB4F863
:102300005001401CA4F8500160680028D2D01CF095
:1023100063FF7FBD70B5054600F012F804460CE07F
:102320002146284600F01EF806462146284600F0C1
:1023300071F8204615F004FF3446002CF0D170BD32
:10234000002800D04068704700B503460022FFF720
:10235000F7FF03E01846521C00F004F80100F9D121
:10236000104600BD0068091D40587047006840587D
:102370007047002800D08068704700224260C91C66
:1023800021F0030182600160704770B50446006867
:10239000083015F049FE050013D001460022204602
:1023A0001DF0E8FE2946204662681DF0DDFE6168EA
:1023B00019B12A4620461DF0DDFE6560A06800B90F
:1023C000A560284670BD70B504460068083015F059
:1023D0002BFE050013D00146002220461DF0C4FE4E
:1023E00029462046A2681DF0C5FEA16819B12A46FB
:1023F00020461DF0B9FEA560606800B965602846FA
:1024000070BD28B1416809B9806808B100207047E3
:102410000120704770B504000DD0FFF791FF002236
:102420008842204608D1FFF79DFF6060011E01D061
:1024300000221EE0A26070BDFFF79BFF884220686B
:1024400008440AD10168A16029B12046BDE8704066
:1024500000221DF089BE626070BD05682046FFF74E
:1024600081FF06460246294620461DF07DFE2A468B
:1024700031462046BDE870401DF07CBE10B50446D4
:10248000006882680AB121469047206800680028E9
:1024900001D02060F5E710BD8068002801D0B0F9B8
:1024A000160070478068002801D0807E8009704740
:1024B00077B581B00E46050017D0612218F0A0FA5A
:1024C000040012D0206880B128463146622218F0FC
:1024D00097FA10F0FF0208D0236820460399984726
:1024E0000090BDF80000ADF80C00039804B070BD7A
:1024F0002DE9F047074690B0408C189E40F004004C
:10250000788490463A8499468A463289384618F04B
:1025100077FA0546A7F8209032895146384618F0D8
:102520006FFA0446788CA54220F00400788403D129
:102530002904B1EB044F68D0A7F8208032895146B6
:10254000384618F05DFA05468046A7F820905146B7
:1025500038460BF0AFF9318900682A461BF078FC49
:1025600030890B2823D147F6FF794D4501D04C45E2
:102570001DD1384618F0F2FB00EBD07045103846FC
:1025800018F0ECFB00EBD0704010C84506D1691C78
:10259000431C994200DA00E0194688464C4506D1B2
:1025A000691C421C914201DA6C1C00E01446194877
:1025B000FFF7EBFE05002BD02F60C5E903843089BF
:1025C000A8806846C5F808A00CF078FF1248FF21E3
:1025D000CDE9005011480290114803900020079067
:1025E000CDE9080130880A9070889DF83E1040427D
:1025F0000B90F0680690002060F300018DF83E100B
:102600003069059068460CF0CDFF10B0BDE8F0874A
:10261000FEE70000AC0400203D3F0208254102080F
:102620008140020814210148FFF7A7BEAC04002036
:102630002DE9F84F00259046894606462C4604278A
:10264000E5E000BFF16807EBC400085882017AD4C6
:1026500080B230EA090211D05FF0000230EA0800CF
:102660000ED0002082426ED051F834A06A4610216C
:1026700050461BF0CBF9002871D103E00122EDE7B1
:102680000120EFE76A46112150461BF0BFF90028F0
:1026900065D16A46122150461BF0B8F900285ED178
:1026A0006A46132150461BF0B1F9002857D16A46FB
:1026B000152150461BF0AAF9002850D16A46142172
:1026C00050461BF0A3F9E8BB6A460A2150461BF0AE
:1026D0009DF9B8BB6A466A2150461BF097F988BB42
:1026E0006A466B2150461BF091F958BB6A4601219E
:1026F00050461BF08BF928BB6A46042150461BF05C
:1027000085F9F8B96A46022150461BF07FF9C8B92D
:102710006A46032150461BF079F998B96A460521AB
:1027200050461BF073F968B96A46062150461BF003
:102730006DF938B96A46322150461BF067F908B97D
:102740006A4601E00BE061E06D2150461BF05EF946
:1027500028B96A466C2150461BF058F910B1032085
:10276000BDE8F88F6A46682150461BF04FF9E8BB78
:102770006A46692150461BF049F9B8BB6A466D218B
:1027800050461BF043F988BB6A466C2150461BF04B
:102790003DF958BB6A46372150461BF037F928BB34
:1027A0006A46382150461BF031F9F8B96A4635219E
:1027B00050461BF02BF9C8B96A46402150461BF021
:1027C00025F998B96A46452150461BF01FF968B9AA
:1027D0006A46412150461BF019F938B96A46422130
:1027E00050461BF013F908B96A4600E00AE043219D
:1027F00050461BF00BF928B96A46492150461BF098
:1028000005F908B1022501E005B90125641C708CA9
:10281000C0F3C500A0423FF615AF2846A0E7000070
:102820000148406870470000400000207047C0F336
:102830000410072800D9072070470000A0F57F4149
:10284000FF3905D0002804D0702803D208490AE0D7
:102850001F2070470749703880B2096829B1064ABD
:102860005268904201D2085C704700207047000017
:10287000DE850208AC010020C001002010B518213F
:102880000348FFF77AFD03490120087010BD0000DE
:1028900058040020C80100202DE9F04190460C4664
:1028A000050015D0FDF7D3FC0A4F06462146BA684D
:1028B000284690470446BA68281941469047014681
:1028C000701A03E06218AA5C2A55641CA042F9D26F
:1028D000BDE8F081DC0100202DE9F041094D904672
:1028E0000E466A681C46074619469047306020B17C
:1028F00020686A68384400219047C8F80000BDE8A5
:10290000F0810000DC0100202DE9F04F87B08A46FD
:10291000DDE910581F4693460446002105B1298081
:102920005CB12078002809D0BAF1000F05D000264C
:1029300018F0060F15D0002004E0002007B0BDE815
:10294000F08F401C215C0A2904D00D2902D00029F7
:10295000F7D100E0401C002DF0D04FF0FF3129806E
:10296000ECE75FEA887001D541F6FF7789460846B3
:102970008DF81410049127E00498CDF8189068B3EE
:102980004FF0000C05AA06ABCDF80CC0CDF80080C6
:10299000CDE9013220443B465A4651461CF05EFDCB
:1029A00006997A1A314417B20EB288B104990144DB
:1029B000049120780A280BD00D2809D0605C0A28E1
:1029C0000FD00D280DD00846205C08B1002FD3DCB5
:1029D000049848B105B12E800498AFE74FF0010C80
:1029E000D0E7481C0490F3E7064A04A92046526841
:1029F0009047002DF0D001460022504612F083FC93
:102A000006B2E8E7DC0100202DE9F04117468846D0
:102A100006001ED0002F1CD0FDF719FC04463846D6
:102A2000FDF715FC050014D00B4A2C444146926872
:102A300030469047411903E0621BB25C3255641E78
:102A4000A142F9D930442A463946BDE8F04115F093
:102A500047BCBDE8F0810000DC01002000230278C3
:102A6000232902D0012A0DD00FE02AB10021012A2A
:102A700004D0022A04D008E0012101E0017004E042
:102A8000017001E0202902D001231846704702217D
:102A9000F6E72DE9F0410E46804602460021334616
:102AA00008461CF019FF04460027401C15F0BCFA2C
:102AB000050008D02F5533464246611C1CF00CFF20
:102AC0002846BDE8F081FEE72DE9F0471E46144692
:102AD0000D468246DDF8209015E000BF4FEA54080D
:102AE00008FB0657394650464A469047002808DDFD
:102AF00044F30000C0EB540407EB0605A4F1010405
:102B000001E005DA4446002CE8D12046BDE8F08714
:102B10003846FBE72DE9FC5F9B460CAB8A468146B5
:102B2000DDE9116093E81210DDE90F575FEA807864
:102B30004FF030031AD45EB15FEAC07808D000F0DD
:102B40000C0858EA0C0803D0761E01E00B55641CF3
:102B5000BC4204D2202CF9D301E00B55641C5FEA7F
:102B6000C07803D0B44201D2202CF6D35FEAC0680B
:102B700025D55FEA40580AD44CB1BC4201D0B442DA
:102B800005D1641E03D0102D03D1641E04E0102D66
:102B900002D0022D0AD00EE0850603D4202C1ED2CE
:102BA000782506E0202C1AD2582502E0202C16D2D7
:102BB00062250D55641C202C11D20B55641C202C51
:102BC0000DD2BCF1000F01D02D2306E0430701D543
:102BD0002B2302E0030702D520230B55641CCDE90B
:102BE00000BAC846154681468B46AA46800714D1CE
:102BF000274607E02A46DDE900316D1C2020C44647
:102C0000E0477F1CB742F5D307E02A466D1C641EDF
:102C1000DDE900311BF80400C047002CF5D15FEA64
:102C2000897006D409E02A46DDE900316D1C2020B8
:102C3000C047A5EB0A00B042F5D32846BDE8FC9F8B
:102C40002DE9F04F8FB099468B46DDE91818DDE984
:102C50001C63DDE91A4792468646002209B923F033
:102C60001003580507AD00D5C9B1B1FBF4F004FB62
:102C70001010C0B20A2801D2303009E05FEA836C3C
:102C800002D54FF0410C01E04FF0610C60440A386E
:102C9000B1FBF4F1A854521C09B1202AE5D3CDF8B8
:102CA0000880CDE90563CDE90052CDE903474B46E5
:102CB000524659467046FFF72DFF0FB0BDE8F08F22
:102CC0002DE9FF4F8FB01CACDDE9239594E8030894
:102CD00020AC94E8C004002450EA010201D125F0A0
:102CE00010056A050DF11C0802D550EA010217D043
:102CF00032463B46FDF738FAD2B20A2A01D23032C8
:102D000006E0AB0601D5412300E061231A440A3AEC
:102D100008F80420641C50EA010201D0202CE7D3FB
:102D2000CDE90084CDF808B0CDE90595CDE9036A79
:102D30000FAF97E80F00FFF7EDFE13B0BDE8F08F7F
:102D40009A4200D288547047704700002DE9FF4F27
:102D500089B005460A9800249246002800D1FE4D0D
:102D60008FE1252804D02246641C53460A990BE2C1
:102D7000491C4FF0000808460C9101782B2919D006
:102D800004DC202919D0232904D119E02D290ED0E3
:102D9000302909D00026C8B2FEF72DFDB0B10CA82D
:102DA000FEF712FD06461FE048F001010AE048F078
:102DB000020107E048F0040104E048F0080101E0E6
:102DC00048F01001401C88460C90D6E70C99087812
:102DD0002A2809D1169840C81690002E02DA48F029
:102DE00002087642491C0C910C984FF0000B0178B8
:102DF0002E2919D1401C0C9048F480680078FEF709
:102E0000FAFC20B10CA8FEF7DFFC83460CE00C9A1C
:102E100010782A2808D1169901C91691002800DCDB
:102E20000020521C83460C920C9801786C290AD021
:102E300004DC68290FD06A2919D128E0742929D027
:102E40007A2914D126E0401C0C90017848F480784F
:102E50006C291CD00BE0401C0C90017848F08008D5
:102E6000682904D148F04001401C88460C90014676
:102E70000078692822D015DC62281FD00DDC2528B7
:102E800072D050281AD058287FF46DAF16E048F45D
:102E90000071E9E748F48071E6E7632879D0642897
:102EA000F2D10BE0732875D004DC6F2806D07028AF
:102EB000EAD103E0752801D07828E5D178280DD033
:102EC00058280BD070280BD0502809D06F2816D066
:102ED000622816D00A2228F0100016E0102207E01F
:102EE0004878102248F48878562804D1491C0C915F
:102EF0000878582807D00878502804D006E008221F
:102F000009E0022207E048F020008046087869289E
:102F100003D0642801D028F00C085FEA485001D59E
:102F200028F00108087869281FD064281DD0562889
:102F300064D05FEA885072D51698CDF818B0C01DDD
:102F40000021CDE904210291CDE9076820F00700B6
:102F50005346F0E80212CDE90012169022462846A8
:102F60000A99FFF7ADFE88E009E15FEA885022D5B3
:102F7000169804AFC01D20F00703F3E80201169372
:102F8000002387E80C08CDE90768002903DA01224D
:102F900002E07FE0A6E00022002302921A461B1AFC
:102FA0008A4103DB0022404262EB01015346224684
:102FB000CDE90001D3E75FEAC85004D5169901C9ED
:102FC0000FE0404215E05FEA486003D5169911F81A
:102FD000040B06E05FEA0860F0D5169931F8040B9F
:102FE00000B21691CDE9022BCDE90468C10F00288B
:102FF000E7DD53462246CDE900013AE01699AAEBF7
:10300000040201C9169141680968009103680A9891
:1030100001192846FFF79AFE04442FE0FFE75FEA14
:10302000C8500CD5CDE9022BCDE9046816980021D3
:10303000534604C8CDE900211690224619E05FEA04
:10304000486003D5169810F8041B08E05FEA086092
:10305000169803D530F8041B89B200E002C8169018
:1030600001AF0020009187E80508CDE904685346C8
:10307000224628460A99FFF7E3FD04460C98401CB7
:103080000C900C99087800287FF46BAE54457DD2E3
:1030900022467DE001275FEA887006D509E02246D6
:1030A000641C534620200A99A84738467F1CB0422A
:1030B000F5D316982246641C10F804CB169053469C
:1030C00060460A99A8475FEA887006D4D6E7224688
:1030D000641C534620200A99A84738467F1CB042FA
:1030E000F5D3CBE7169850F8049B16904B46BBF1EE
:1030F000000001D0014601E04FF0FF31484600E0FA
:10310000401C02780AB1491EFAD2C71A5FEA485039
:1031100003D558465F4500D307465FEA887006D559
:1031200011E02246641C534620200A99A8473846DD
:103130007F1CB042F5D306E0224609F10109641C68
:1031400053460A99A84799F8000040B15FEA4851F0
:10315000F2D5BBF1010B01E0492D0008ECD25FEA8A
:10316000887006D48AE72246641C534620200A99B8
:10317000A84738467F1CB042F5D37FE706E02246D9
:10318000641C534625200A99A84777E7AAF1010253
:10319000534600200A99A8470DB02046BDE8F08F9D
:1031A00010B502004FF000000CD04B1E194200D0A9
:1031B000FEE70A44521E9A43B2F5005F02D20C2A7F
:1031C00001D9104610BD0C2010BD08444A1E401EF7
:1031D0009043114200D0FEE7704700002DE9F04116
:1031E0000F4601210025044641862E460BE01B496F
:1031F000FDF734F810B16D1CADB202E0608E401CDA
:103200006086761CB6B257F8260010B10178002906
:10321000EDD1208EA8421ED0A06A002610B114F075
:103220008FFFA662E06A10B114F08AFFE662E80040
:1032300014F0FAFEA06238B1680014F0F5FEE06206
:1032400018B1A16A11B102E0FEE7FEE700256900AE
:1032500015F084F82586BDE8F0810000800801089B
:103260002DE9F84F8146407A0F4600F0070002280A
:1032700019D010468046974200DD3A461646032094
:103280002A4C2B4A00EB460020F00305A068116889
:103290001035411A636805EB010C9C4505D2416865
:1032A00021F0004124E00846E4E79D4219D8924607
:1032B0004FF0FF3B48196168884210D900226946E7
:1032C0001C48CDF800B00BF029FE002269461A48D0
:1032D0000BF024FEA168DAF80000091AEAE7A068FA
:1032E000DDE7284614F0A0FEC0B1416841F000417E
:1032F00088EA6702416089EA02010160416801F0E1
:103300004041491C31F0804141608681A0F80E8027
:1033100005D500F110018160BDE8F88FFEE7A168D6
:1033200001F1100229448260A160F5E74800002005
:10333000A801002039C200087DEF000870B586B0F2
:1033400000228DF808208DF80C208DF81020444CB8
:1033500090F83C20142302F00302A5784FF4B476D1
:10336000012A23D0022A5FD0AA4211D010F8265F8A
:1033700005EB051505EB4505B5FBF3F52570407824
:1033800000EB001000EB4000B0FBF3F06070A270A7
:1033900004AA03A8CDE9000201EB41004FF6FF713A
:1033A00001EA400002AB627821781AE0AA4210D00C
:1033B000858C05EB45056D02B5FBF6F5A58090F80B
:1033C000270000EB001000EB4000B0FBF3F0607052
:1033D000A27004AA03A8CDE90002C9B202AB6278C8
:1033E0003CE008F041FC9DF810209DF80C10D3083B
:1033F000BDF800209DF8080063F30402ADF800203A
:103400008A08BDF8001062F34A11ADF80010C10837
:10341000BDF8000061F3CF20ADF8000080B200904D
:10342000BDF8000006B070BDAA4210D0858C05EB37
:1034300045056D02B5FBF6F5A58090F8260000EB7A
:10344000001000EB4000B0FBF3F02070A27004AA63
:1034500003A8CDE90002CAB2217802ABA088C0E778
:10346000F400002010B5084C012020700748FEF73A
:1034700067FF0028A06803D0BDE810401BF0ACBE79
:10348000BDE810401BF09CBE800100208804002095
:1034900010B5044690F83E00626B810707D4A18FF7
:1034A00039B1A1F57F43FF3B15D0491EA187A18FFC
:1034B00089B90AB181070ED521461348FEF7AAFF44
:1034C000FFF7D0FFE16809B1204688472046BDE8F4
:1034D000104014F035BEA16B4942E162002A11D0C0
:1034E000810702D4216B4942E1624110491C61F31A
:1034F000410084F83E00616AE069E1616062A06AAF
:10350000A262606310BD00008804002070B5304DD9
:1035100068681BF01DFD0646687880F00100687041
:1035200047E00020287094F83E006978C0F38002DC
:103530008A4242D061F3820084F83E00E16A8A192F
:10354000030719D4002917DC002A15DBC00709D1AD
:10355000216939B120468847E1690144E161616A26
:1035600008446062A16809B12046884794F83E008B
:1035700040F0080084F83E00E06A8019E06216D44A
:10358000A16A884200DDE162A169204688470146C0
:10359000206A884204D0216262680AB1206890479C
:1035A000D4E90A01814202DB2046FFF771FF287847
:1035B00018B10848FEF7C4FE03E021460548FEF7AF
:1035C000D1FE0400ADD11BF0C9FC686070BD0000E5
:1035D000800100208804002070B5044640680D4634
:1035E00008B1FFF7F9FF2268002A04D029462046D7
:1035F000BDE87040104770BD89B20CF0A9BB89B21C
:103600000CF0E2BB2DE9FF4F99B09846DDE926B1F9
:103610002D9816468A464FF00009042811D0052837
:1036200011D0062812D0142873D10127022508FBD7
:1036300006F00E901A980024401E0D90701E069001
:103640004AE10027F2E701270325F0E701270225D9
:10365000FFF7E6F80068D0F83890E8E7289860436C
:103660000BEB2022299860430AEB202110124FEA2D
:10367000212E7DD41A9B98427ADABEF1000F77DBB7
:10368000B645F9DAD3B201F0FF0C802B05DAC3F1AD
:103690007F014FF0FF32490003E001225900A1F5FC
:1036A00080710991BCF1800F05DACCF17F034FF0F6
:1036B000FF315B0004E04FEA4C030121A3F5807366
:1036C0000A930EFB080C199B0CFB05330793831818
:1036D00011937BD4DDF834C0634577DC1EEB010326
:1036E0000F9373D4DDF818C063456FDC079B01FBB3
:1036F00008F102FB053201FB053116929C460C9144
:10370000BFB32D99052905D014290AD006294CD01C
:1037100059E0E5E00C989CF80220817816988078B2
:1037200010E0199A0E9902EB41010B180EFB0811DB
:10373000119817930EFB08F2085C0F99D25C01FBFD
:1037400008F1C95C914207D00A9B5943C3F58073C5
:1037500002FB0311C1F30721904207D0099B584394
:10376000C3F5807302FB0300C0F30720084401E0A7
:103770009AE02CE02C99400808555FD09CF8001086
:103780009CF8010001EB0020ADF80C000C980178CA
:10379000407801EB0020ADF81000169801784078D1
:1037A00001EB0020ADF808001FE0BCF800101FFA84
:1037B00089F0814278D00C990988814274D0169999
:1037C0000988814270D0FF210846CFE737E0BCF876
:1037D0000000ADF80C0016980088ADF808000888C5
:1037E000ADF810002C98FF210155BDF80C00BDF874
:1037F0001010884209D1BDF80810884205D12B98D5
:10380000BDF80C1000EB440017E00A98C2B2DDE9E5
:1038100003100EF0F1F804900998C2B2DDE902013C
:103820000EF0EAF87F22029004990EF0E5F800907D
:103830002B98BDF8001000EB440001804AE0079B84
:1038400093F800C05B780CEB0323DDF8ACC09BB2AF
:103850002CF81430DDF8B4C0BCF1050F06D0BCF173
:10386000060F06D0BCF1140F09D10AE0079B9B7824
:103870000FE01FFA89FC634501D1002309E0FF2313
:1038800007E0199B0EFB083C0E9B00EB43031CF862
:10389000033008B9002A05DBDDF834C0604504D1E7
:1038A000002A02DD09980BE011E0BEF1000F01D102
:1038B000002904DB069A964509D1002907DD0A98FC
:1038C000C0F1FF005843010A2C98015502E02C99E1
:1038D00000200855641C24B22A988442FFF6BEAE2C
:1038E0001DB0BDE8F08F000010B5818F90B0044688
:1038F000A9B168460BF0E2FD0B480121CDE900407B
:10390000A08F0A9000200790CDE908010748069093
:103910000748039068460BF045FE10B010BD10B08C
:10392000BDE810401CF06CBD790402087BF500086E
:103930007B04020810B50446406882080AD0496832
:1039400021F00301091D08446060204600F042F8A0
:10395000204610BDFEE74068103120F00300884289
:1039600001D301207047002070472DE9FC47054630
:1039700048680C4620F0030001AA69461CF09EFA34
:10398000DDE9007005EBC71101EB80098046D9F82D
:10399000300060B164B1C4E9020504F10806C460F6
:1039A00030460421FFF711FC864202D0FEE7FEE715
:1039B000FEE7C9F830400120296900FA07F21143F7
:1039C000296105EB870100FA08F04A6902434A6160
:1039D000BDE8FC8710B5044600F087F8046010BD10
:1039E0002DE9FC4706464FF000000D000090074609
:1039F000019042D00C46E9460DF10408802907D316
:103A0000084620F093FA411F01208840401E0444DC
:103A10004246494620461CF051FA009C072C2CDAFD
:103A200006EB8400019A40694FF0FF3101FA02F27F
:103A300010400CD1641C3069A14008401DD020F01A
:103A40006DFA0446009006EB8000406978B120F0E2
:103A500065FA034606EBC411019001EB8000076B89
:103A60005FB1786820F00300A84201D2FEE7FEE7CC
:103A700039463046009A1DF0CFFB3846BDE8FC873A
:103A800010B50446FFF7A6FF416841F0020141600E
:103A9000606840F00100606010BD10B5044600F0A1
:103AA00024F8416821F002014160606820F00100C3
:103AB000606010BD70B506460D46084600F015F86A
:103AC000040010D02079C0070BD0686880080BD0A4
:103AD0002146304600F03CF821462846FFF72AFFF1
:103AE0000546284670BDFEE7FEE7426800F1080182
:103AF00022F00300001F0844910800D1FEE7704740
:103B000070B506460C004FF000001ED0F2B12079CF
:103B10001546C0071BD011462046FFF71CFF78B1A1
:103B20002946204600F025F805462046FFF752FFBB
:103B30006868294640F0020068603046FFF715FFCC
:103B40002046FFF7AAFF04F1080070BDFEE7FEE77C
:103B50007CB5054648680C4620F0030001AA69467A
:103B60001CF0ACF9DDE90023214628461DF054FB8A
:103B70007CBD2DE9F0410D46044600F10801281FE7
:103B80000E18606806F1080720F00300401BA0F142
:103B9000040838460421FFF718FB874200D0FEE7EF
:103BA000606820F0030108EB0500001D814200D091
:103BB000FEE7307900F0030040EA0800706020F072
:103BC00003000C2800D2FEE7207900F00300284310
:103BD00060603046FFF754FF3046BDE8F0810000DA
:103BE00070B5054611F00EFA0446284611F048FA61
:103BF0000546072C10D1094C2078401C207028461F
:103C000015F0B1FF0146284615F0D6FE2278BDE832
:103C1000704003A113F0ADBF70BD00002002002072
:103C2000427574746F6E323A2025640038B50446CC
:103C300012F0B6FD054612F0E8FD0028204605D03A
:103C4000218FE18617F0A1FB012038BD10F0E4FFC1
:103C5000002820461ED010F0B3FE218FE08E814256
:103C60000CD02087E08E00906A461C21204611F07F
:103C70000BFA0128E9D1204617F087FB284612F0FD
:103C8000D0FD0428E0D1204615F062FF002111F09C
:103C900026FFD9E711F01CF8D6E770B511F0F0F95E
:103CA000054615F09BFF044628460CF093FE01469E
:103CB0002046BDE8704001221AF07CBC2DE9F84F87
:103CC0000024DFF84CA0DFF84C800D4626464FF468
:103CD000004901278DF8006049465046FCF79CFDDD
:103CE00008B98DF800709DF8000030B160B200286E
:103CF00007DBAF7388F8000004E0641CE4B2022C18
:103D0000E8D3AE7398F80000A860BDE8F88F000013
:103D100000080140180200202DE9F04F0D4687B041
:103D20000446002115F048FE60B32946204600F005
:103D300061FA2946204600F06FF80021204616F06F
:103D40004BFD05900021204616F0FAFD049000215D
:103D5000204616F02AFC012800D0002080460021D1
:103D6000204616F02AFF07460021204616F098FC50
:103D700042F2D17906464F450BD1608C400508D4FC
:103D8000012707E007B02846BDE8F04F1C2114F0DA
:103D9000E5BA0027204615F08DFEDFF878A08346AF
:103DA00020460021BAF8042016F02AFED5F810C0EB
:103DB000AB682968CDF800C0CDF80C80CDE90131A1
:103DC000C2B239465846059B09F0E6FD28834E45A8
:103DD00004D1608C800501D4012600E00026204635
:103DE00015F04EFE074620460021BAF8082016F0CE
:103DF00007FEC2B2686900246B68E9688DE81B00A1
:103E000031463846049B09F0C7FD688307B0BDE81A
:103E1000F08F0000680000202DE9F34F81B00C46C0
:103E2000019809F041F80646019815F043FE8246D4
:103E3000304600F092FF2061400014F023F920602A
:103E40002069400014F01EF9002541F69A79A0601F
:103E50003AE036F91510DFF82081494533D10027C3
:103E6000DFF818B11FE03946019815F0A5FD594655
:103E7000009016F0C3FFA8B9009809F027F80128B0
:103E800010D1009809F018F8A8420BD1009816F04C
:103E900065FF4146404501DA084602E0009816F009
:103EA0005DFF80467F1C019815F098FDB842DAD876
:103EB000B8F1000F03DBA16821F8158003E0A168C9
:103EC000002021F815006D1C2069A842C1D80025EA
:103ED0002F46284641F69B784A4615E036F91010E1
:103EE000414504DB0D44A5F5F8559B3D0BE091429F
:103EF00004D1A16831F81010394403E0A36823F815
:103F0000101039440FB2401C21698142E6D80021CB
:103F1000019816F061FC2169C1F1010200FB02A0C9
:103F2000C01B00B2002800DA002000224FF0FF334F
:103F30001146C44611E000BF36F9117067450BDB2E
:103F4000A7F5F8579B3F3AB200FB02F3B3FBF5F33A
:103F5000A76827F811300B46491C27698F42EBD818
:103F6000002B07DBA91A4143B1FBF5F1401AA16808
:103F700021F81300BDE8FE8F01E0FFFF01000600FD
:103F80002DE9F14F00221146009818F07DF900212B
:103F9000009816F043FB04460021009816F0E2FC5E
:103FA00020440FFA80F90021009816F0CDFB204440
:103FB0000FFA80F8009816F0A5FA00EB090101EB62
:103FC0000800DFF898A006B25446009815F006FDE8
:103FD000074600252AE0009821498068006850F8CB
:103FE0002500834616F00AFFF8B9584617F026FA5E
:103FF00040BB0021584616F0A9FA18B3012821D079
:1040000002281FD003281DD00021584616F0EDFDD0
:1040100058B9BBF81A10BBF81600081A401C00B2B9
:104020004844A04200DB044624B26D1CBD42D2D3FA
:10403000544504D004EB080000B2B04200DC304626
:10404000BDE8F88F0098BBF91A10B0F91600081AED
:10405000411CA142E8DB0C46E6E7000001E0FFFF5F
:10406000010004002DE9F84F00228046114618F0A7
:10407000F5F80021404616F0D1FA044600214046EA
:1040800016F016FC20440FFA80FA0021404616F084
:10409000C1FB20440FFA80F9404616F041FA00EBCC
:1040A000090101EB0A00DFF844B105B25C46404665
:1040B00015F094FC07460021404616F064FA0128EA
:1040C0004FF0000644D078E0D8F80800484900686E
:1040D00050F82600009016F091FEC0BB009817F033
:1040E000ADF950B10098B8F91810B0F91400091AD8
:1040F000481CA0422ADB4C1C28E00021009816F046
:1041000025FA58B1032809D0062807D0082805D079
:104110000021009816F063FD58B118E00098B8F936
:104120001810B0F91400081A411CA1420EDB0C460D
:104130000CE00098143000900BF01FFF5044A04298
:1041400004DB00980BF019FF00EB0A0424B2761C84
:10415000BE42B9D35C453BD004EB090033E000BF5D
:10416000D8F808002249006850F82600009016F0A0
:1041700045FE08BB009817F061F960BB002100986C
:1041800016F0E4F938B3012825D0042823D00728F5
:1041900021D00021009816F028FD68B9009814304D
:1041A00000900BF0EAFE4844A04204DB00980BF0BC
:1041B000E4FE00EB090424B2761CBE42D0D35C4579
:1041C00006D004EB0A0000B2584501D0A84200DC3A
:1041D0002846BDE8F88F0098B0F91810B8F9140017
:1041E000091A481CA042E6DB4C1CE4E701E0FFFF93
:1041F000010004002DE9F84F0C46834609F052FAFD
:10420000064600F0AAFD6061400013F03BFF6060CD
:104210006069400013F036FF002541F69A79E060AE
:104220003AE036F91500DFF82881484533D10027F8
:10423000DFF820A11FE03946584615F0BDFB514676
:10424000009016F0DBFDA8B9009809F0B7FA012834
:1042500010D1009809F0A8FAA8420BD1009815F0E7
:104260007CFC4146404501DA084602E0009815F022
:1042700074FC80467F1C584615F0B0FBB842DAD873
:10428000B8F1000F03DBE16821F8158003E0E16875
:10429000002021F815006D1C6069A842C1D80025D6
:1042A0002F46284641F69B784A4615E036F910100D
:1042B000414504DB0D44A5F5F8559B3D0BE09142CB
:1042C00004D1E16831F81010394403E0E36823F8C1
:1042D000101039440FB2401C61698142E6D80021B8
:1042E000584616F02DFB8146584615F0C9FB01468D
:1042F0006069C0F1010209FB0210C01B00B2002876
:1043000000DA002000224FF0FF331146C44610E0CF
:1043100036F9117067450BDBA7F5F8579B3F3AB2AA
:1043200000FB02F3B3FBF5F3E76827F811300B4607
:10433000491C67698F42EBD8002B07DBA91A414360
:10434000B1FBF5F1401AE16821F81300BDE8F88FE0
:1043500001E0FFFF010006001CB50B88048923441F
:10436000ADF800304B8844892344ADF802308B8887
:1043700004892344ADF80430C98843891944ADF851
:1043800006104369694698471CBD00002DE9FF4FA0
:1043900089B0C8781A9CC0070D46002801D0F7489C
:1043A00000E0F748069001D0F64800E0F648049097
:1043B00001D1F44800E0F4484FF010034FF00C0E28
:1043C0004FF0080BCDF814006288A1884FF0000A66
:1043D000A2EB0101504609B25246D4F810C00FE0DA
:1043E00002EB8207E66803EB870816F808805FEAAD
:1043F000C87809D00BEB8707F65B891B09B2521C02
:104400009445EDD8002255E00EEB8707F65B30446B
:1044100000B2F4E7E66802EB820703EB870CB146D3
:10442000CDF820C016F80C60F60742D1002873D0F2
:1044300091FBF0F80EEB8706079639F8066006FB4D
:1044400008F60FFA86FCCDF800C04FF0060C0CEB16
:10445000870C042639F90C8006EB8706DDF800C0CE
:1044600039F90660E04500DCC446664505DCDDF848
:1044700000C04646E04500DD6646DDF800C0019616
:10448000664506D0DDF820C04FF00108C24649F865
:104490000C80D4F80C80019E0BEB870728F807608E
:1044A000D4F80CC0079F3CF80770C01B891B00B2F2
:1044B00009B2521C26699642ACD8BAF1000F83D1DA
:1044C0000021099816F06BF8012826D0002700205B
:1044D000ADF80800ADF80C0003A902A8CDE9000171
:1044E0002089B4F9022003B2287818991BF0D4FE71
:1044F000E878384207D0099815F0DCFABDF80810C2
:104500000844ADF808000B99099815F055FA0646CD
:104510004FF4FA6827E1FFE7FEE70127D7E79B4959
:10452000304616F06BFC00287ED10021304616F094
:10453000A1F8E8B34FF000094846216910E000BF38
:10454000E26800EB800352F82320B24207D1E16811
:1045500000EB80020BEB820031F9009002E0401C7E
:104560008142EDD8E878C007708C02D040F48060BA
:1045700001E040F40070708406F114000499824652
:104580008847484528D0304616F0FFFEB08AADF87F
:104590000000F08AADF80200308BADF80400708B9B
:1045A000ADF80600069A4946504690476A4600E034
:1045B0000EE02921304610F067FD304615F00EFB65
:1045C0003246222110F060FD304616F0DEFE03E098
:1045D000708C20F4C06070840020009068780128FE
:1045E00010D0022816D1059906F114008847B4F9B5
:1045F0000010491C21F00101081A00EBD07040F3B3
:104600004F0006E0059906F1140088472188081A32
:1046100000B20090E87838420AD0049906F11400FC
:104620008847BDF8081000E095E0081AADF80800CA
:10463000304600216A2216F0E3F90FFA80F930467D
:1046400000216B2216F0DCF90FFA80FA304616F0E2
:1046500085FB0190304615F080FAC9F341310129FC
:104660000FD129F4C04141450BDCB1F57A7F01DD62
:10467000C1F57A71019A5143642291FBF2F10FFA6C
:1046800081F9CAF3413101290ED12AF4C0414145D3
:104690000ADCB1F57A7F01DDC1F57A71414364200E
:1046A00091FBF0F00FFA80FAB18A1698179A411A26
:1046B00001EB0900F18A00B2521A02EB0A01EA7812
:1046C00009B2D207002A02D0BDF9082000E0009A02
:1046D00010440FFA80FA01D0009801E0BDF90800FB
:1046E00008440FFA80F95AEA09001BD0304616F048
:1046F0004CFEB18A01EB0A00B082318B01EB0A005B
:104700003083F18A01EB0900F082718B01EB090023
:104710007083304616F039FE00234A465146304633
:1047200016F0DAFEE87838420CD1049906F114004C
:10473000884719990844BDF80C100844BDF80810C2
:10474000084406E0BDF80C1019980844BDF808109C
:10475000081AADF80800E8780BAAC0F380010998A0
:1047600008F06CFE0646002E04D0DDE90B018842FD
:104770007FF4D5AE0DB0BDE8F08F00000F0001084A
:1047800005000108ABFF000847FF00080100060014
:104790002DE9F04F91B00E0005463FD02E832868DA
:1047A00008B113F0CDFC06EB4600062101EB4000FA
:1047B00013F03AFC286040B3022101EB46010144AA
:1047C000E960042101EB86010144C5E901010121F1
:1047D0000024012E1AD0F000083013F053FC81465B
:1047E00000EB860000F10408B00000B2A346ADF86B
:1047F0001000C0F101028010ADF812B00FFA82FA79
:104800005C46CDF828B00690ABE0FEE7B42202701B
:10481000E8680480E8684180A868048011B0BDE8B9
:10482000F08F0027BDF81220BAF1000F07DC03213A
:1048300001EB42010AEB01000FFA80FA0CE0BDF82F
:1048400010100523521A03EB420202EB0A00491E24
:104850000FFA80FAADF81010BDF81200401CADF848
:10486000120004A800F0E7F868B1BDF9100006AA2C
:10487000811042F827100AA900F0030041F8270030
:104880007F1C042FCEDB042F71D109990698884232
:1048900012D129F8140028F814B0DDE90A01014406
:1048A000DDE90C2010440844696808556968000176
:1048B0000855641C24B252E00799884219D029F89F
:1048C000140028F814B06A680A9810556A68000144
:1048D0001055641C069A20B2521E29F8102028F8A0
:1048E00010B0DDE90B120A440D99091D11446A68E4
:1048F0002FE0089929F81400884228F814B0DDE95F
:104900000A025946104412D06A6810556A680001BC
:104910001055641C069A20B2521E29F8102028F85F
:104920001010DDE90C12114408316A6811E00C9A8C
:1049300010446A6810556A6800011055641C069A94
:1049400020B2521E29F8102028F810100D996A681C
:104950000C3111546A6809011154401C04B20BF166
:10496000010B04A800F067F800287FF45AAF09EBA8
:10497000440140F2D320464331F9021CB012814277
:1049800005D108EB440131F9021C81421AD0A6EB93
:104990008021B1F5007F03DC494341F3CF3106E0CC
:1049A000C1F58061494341F3CF31C1F10F0129F8CD
:1049B000140028F814006868015568680901015559
:1049C000641C24B2A01E0DE038F8102029F8142031
:1049D00039F8102028F8142069680A5C0A55641C0C
:1049E00024B2401E0028EFDAEB6800210846198047
:1049F0001BE0EA6822F81100AB6839F8102023F8B0
:104A000011200AE0AE6839F9102036F811309342CF
:104A100000DA1A4626F81120401C38F910208A4284
:104A200001D1A042EEDB491C09B2A042E1DB4846BD
:104A300013F074FBF2E6B0F90210B0F90000814205
:104A400001DC012070470020704717B581B0022AB1
:104A500003D8BDF8080004B010BDBDF80830BDF89B
:104A60000400D90A01EBD0211F2900D31F2161F3D3
:104A7000CF20C3F34511C0F345142144ADF8040021
:104A80003F2900D33F2161F34A1003F01F0100F0DA
:104A90001F031944ADF804001F2900D31F2161F33F
:104AA0000400ADF80400FF2A07D0DDE901010CF095
:104AB00089FF0090BDF80000CDE780B2CBE717B5C5
:104AC00081B0022A03D8BDF8080004B010BDBDF8BB
:104AD0000400BDF80810C30ACC0A63435B0963F302
:104AE000CF2001F01F0400F01F0363435B0963F351
:104AF0000400C0F34513C1F345114B43990961F319
:104B00004A10ADF80400FF2A07D0DDE901010CF0DE
:104B100059FF0090BDF80000D7E780B2D5E717B580
:104B200081B0022A03D8BDF8080004B010BDBDF85A
:104B30000830BDF80400D90AA1EBD021002900DC1F
:104B4000002161F3CF20C3F34511C0F34514091BC5
:104B5000ADF80400002900DC002161F34A1003F0E5
:104B60001F0100F01F03C91AADF80400002900DC82
:104B7000002161F30400ADF80400FF2A07D0DDE94D
:104B800001010CF01FFF0090BDF80000CDE780B2DE
:104B9000CBE7F8B5044610F073FA0646204610F04D
:104BA00031FA0546304615F019F804462B2D34D05D
:104BB0000A2D31D111F0F4FD10B1007901282BD06C
:104BC0006946304615F070F894F82C0010F00C0F80
:104BD00030462BD014F06EFF05460021204615F01C
:104BE000EAFC0128BDF9000005EBD5711BD000EBF4
:104BF000610090FBF5F001B2002900DA0021608D20
:104C00004FF00102884220461BD019F0D3FC00224D
:104C10001C21204610F038FAF8BD618DBDE8F8403F
:104C2000002219F0C7BCC0EB6100E2E714F028FFD6
:104C3000BDF9021000EBD07201EB620191FBF0F0C4
:104C4000D9E719F0B7FCF8BD2DE9F04F87B004465D
:104C5000DDE91275DDF850A0DDF840808946042FAB
:104C60001CD0062F1AD0052F58D1B4F90010B4F972
:104C7000023008FB031000EB400202EB0900A2889F
:104C8000511A491C0AB2A8EB020101EB41010EB214
:104C9000E188C91A491C0CB200235BE00BF05FF9F4
:104CA00001460490504613F087FBB4F90000B4F9B4
:104CB0000260A18808FB0602081A401C0FFA80FB5C
:104CC0004FEA4B0001904FEA480000B209EB42095D
:104CD000A84602900AE049464046019A13F06CFA51
:104CE0000299761C894408EB4B0836B2B4F90600E9
:104CF000B042F0DA062F11D100224FF4FC60ADF87B
:104D00000000114607E000BF35F81130834201D1A1
:104D10000AF80120491C049B9942F5D307B0BDE86D
:104D2000F08F00210EE000BF90F802C00AF801C029
:104D300010F8017B10F802CB07EB0C2725F8117057
:104D4000491C09B29142EFDB5B1C05EB4205924422
:104D500030441BB2A342E4DBE0E70146002041F609
:104D6000FF7200E0401C31F910309342FAD17047D5
:104D70001CB5044690F8540000F0010088422DD084
:104D800094F8540011B140F0010001E020F001005E
:104D900084F8540004F1480168460BF0C5F8606AD5
:104DA000BDF80010828A1144ADF80010BDF8021061
:104DB000C08A0844ADF80200606ABDF80410808A19
:104DC0000844ADF80400606ABDF80610C08A0844C3
:104DD000ADF806006946204616F0FAFA1CBD08B583
:104DE000084611460CF0C3FC0090BDF8000008BD59
:104DF0002DE9F04F0746C87A89B015460E460228BD
:104E000003D8012009B0BDE8F08F18463269B168B7
:104E1000FDF710F8041EF5D0207D00F01F0010F003
:104E2000AAFE4FF4807808B1062011E0207D00F042
:104E30001F000E2806D014280AD010F08CFE30B1C6
:104E4000052005E030884FF00E0930B902E004205B
:104E5000814606E07088404503D000204FF00509E8
:104E6000A061226A22B1294638461CF00EFEB7E046
:104E7000A069E0B3294602A80BF00EF8B6F900309D
:104E800013B97088404529D0A88829886A88401AB3
:104E9000401C01B2E88806F1040C801A401C02B2E2
:104EA0007088CDE9000C02A8FCF70EFFBDF80800E1
:104EB00029880844ADF80800BDF80A10688808443D
:104EC000ADF80A00BDF80C0029880844ADF80C00C4
:104ED000BDF80E1068880844ADF80E0002AA04A8B8
:104EE000B968FCF7A7FC00287AD004A800E00DE020
:104EF000D7F80880B860CDF800902A463146384689
:104F0000A3690DF021FCC7F8088069E02A4604A8CF
:104F1000B968FCF78FFCE0B3BDF81400BDF81010C1
:104F2000401A401C0FFA80FB0BEB4B0013F0AAF861
:104F3000039004A901A8D7F808A00AF0ADFF012149
:104F400001A80BF05FF8BDF91000B5F90010BDF92C
:104F50001280401A0690B5F90200A8EB000536E071
:104F600001AA514607A8FCF765FC70B303980090AE
:104F700006985B4601B22AB2204611F0DDF90128FD
:104F80000ED0204611F02DF9039813F0C7F82046F3
:104F900000E025E011F025F90020C7F808A031E76E
:104FA00007A8B860CDF8009001AA31463846039BA7
:104FB0000DF0CAFBBDF80600401CADF80600BDF8B8
:104FC0000A00401CADF80A006D1C08F10108BDF98B
:104FD00016004045C4DAC7F808A0039813F09EF8FD
:104FE000204611F0FEF80CE738B505460092C88857
:104FF0004C88401C83B28888401C82B208882146B5
:10500000FCF71EF92846BDE838400DF001B970B52F
:10501000054611F0C5FB0646286B19F099FF31686B
:10502000898B884223D295F83C006C6A10F003010A
:1050300005D06420012906D0022909D106E000200C
:1050400060F30F0404E060F3174401E060F31F64B1
:10505000304611F0FEFC214628460CF0ABFF30B183
:1050600000221C21284610F00FF8012803D119F066
:1050700075FF2863012070BD2DE9F04FA1B00746F0
:1050800014468A4604A80DF05BF94FF4A021384677
:1050900015F065FA01469DF81D0061F382008DF858
:1050A0001D00A1882088091A491C09B201EBD171A1
:1050B0004E103044ADF87000608800213044ADF8E7
:1050C0007200384615F022FB8146514608A814F0BC
:1050D000B9FA04A810904FF4003015902C480990AC
:1050E00000200A9007F130008346FDF742F94AE0BC
:1050F0002079032843D1208BADF81000208AADF829
:1051000012006079FD2801D9484602E000FB09F051
:10511000000A8DF81C002568B5F92030E88B18448A
:105120000090D5E90512A06812F060FF8046B5F93D
:105130002030E88B18440090D5E90512E06812F0A1
:1051400055FF0546608B08AA3044ADF85C001CA8EA
:1051500011901A21199438460FF096FFA9B21FFA40
:1051600088F0CDE90001BDF85C301CAA04A95046C6
:105170000DF0D6F808AA1B2138460FF085FF21460E
:105180005846FDF7F3F80400B2D121B0BDE8F08F26
:10519000504D02082DE9F74FC878A0B00C46022800
:1051A0007DD9114601A80AF092FEB4F92000012829
:1051B00029DD94F82200FD2825D3208818B394F81F
:1051C0002300BDF804104008C0F380021144ADF87C
:1051D0000410BDF80610C0F340000844ADF8060006
:1051E00094F82310BDF808004908C1F3C001401A23
:1051F000ADF8080094F82310BDF80A00C1F340018F
:10520000401AADF80A00209801A9826805A8FCF7A9
:1052100011FB002843D0E07B10F0070619D0E0888E
:10522000ADF80000BDF800006189884200D1002679
:1052300001A80DF083FF07461C210EA8FAF7FCFF1A
:10524000A0788DF85100BDF80000ADF840001FB106
:1052500005E060680090E5E7208800B9EEB3E078EB
:10526000FD2800D3FF208346BDF80800BDF80410D8
:10527000401A401C0FFA80FABDF80A00BDF806106B
:10528000401A401C01B289465046CA4500DB084618
:10529000B4F90050B5EB600F00DB451000E043E0CF
:1052A000BDF81810BDF81400081A401C0FFA80F859
:1052B0004FF0FF301D9000200790002D00DC87B1DB
:1052C000404612F0DFFE079000232A4601A916A8E7
:1052D0000EF0A0F9002116A800E01CE00DF04EFD34
:1052E0001D90BDF81400ADF80C00BDF81800ADF825
:1052F00010000798119003A80E901390FF208DF8CE
:1053000050004A465146A01D10F01CFA040018D067
:10531000022E0CD015E001A80E90E0788DF8500018
:105320000EA920980EF032FC23B0BDE8F08FBDF935
:105330001410A06800EB4100BDF90410A0EB41007F
:105340000F90002F7DD0BDF9165027E02FB2ADF899
:105350000E70ADF8127042465946079812F0CCFF15
:10536000BDF9141043463A4607980DF0A9FE8DF892
:105370004800012802D102208DF84800012E08D1F2
:10538000BDF90610A068691A00EB41000088ADF86D
:1053900040000EA920980EF0F9FB6D1CBDF91A0013
:1053A000A842D3DAB7E000BFBDF80600BDF9161079
:1053B00038440FFA80F9BDF80A00C01B0FFA80FAD2
:1053C000494503DDBDF91A10514544DB42465946B3
:1053D000079812F091FFBDF90C1043464A46079812
:1053E0000DF06EFE8DF84800012802D102208DF8E4
:1053F0004800BDF91610494513DCADF80E90ADF824
:105400001290012E09D1BDF90620A168A9EB020076
:1054100001EB40000088ADF840000EA920980EF086
:10542000B5FBBDF91A10514515DBADF80EA0ADF86E
:1054300012A0012E0BD1BDF90600A268AAEB000054
:1054400000E009E002EB40000088ADF840000EA942
:1054500020980EF09BFB7F1CAF42A5DBBDF804003B
:10546000ADF87800BDF80800ADF87C00BDF8060086
:105470002844ADF87A00BDF80A00401BADF87E0064
:105480001EA80DF05BFE074630430CD001208DF8BE
:105490004800BDF90A008DF850B0A0EB0509BDF930
:1054A0000600054435E0BDF806008DF850B02844EC
:1054B000ADF80E00BDF80A000EA9401BADF81200B1
:1054C0000020119020980EF061FB24E06FB142465D
:1054D0005946079812F010FFBDF9141043462AB23E
:1054E00007980DF0EDFD8DF84800ADF80E50ADF8C1
:1054F0001250012E08D1BDF90600A168281A01EB4F
:1055000040000088ADF840000EA920980EF03EFB48
:105510006D1C4D45DADD079808B112F0FFFD1D98AE
:10552000401C05D01D980EF021F916A80DF0EAFDDB
:10553000002C3FF4F9AE204610F0FEF8F4E6F0B58A
:10554000074608698FB015460C46002871D0A17E29
:1055500002296ED911F0DAF8022820D069462069B4
:1055600010F060FE012864D105A80DF0F5F8A078D0
:105570008DF82000208BADF81C00E07E8DF81E0019
:10558000A07E8DF81F00207F4FF0FF36E0B300991A
:105590006888ADF8060006EB51510844A8E00026E3
:1055A00041F6FF70CDE900600296D4E9041233465B
:1055B0000DA819F0EDFF28460AF0F1FC01462A88F3
:1055C000BDF9340001EBD17102EB610200EBD07147
:1055D000A2EB61010844401EADF81000ADF80C10BC
:1055E00028460AF0AAFC01466A88BDF9360001EB9C
:1055F000D17102EB610100EBD072A1EB62010844B2
:10560000ADF80E10401E00E015E0ADF8120005A840
:105610000DF05CFB60690590208BADF82000A07E4A
:105620008DF82E00009603AA05A9384623690DF0CF
:10563000ADF80FB0F0BD28460AF0B1FC298800EBA8
:10564000D07001EB60000099C1F38A21A0EB5100FA
:10565000ADF8040028460AF070FC698800EBD070B1
:1056600001EB60010098A1EB9051C0F38A22ADF8E4
:105670000610BDF80430521E1A4406EB5050ADF827
:1056800008200844ADF80A0001AA05A93846236994
:105690000DF03AF8CDE700992888C1F38A21ADF8DA
:1056A0000400491E084410E001AA05A938462369F0
:1056B0000DF02AF80098BDF80410C0F38A200144C8
:1056C000ADF80410BDF808100844ADF80800BDF9A5
:1056D0000400B5F904108842E6DDBDF80610009814
:1056E00001EB5051ADF80610BDF80A1001EB505017
:1056F000ADF80A00BDF90600B5F906108842CADD0A
:1057000097E7F0B5074691F8220087B016460C4699
:1057100002286BD9208C002868D094F8230010F060
:105720003E0F63D0C00761D1B08831887288401ABB
:10573000401C01B2F088B4F90050801A401C00B23D
:10574000814200DA0846B5EB600F00DD45103146B6
:1057500004A80AF0BCFB94F82300BDF91020C0F3A4
:1057600044014807B4F9200001D4284440421044C1
:10577000ADF810000807BDF91420B4F9200001D4D9
:1057800028444042101AADF8140094F82300BDF9E3
:10579000121040088007B4F9200001D42844404288
:1057A0000844ADF8120094F82300BDF91610400823
:1057B000C007B4F9200001D128444042081AADF8CE
:1057C0001600208C281A00B2002800DA0020A278E7
:1057D00094F82210CDE90212E18BADF8041000908C
:1057E0002B4604AA3146384600F002F807B0F0BD57
:1057F0002DE9FF4FA9B01D46DDE93879DDF8D880E5
:1058000016460C46FF2F00D3FF2708460DF096FCE6
:105810002690284350EA080074D0299821468268CF
:1058200008A8FCF707F8002873D0BDF82400BDF8DD
:105830002010401A401C00B204901C210AA812F04B
:105840008DFD049812F01EFC0D904FF0FF30249057
:10585000002D0ADD00232A46214615A80DF0DAFEA8
:10586000002115A80DF08AFA249001234246314602
:105870001BA80DF0CFFE00211BA80DF07FFA25908C
:1058800001A80A900F90BDF8DC008DF84070ADF8CB
:1058900030008DF84190B4F900002290B6F900C0B4
:1058A0004319634500DC6346B4F904000FFA83F939
:1058B0002190B6F90430401B984200DB18460FFADD
:1058C00080F8B4F902E0B6F902000EEB0501824659
:1058D000514500DC01460FB2B4F906B0B6F9061026
:1058E000ABEB05028A4200DB0A4610B20590A8EB3A
:1058F0000900401C00B22790D6450DDC01200CE0C9
:1059000000E006E0009732462146379B299800F0D8
:10591000B8F92DB0BDE8F08F002082468B4501DB41
:10592000012000E0002083462698D8B3BDF820006F
:10593000ADF80400BDF82400ADF80800BDF9224020
:1059400022E000BFBAF1000F01D1A7421BDCBBF17E
:10595000000F02D10598A0421ADB25B2ADF806501F
:10596000ADF80A5004990D9812F026FDBDF92010EB
:105970002A46049B0D980DF0A3FB8DF838000AA968
:1059800029980EF003F9641CBDF92600A042D9DA6B
:105990001BA80DF0B7FB25980DF0E8FE2498401CDD
:1059A00007D000E009E015A80DF0ACFB24980DF03D
:1059B000DDFE0D9812F0B2FBABE72298604501DCEA
:1059C000012000E0002013902198984201DB012182
:1059D00000E000210120009013981291084000EA95
:1059E0000A0010EA0B0F04D02798322801DA0020B1
:1059F0000090012000998DF838001AEA010F0ED0AE
:105A0000ADF80490ADF808806088ADF806007088A5
:105A10000AA9401EADF80A0029980EF0B7F80099BF
:105A20001BEA010F0ED0ADF80490ADF80880F088A5
:105A30000AA9401CADF80600E088ADF80A002998D4
:105A40000EF0A4F8139878B12088ADF804003088DF
:105A5000ADF80670401EADF808000598ADF80A00D4
:105A60000AA929980EF092F8129878B1B0880AA97C
:105A7000401CADF80400A088ADF808000598ADF80A
:105A80000670ADF80A0029980EF080F80098C0B1B1
:105A9000BDF92400BDF92010A9F10102ADF80410F0
:105AA000904200DB1046ADF80800401A401C05B2D9
:105AB000002D70DD139850EA0A0066D0BDF922402F
:105AC00061E0BDF82000ADF80400BDF82400ADF899
:105AD0000800B4F90200B6F90210401AA84200DB2F
:105AE00005460FFA85F8002533E06088284406B2A1
:105AF000E088401B07B2BDF92200B04203DDBDF9CA
:105B00002600B84224DB04990D9812F055FCBDF92B
:105B100004103246049B0D980DF0D2FA8DF838002F
:105B2000BDF92200B04207DCADF80660ADF80A60AE
:105B30000AA929980EF02AF8BDF92600B84207DB19
:105B4000ADF80670ADF80A700AA929980EF01EF893
:105B50006D1C4545C9DB8DE026B2ADF80660ADF899
:105B60000A6029460D9812F027FCBDF904102B4657
:105B700032460D980DF0A4FA8DF838000AA929983C
:105B80000EF004F8641CA742E6DC139850EA0B0000
:105B90001DD0059C16E01AE026B2ADF80660ADF8FF
:105BA0000A6029460D9812F007FCBDF904102B4637
:105BB00032460D980DF084FA8DF838000AA929981C
:105BC0000DF0E4FFBDF92600641CA042E4DABDF943
:105BD000200008F10101884200DC0846BDF82410CD
:105BE000ADF80400081A401C05B2ADF80810002DED
:105BF00040DD129850EA0A001BD0BDF9224016E0A1
:105C000026B2ADF80660ADF80A6029460D9812F08C
:105C1000D3FBBDF904102B4632460D980DF050FA17
:105C20008DF838000AA929980DF0B0FF641CA7422E
:105C3000E6DC129850EA0B001CD0059C15E026B259
:105C4000ADF80660ADF80A6029460D9812F0B4FB75
:105C5000BDF904102B4632460D980DF031FA8DF83F
:105C600038000AA929980DF091FFBDF92600641C9F
:105C7000A042E4DA1BA80DF045FA25980DF076FD58
:105C80008FE62DE9FF478EB00C46824615461C2153
:105C900002A81A9E12F062FBCDF808D0BDF84400AD
:105CA000ADF810008DF82060B4F90200B5F90210CB
:105CB000884201DC012700E00027B4F90600B5F9AD
:105CC0000610884201DB012600E00026B4F900003E
:105CD000B5F90010884201DC012100E0002189466D
:105CE000B4F90410B5F90420914201DB012100E070
:105CF0000021ADF80000A088ADF804006088ADF880
:105D0000020068888846401EADF806001FB102A94F
:105D100050460DF03BFFE888401CADF80200E088DB
:105D2000ADF806001EB102A950460DF02FFF2088E5
:105D3000ADF800002888401EADF8040017B1B5F991
:105D4000020001E0B4F90200ADF8020016B1B5F9A5
:105D5000060001E0B4F90600ADF80600B9F1000F45
:105D600003D002A950460DF011FFA888401CADF8E1
:105D70000000A088ADF80400B8F1000F03D002A91C
:105D800050460DF003FF12B0BDE8F0872DE9F04F4B
:105D90008B46A2F57F4195B091460646FF3944D027
:105DA000746A208C8046984204D02384608C40F032
:105DB000040060844FF4802A5146204614F094FE7B
:105DC00007465146204614F0B6FE0546B7F908705E
:105DD000304607F05CFAB0F916107A1909FB021187
:105DE00005EBD570A1EB6000ADF8060038446D1EE0
:105DF0002844ADF80A00706A818AADF80410008B5F
:105E0000ADF8080006A80DF0D5FC06AA51462046BC
:105E100015F073F901AA06A958460DF0B7FCA4F8CD
:105E20002080608C20F00400608415B0BDE8F08F05
:105E30002DE9F0430E46A2F57F4191B0904605460C
:105E4000FF3956D06C6A278C9F4204D02384608C23
:105E500040F00400608406A80CF038FF4FF480295D
:105E600006AA4946204615F0A0F84946204614F0F7
:105E700062FEADF82A00284607F009FA050038D07E
:105E80000698B5F91620B0F90810BDF92A0000EB04
:105E9000010C08FB0C2200EBD073A2EB6302104450
:105EA000491EADF80A200844ADF80E00A08AADF8EE
:105EB0000800208BADF80C0002AA0EA8B168FBF711
:105EC000B9FC88B10EA8D6F80880B060284611F059
:105ED0002FFA03460020009005F1140206A930466F
:105EE0000CF054FCC6F808802784608C20F0040075
:105EF000608411B0BDE8F0832DE9F041274E0746DC
:105F000070680CF09FF904463868C56B296B09B1BD
:105F100028468847206850B1606828B907E0706853
:105F20000068816A01B1884720690028F7D1012003
:105F3000206171680968C9688A69D20702D08969D5
:105F4000890700D400206061606908B1012600E083
:105F500000263868416971B1016911F0300F06D02F
:105F6000490704D5D5E9001000F01AF803E0D5E997
:105F70000021FEF7F1F9206800280BD061680029A4
:105F800008D03A68127CB243D20703D1A268824299
:105F900002D1A160BDE8F081A060FBE740000020D5
:105FA0002DE9F34F05468A4893B041680E68306981
:105FB000820701D542076ED4C0F3011002281ED01B
:105FC000012801D0032866D100200F9008460CF06C
:105FD00039F98346A988B5F90000EA88091A491CED
:105FE0000CB2B5F90210521A521C17B24FF4A0525B
:105FF000B2FBF4F3BB420FDAB2FBF4F20DE0294638
:106000003046149A00F0F0F8149A15B0294630463C
:10601000BDE8F04FFEF7A0B93A460C920791317CEB
:10602000C1F30111012905D06880611E0844E88090
:106030000020BDE07188081A401EE880001B401C4B
:106040006880F5E70C99A7EB0A00884200DD084656
:1060500000B201900120CBF81000BAF1000F20D15E
:10606000A7421EDB0194307CC0F30110032810D03E
:1060700000202146149A00F0ECF8307CC0F30110A7
:10608000012809D031880798081A401EA880001BF3
:1060900056E00120EDE797E0079828800798204414
:1060A00066E00F9820B94FF4205011F0EBFF0F90ED
:1060B000307CC0F3011003281BD000208646DDF899
:1060C00050C001990F980A9004FB01F0401E0D90FA
:1060D000601E48430E9000208146884222DA0E9AC4
:1060E000BEF1000F02EB090001D00D9A101A002238
:1060F00012E00120E2E70A9BBEF1000F03EB40082B
:1061000063460CF1020C1B88A8F8003001D008444B
:1061100000E0401A521C12B2A242ECDB09F101006D
:1061200000B2D9E7307CC0F3011001281BD03188C0
:106130000798091AA1EB0A00401EA8800199401A8D
:10614000401C288001990AEB0108B84513DBDBF8F5
:106150001800C0070FD0DBF8180080070BD501200E
:10616000CBF814000AE007985044288001990844AD
:10617000401EA880E6E70021CBF814100F9828B144
:10618000024629463046FEF7E7F805E0149AF8E79C
:10619000B16A09B130468847DBF810000028F7D112
:1061A00001981499604301EB400014900FFA88F0B5
:1061B0008246B842FFF646AF0F98002804D015B0CB
:1061C000BDE8F04F11F0AABF15B0BDE8F08F000098
:1061D0004000002030B504880D88058010880880B4
:1061E000188810801C8030BDF8B58B880C884D88CD
:1061F0001B1BCC885B1C641B641C1BB224B2634356
:1062000000245B1E0EE000BF02EB430602EB4407D6
:106210003588ADF80050B7F800C0A6F800C05B1E86
:106220003D80641CA342EFD843884C88CA881B1B5E
:106230005B1ECB8043889A1A521E4A8003880C88C2
:106240008A881B1B5B1E8B800088801A401E08807A
:10625000F8BD2DE9F0470C4617468246002601EBB3
:10626000D47931E00025601C00EBD07827E0A01B3A
:10627000401E01B2601B401E00B2BAF1000F0AD0EE
:1062800005FB041201FB040107EB420300FB046061
:1062900007EB410209E000FB046201FB040007EB8D
:1062A000420307EB400205FB041007EB400106FB2D
:1062B000045007EB4000FFF78DFF6D1C2DB2B5EBCE
:1062C000680FD4DB761C36B2B6EB690FCADBBDE8CB
:1062D000F08700002DE9F047A2B005460EF0D0FE91
:1062E000044628460EF094FE8246606A11F020F8BB
:1062F000054694F85400C00777D004A80DF05AFA68
:106300004FF4E02904AA4946204614F0F6FE04F1B1
:10631000480101A809F008FE606ABDF80410828AED
:106320001144ADF80410BDF80610C08A01AA084453
:10633000ADF80600606ABDF80810808A0844ADF820
:106340000800606ABDF80A10C08A0844ADF80A0067
:1063500004A950460DF01AFA4946204614F07CF97B
:1063600006464946204614F097FA871949462046C2
:1063700014F040FB4FF000081D490644CDF874802E
:10638000CDF87880206D0968284488470246206D42
:1063900041191DA811F010FFBDF804005522384422
:1063A000ADF80400BDF8060041463044ADF80600E3
:1063B000606A14F025FB054612A80CF087FC12AAAF
:1063C0004946204614F0F1FD9DF81300022804D838
:1063D000BDF85400A9B2884207D01DAB01AA12A98A
:1063E0005046CDF800800CF0D1F922B0BDE8F0871E
:1063F000DC0100202DE9F04FC3B0054630300E46D9
:106400002690FBF7FEFF00287DD105F1140241A87C
:10641000B168FBF70FFA002875D041A8D6F808A09C
:10642000B0603CA80CF08AFC4FF4E0243CAA214662
:10643000284614F007FE2CA80DF0BCF99DF8F800D2
:106440008DF8B30047F6FF70ADF8B000214628463E
:1064500014F0B9FB00EBD07047102146284614F029
:10646000B2FB00EBD0704FEA600B3146684613F088
:10647000E9F829A8069018A804906448019005201E
:106480000D9402902698FBF774FFB6E00A223CA90F
:1064900029A811F091FE38222CA918A811F08CFE21
:1064A000E088ADF8A400E088ADF8640012A8099077
:1064B0003FA80A90607BC00704D0B4F90000B4F98B
:1064C00002100FE0B4F90410A1F5FE40FF3875D0BA
:1064D000A2883AAB2846A1680AF03CFEBDF9E80064
:1064E000BDF9EA10AA8A10440FFA80F8E88A084435
:1064F0000FFA80F9C7B1BBF1000F15D00120409011
:10650000A8EB070000E07DE0ADF89C0008EB070079
:10651000ADF8A000A9EB0B00ADF89E0009EB0B0055
:10652000ADF8A20027A801E0002040900390207B56
:1065300081072CD0C00702D0B5F9140000E0404616
:10654000ADF84800ADF84A90217B4846890702D54E
:10655000B5F9181000E04146ADF8FC10ADF8FE00AA
:106560006A461A2128460EF08FFD3FAB12AA29A9D0
:1065700030460CF0D6FB409820B127AA18A9304627
:106580000DF004F96A461B2128460EF07DFD217BA3
:1065900011F00C0F2DD04046ADF84880490702D5C8
:1065A000B5F9161000E04946ADF84A10ADF8FC0008
:1065B000207B000703D5B5F91A0001E019E0484631
:1065C000ADF8FE006A461A2128460EF05DFD3FAB8D
:1065D00012AA29A930460CF0A4FB409820B127AAA2
:1065E00018A930460DF0D2F86A461B2128460EF055
:1065F0004BFD21462698FBF7B9FE04007FF446AF19
:10660000C6F808A043B0BDE8F08F000018480208A3
:106610002DE9F04F9FB005460EF032FD04462846A6
:106620000EF0F6FC1C90204614F098FB0546204620
:1066300013F093FA0146A08A05EBD57200EB6200D5
:106640000FFA80FBE08A01EBD17100EB61000FFAD9
:1066500080FA4FEA620806A80CF070FB06AA002137
:10666000204614F0EFFC4FF41D7008FB00F142F2DD
:10667000341091FBF0F0801CADF81A000026314672
:10668000204613F074FF054647F6FF7900234A467B
:1066900004F114010AA80CF0BDFF00210AA80CF0B7
:1066A0006DFB1B90A78AE28AADF80E20218BADF816
:1066B0001010638B7819ADF80C00481BADF8100072
:1066C0005019ADF80E00581BADF8120001234A46D0
:1066D00003A910A80CF09EFF002110A80CF04EFB9F
:1066E0001D90BDF91A20A8EB05000027A0EB0209B8
:1066F000904439462046FCF721FE0990BDF824005D
:10670000ADF81800300A00B2054618F07DFE00FB17
:1067100008F00BEBE030ADF85800284618F06BFE9F
:1067200000FB08F00AEBE030ADF85A00284618F0FC
:106730006BFE00FB09F00BEBE030ADF85C00284687
:1067400018F059FE00FB09F00AEBE030ADF85E00EE
:1067500017AB16AA06A91C980CF0E3FAFF1CBFB2EF
:1067600006F58766B7F5807FC3D90AA80CF0CAFC86
:1067700010A80CF0C7FC1B980CF0F8FF1D980CF04B
:10678000F5FF1FB0BDE8F08F2DE9F04F88468A680D
:10679000A7B0044600F1140124A8FBF74BF8002829
:1067A0007ED0D8F808001F9024A9C8F8081000214E
:1067B000204613F03FFF05460021204614F036F82E
:1067C000284400B220900021204614F0D7F8284435
:1067D00005B2204613F06EF9B4F88410484340F334
:1067E0000F201B90204613F04BF9B4F88610484355
:1067F00040F30F201D9018A80CF0A0FA18AA002151
:10680000204614F01FFC4146684612F01BFF00268C
:1068100018A80690701E0E90DFF8C8A10D96CDE95D
:1068200001A609966A461A2120460A960EF02CFC0B
:1068300020463122314614F0E3F800F0FF09002130
:10684000204613F0F7FE834620463322314614F0EB
:10685000D7F8C6B2204613F047FA2390204613F02B
:106860000FFBB4F87E10E9B3E18A2944081A00B29C
:106870001E90A08AADF84C00208BADF85C0000257E
:10688000B4F97E70B9F1020F3FD9BBF1000F3CDDC6
:10689000B00707D50021204614F070F810B900E0C9
:1068A0009CE00125F00730D00021204613F058FF6E
:1068B00058BB7F1E3FB228E01D98B4F87E10684395
:1068C000491E90FBF1F01E996A460844ADF84E004F
:1068D000ADF85E000120CDE901A013A8099017A82A
:1068E0001A2100E013E00A900E9520460EF0CCFB32
:1068F00017AB13AA18A940460CF013FA6A461B21DD
:1069000020460EF0C1FB6D1C2DB2BD42D4DBB4F8A5
:10691000800070B3A18A2098002701442398081AA8
:1069200000B21C90E08AADF84E00608BADF85E00BE
:10693000B4F98050B9F1020F13D9BBF1000F10DD8B
:10694000700705D50021204613F070FF00B901271C
:10695000300706D50021204613F0B6FF08B96D1E9A
:106960002DB256460DF14C0B0DF15C094FF0020AA9
:1069700024E025E01B98B4F880107843491E90FB72
:10698000F1F01C996A460844ADF84C00ADF85C0083
:106990000E97CDE9016ACDE909B91A2120460EF01A
:1069A00073FB17AB13AA18A940460CF0BAF96A4654
:1069B0001B2120460EF068FB7F1C3FB2AF42D9DBA3
:1069C0004FF0FF300E90002009900A906A461B217C
:1069D00020460EF059FB1F98C8F8080027B0BDE804
:1069E000F08F0000184802082DE9F04F9DB0834653
:1069F0000EF008FB064658460EF042FB0446122EE7
:106A00007ED0152E01D0182E7BD114F0A7F903905B
:106A1000204613F0A2F8049020460021322213F001
:106A2000EFFF054620460021122213F0E9FF28441B
:106A30000FFA80F820460021132213F0E1FF2844CA
:106A40000FFA80FA20460021102213F0D9FF2844C3
:106A500007B220460021112213F0D2FF2844618E94
:106A60000FFA80F901EB0800ADF86400A08E3844FD
:106A7000ADF8660094F8390000F0030001287DD0DD
:106A800019A9E08ECDE90001DDE90312B4F9303037
:106A900005A8FBF719F9BDF81410A08A0844ADF851
:106AA0001400BDF81610E08A0844ADF81600BDF8D1
:106AB0001810A08A0844ADF81800BDF81A10E08A32
:106AC0000844ADF81A0000BF04F114010D461AA8DD
:106AD000129109F017FA05A9284609F013FA594648
:106AE000CB4812F053FF012861D11AA9129809F07E
:106AF00009FA152E5BD1E08D002858D0A08D01E059
:106B000058E054E0002852D0E08E00284FD058467C
:106B10000EF07EFA064603A8129909F0F3F9204612
:106B20000FF02AFD054694F8390000F00300012813
:106B30007DD0BDF81800BDF81410401ABDF80C1037
:106B40000844ADF81000BDF81A00BDF81610401A40
:106B5000BDF80E1000EB0100BDF80C10ADF81200EE
:106B600001EB0800ADF80C00BDF80E00BDF81010E8
:106B70003844ADF80E00A1EB0A0000E07FE0ADF86C
:106B80001000BDF81210A1EB0900ADF8120094F846
:106B9000381001F0030001286FD089076DD002285A
:106BA0006CD0002319463046129A0BF0ADFD1DB093
:106BB000BDE8F08F58460EF061FA054600780228CD
:106BC000F5D094F838004FF00106C14389074ED044
:106BD00000F0030102294AD0C0F38400042801D048
:106BE000012844D120460021462213F009FFC0B2FB
:106BF000FF283CD1208ED0BB58460EF03FFA074606
:106C0000E08EB0F5807F34D0204612F0A6FF80469B
:106C1000204614F0A3F8014604F13202E08ECDE9DB
:106C200000020023424603A8FBF74EF800E02BE0E9
:106C3000BDF80C00A18A00220844ADF80C00BDF894
:106C40000E00E18A0844ADF80E00BDF81000A18ADC
:106C50000844ADF81000BDF81200E18A0844ADF810
:106C6000120003A93846FAF70DFE00289FD12E70B6
:106C70009DE7002204F11401F4E730E0B7E005A934
:106C8000204612F031FF1FE7B4F92C0029B2401A58
:106C9000BDF80C10401C00EBD070A1EB6001ADF80A
:106CA0000C10BDF81010BDF80E20A1EB6000ADF87F
:106CB0001000B4F92E002914401A401C00EBD070CB
:106CC000A2EB6000ADF80E00B4F92E00401ABDF83A
:106CD0001210401C00EBD070A1EB60003CE711A843
:106CE0000BF03AFD11AA0021204614F00EF9E08EB7
:106CF000ADF84600208EADF84400608EADF8480037
:106D0000A08EADF84A0094F83800BDF81410C00900
:106D10008DF8580001EB0800ADF85C00BDF81600D6
:106D2000BDF818103844ADF85E00A1EB0A00BDF8BC
:106D30001A10ADF86000A1EB0900ADF86200B1686F
:106D400017AA0F461046FAF775FD002890D017A82D
:106D5000B060BDF90E10608D084400B2ADF80200BD
:106D6000884203DDE18D401AADF80200E18D80B26A
:106D70000844401E31E000BFBDF90C10208D0844CE
:106D800000B2ADF80000884203DDA18D401AADF8D5
:106D90000000A18D80B20844401E0DE06A4611A992
:106DA0003046636A0BF0B0FCBDF800002844ADF833
:106DB0000000BDF804002844ADF80400BDF900103F
:106DC000BDF910008142E9DBBDF80210281401442E
:106DD000ADF80210BDF806100844ADF80600BDF984
:106DE0000210BDF912008142C6DBB760DFE60AA8D7
:106DF0000BF06CFF0AAA0021204614F0D6F8002000
:106E00000090636A0AA93046129A0BF0BFFCCEE6E6
:106E1000148702082DE9F04FD3B005460EF030F983
:106E2000044628460EF0F4F84F9010A9204612F0C0
:106E30005BFE00216822204613F0E2FD054600219A
:106E40006922204613F0DCFDBDF84010BDF8442057
:106E5000491BADF840102A44BDF84230ADF844203B
:106E60001B1ABDF84650511A2844ADF84600C01A06
:106E7000401C0FFA80FAADF84230D4E90A02491CEE
:106E80000FFA81FBA2EB0008D34501DB012100E0F2
:106E90000021894600213E9194F85C1001F0030125
:106EA000012908D1002806DA002A04DD216B81427D
:106EB00001D101203E900021204613F0C9FC219011
:106EC0000021204613F012FD36900021204613F0D9
:106ED00067FD20900021204613F054FC359004F10A
:106EE000340010A9139008F0FBFFA18E21980844EC
:106EF000A086218F3698081A2087E18E20980144B9
:106F0000E186618F3598081A00B26087B9F1000FE9
:106F100011D0E18E401A401C00B204281DDAE18A2B
:106F20000AEBDA726FF0010000EB62000844E086C1
:106F3000001D608711E0218FA08E081A401C00B24E
:106F400004280ADAA18A0BEBDB726FF0010000EB78
:106F500062000844A086001D2087218FA08E081A99
:106F6000401C00B21890618FE08E081A401C00B2DD
:106F70002290B9F1000F05D004F13805DC48189FC4
:106F8000139E04E004F13606DA48229F351D3A903C
:106F9000A36D581C14D0216DA06A626D091A101AD5
:106FA0007943784391FBF8F190FBF8F009B200B215
:106FB000401A5843C21700EB126001EB202005E095
:106FC000216BA06A081A784390FBF8F000B2169083
:106FD000A26C501C14D0216CA06A636C091A181A98
:106FE0007943784391FBF8F190FBF8F009B200B2D5
:106FF000401A5043C21700EB126001EB202005E05D
:10700000D4E90910081A784390FBF8F000B23F90D9
:1070100020460021162213F0F3FCC0B2B9F1000F94
:1070200028D001280AD130462E4605463F984042D6
:1070300000B23F901698404200B2169031883F98B7
:107040000844288031881698084430803E9888B3D8
:10705000A06A4042784390FBF8F000B2B9F1000F0B
:1070600015D031880844B5F9001000B281420BDD1B
:10707000308039E029883F98081A401C30802988E0
:107080001698081A2880E1E7318028802CE02988AA
:10709000081A401CB6F9001000B2814201DD2880B8
:1070A00001E029803080B5F90010B6F90000814276
:1070B000EADB19E0FFE73A9913988847012813DCC7
:1070C00035A84F9912F0BEFA4FF4003042908A482A
:1070D0003690002037901398389035AA1A21204610
:1070E0000DF0D2FF35AAFBE050A8139908F0F8FE86
:1070F00068460CF05FFB4FF400356A46294620468F
:1071000013F0FBFF23A84F9912F09CFA4FF00008F0
:107110007948CDE924083095CDF89CD01398269075
:10712000454623AA1A2120460DF0AEFF20460B2229
:10713000294613F065FC05B258465146D34500DB9D
:107140000846B5EB600F00DD4510229A1899BDF98D
:107150000000914200DB1146B0EB610F00DD4810EA
:10716000B9F1000F02D0228FA18E01E0628FE18E73
:10717000511A491C09B2B1EB400F18DD9DF82200ED
:1071800012909DF803709DF81A608DF803808DF8B9
:107190001A808DF822806946139A4F980CF0F6FAFF
:1071A00012988DF803708DF81A608DF82200A18A6C
:1071B000219800230844ADF83401218B36982A46E3
:1071C000081AADF83801E18A20980844ADF8360174
:1071D000618B3598081AADF83A014DA947A80CF013
:1071E00019FA002147A80BF0C9FD17909DF82260FD
:1071F0008DF8228045468DF8368010A90EA808F03B
:107200006FFEBDF838102198084400B2ADF8380080
:10721000BDF83A20209911440BB2ADF83A30BDF8D0
:107220003C203699511A0AB2ADF83C20BDF83E70A8
:107230003599791A09B2ADF83E10B9F1000F12D0A4
:10724000C81A401C00B204281FDAE18A0AEBDA727D
:107250006FF0010000EB62000844ADF83A00001D39
:10726000ADF83E0011E0101A401C00B204280CDA00
:10727000A18A0BEBDB726FF0010000EB62000844A7
:10728000ADF83800001DADF83C00BDF9002000232A
:1072900019A813990CF0BEF9002119A80BF06EFD86
:1072A00007460EAA69464F980CF070FA8DF82260D6
:1072B0008DF803508DF81A508DF836506946139AA0
:1072C0004F980CF063FA19A80BF01CFF47A80BF0BD
:1072D00019FF38460CF04AFA17980CF047FA23AA1F
:1072E0001B2120460DF0D0FE53B0BDE8F08F00000A
:1072F000B7FF000853FF00086C8602082DE9F0472D
:10730000B8B005460DF0BCFE044628460DF080FEE0
:1073100082460021204613F054F901280DD00027A1
:10732000204607F079FC05000ED0204612F015FC2F
:10733000064627B1B4F9340003E00127F0E7B4F9B9
:107340003800ADF898001BE094F85C0000F00300F2
:1073500001280ED1A06A00280BDAE06A002808DDB7
:10736000204613F0FBFC0646606A002805DA608FB1
:1073700004E0204613F0F2FC0646E08EADF89A00D9
:1073800012A80CF017FA4FF4403812AA41462046D2
:1073900013F0B3FE2B46324626A9204618F0BAFF5A
:1073A00004F1680026A9814608F0B5FD51466846FB
:1073B00012F048F92F48019000200290CDE90D808D
:1073C0000DF14808CDE90398204616F005F902288A
:1073D00006D06A461A2120460DF056FE4A463CE089
:1073E000382212A928A810F0E7FE6A461A21204682
:1073F0000DF04AFE4A4612A950460CF0C7F96A46FB
:107400001B2120460DF040FE45B127B1B4F93800EC
:10741000ADF8980005E0B4F93400F9E7608FADF8F5
:107420009A002B46324626A9204618F073FF04F135
:10743000600026A9054608F06EFD382228A912A88A
:1074400010F0BAFE02A9012081E821010E906A46DF
:107450001A2120460DF018FE2A4612A950460CF0BB
:1074600095F96A461B2120460DF00EFE38B0BDE8A6
:10747000F0870000A08702082DE9F0438FB0044692
:107480000DF0FEFD054612F0A9FB074603A80BF020
:107490001DFC03AA0021384613F087FD20460DF09D
:1074A000B7FD816804460E4607F114020DA8FAF7ED
:1074B000C1F9002850D00DA8A0600BA9384606F0ED
:1074C00087F9A88AADF80400E88AADF80600288B91
:1074D000ADF80800BDF82E00ADF80A0001AA10466C
:1074E000A168FAF7A7F94FF000090DF1040878B187
:1074F000A7682846C4F808800FF01AFF034605F174
:10750000140203A92046CDF800900BF03FF9A760C4
:10751000A88AADF80400BDF83200ADF80600288B4B
:10752000ADF80800688BADF80A0001AA1046A16802
:10753000FAF780F978B1A7682846C4F808800FF0F8
:10754000F7FE034605F1140203A92046CDF800908A
:107550000BF01CF9A760A6600FB0BDE8F083000037
:107560002DE9FF4F9FB0987B8A7E00F00F04DDF875
:10757000B0E00E46032C18D0012C1DD0022C21D0D7
:10758000042C13D0082C7DD1A34D4FF0FF0A6101CC
:10759000FD2A2FD2A14F3878904202D17868A042BC
:1075A00025D00020DFF878821FE004249A4D4FF0A8
:1075B000F00A103D1021EBE7974D4FF0800A163D81
:1075C0000221E5E7944D4FF0C00A143D0421DFE7A6
:1075D00015F800C0BCF1FF0F1DD00CFB02FC4FEAF8
:1075E0001C2C00BF08F800C0401C8842F0D38C4D12
:1075F0003A707C602199B3F8068018890790B1F938
:1076000000201F9908FB04F08968B1F900309A4204
:1076100003DB002302E09446E4E79B1A9B46B1F9A2
:10762000043002EB08079F4201DC424601E09A1A4F
:10763000521C9146219AB1F90230B2F902209A42C5
:1076400001DB002300E09B1A1193079BB1F90610A0
:1076500013448B4201DC079901E0891A491C0A9105
:10766000119941430BFB04100EEBD00100F007070A
:107670002C911C2115A810F071FEB089ADF85C00AA
:10768000B07E00E0C4E08DF86C00B07FC0F3C200B3
:107690008DF86D00FBF7C4F80AF0D8FD079A08FBD7
:1076A00002F1814200DC08461C9010F0EBFC0790D0
:1076B000189021980026008800EB0B02ADF80C20F2
:1076C00021980188A9F1010001442198ADF810101A
:1076D0004388119818448B1AADF81200ADF80E00CB
:1076E000ADF83810ADF834200A99ADF836005B1CBF
:1076F00008441BB2ADF83A000B930DA80BF01EFD29
:107700001D9003A815901A90C4F1080008EB0B0116
:107710000F90A1EB090060431290119860E033468E
:107720002AFA07F059464FF0000C1FE02C9ADDF8BA
:107730003C801278A8EB0708024032FA08F205D024
:1077400015F80280079A02F8068002E0079A02F80C
:1077500006C00F9A974202D22744E04004E02C9AD8
:107760000027521C50462C92491C761C4945DDDBF3
:107770001D9880B10798BDF912201844BDF90C106E
:1077800080460B9B0BF09CFC8DF8640018B94046BA
:107790000B9910F0E3FDA9EB0B0081191C988142B5
:1077A00005D2BDF81200401CADF812000EE0022018
:1077B0008DF8640015A91F980CF0E8F9BDF81200C7
:1077C000401CADF80E00ADF81200002612982C995E
:1077D000384401EBD00100F0070701982C91401CC0
:1077E000014601900A98814299DBBDF90E10BDF95E
:1077F0001200814209D0401EADF8120002208DF81F
:10780000640015A91F980CF0C1F9079810F086FCC8
:1078100023B0BDE8F08F000082460208540000202B
:107820000C0300202DE9F04F8346B1F902000C460D
:10783000401E411000F001004618B2F90050B3F9A3
:10784000000089B0854200DA2846ADF80000B2F9A0
:107850000000B3F90030984200DC1846401EADF835
:1078600004005088801BADF8020050880844ADF831
:10787000060069460846DBF80820F9F7DBFF002818
:107880001FD0E08818B1A08808B1012700E00027C8
:10789000012568460BF052FC00B907B100251C21F8
:1078A00002A810F05BFDCDF808D02088ADF81000DC
:1078B000207A6E468DF8200035B102A958460CF0AA
:1078C00065F909B0BDE8F08FBDF80410BDF90000FE
:1078D000BDF90680091A491C0DB2BDF80210ADF8B9
:1078E00006104FF0000A47B1B4F90610B4F90420AD
:1078F000114490FBF1F201FB120A284610F0C2FB82
:10790000079605908146BDF902603EE0294648464B
:1079100010F052FDBDF900102B4632B248460BF074
:10792000CFFB8DF818000FB300B3002150460B4673
:1079300017E000BFB4F90420824205DB121A11449B
:10794000104409B200B208E0B4F906C062448242B1
:1079500001DC002001E009F80130491C401C09B29B
:1079600000B2A942E6DB02208DF8180002A95846B1
:107970000CF00CF9BDF80200401CADF80200BDF897
:107980000600401CADF80600761C4645BEDD4846A4
:1079900010F0C4FB95E700002DE9FF4FB2F902504B
:1079A000B3F90240C5B0A54208DA128865F31F405A
:1079B00062F30F0064F31F411A8807E01B8864F329
:1079C0001F40128865F31F4163F30F0062F30F013C
:1079D0000FFA81F904B20514A9EB04064FEA214A13
:1079E000AAEB05070391002E01DD314600E071424C
:1079F000002F01DD384600E07842814201DD0120A0
:107A000000E0002015904698B0F90210159858B182
:107A1000002F01DD384600E078424201002E01DDF2
:107A200030460CE070420AE0002E01DD304600E0F6
:107A300070424201002F01DD384600E0784292FB9F
:107A4000F0F0AA4A105C48433F30C0114FEA60088A
:107A500000F0010202EB080B49464C4500DA2146D2
:107A6000A1EB0001ADF8581001DD214600E04946C8
:107A70000144ADF85C105146554500DA2946A1EBAA
:107A80000001ADF85A1001DD294600E051460844D6
:107A9000ADF85E00459816A982680846F9F7CAFE57
:107AA00000287DD01598002100287AD0002E16DD00
:107AB000AAEB080000B2CDE90001A5EB080002B274
:107AC0004B46214620A80BF0DDFB0AEB0B00012101
:107AD00000B2CDE900014B4605EB0B0015E00AEBC7
:107AE0000B0000B2CDE9000105EB0B0002B24B46E2
:107AF000214620A80BF0C6FBAAEB0800012100B22A
:107B0000CDE900014B46A5EB080002B221460AA8C8
:107B10000BF0B8FB002120A80BF030F918900021E1
:107B20000AA80BF02BF9159046984FF0FF39C8467C
:107B3000407AC00623D4A819032100B2CDE9000180
:107B4000E01B03B22A4621462BA80BF09BFB0399AE
:107B500002200A14911909B2CDE90010039801B26C
:107B6000C81B03B236A80BF08DFB00212BA80BF02D
:107B700005F98146002136A80BF000F98046BDF8D2
:107B80005C00BDF85810401A401C04B2FAF748FED9
:107B90000AF05CFB054616A808F0E1F9A84201E0EE
:107BA000A1E004E01AD216A808F0D9F917E009EB11
:107BB0000B00CDE900A103B204EB0B0001B22A4691
:107BC00020A80BF05FFB0121A9EB0800CDE900A183
:107BD00003B2A4EB080001B22A4698E72846824681
:107BE00010F050FA8346BDF95E70BDF85A00ADF84A
:107BF0005E0000255146584610F0DEFB1C2119A8F6
:107C000010F0ACFB16A9199146980088ADF86C00ED
:107C10004698BDF95A60007A8DF87C00CDF870B0B6
:107C20001E912DE0BDF958100BEB0500234632B232
:107C300007900BF045FA8DF8740018B921460798A3
:107C400010F08CFB25442919514505D2BDF85E0082
:107C5000401CADF85E0012E002208DF8740019A9F6
:107C600045980BF093FFBDF85E000025401CADF871
:107C70005A00ADF85E005146584610F09DFB761C48
:107C8000BE42CFDDBDF95A10BDF95E00814209D078
:107C9000401EADF85E0002208DF8740019A94598C9
:107CA0000BF074FF584610F039FA20A80BF02AFAAE
:107CB0000AA80BF027FAB9F1FF3F02D02BA80BF06E
:107CC00021FAB8F1FF3F02D036A80BF01BFA189842
:107CD0000BF04CFD15980BF049FD48460BF046FDA6
:107CE00040460BF043FD49B0BDE8F08F82470208E3
:107CF0002DE9F04F8346B1F902000C46401E4110B9
:107D000000F00100158889B00844281AADF8000079
:107D100010880844ADF80400B2F90210B3F902006B
:107D2000814200DA0846ADF80200B2F90200B3F968
:107D30000210884200DC0846401EADF80600694685
:107D40000846DBF80820F9F775FD00281FD0E08809
:107D500018B1A08808B1012600E000260127684676
:107D60000BF0ECF900B906B100271C2102A810F0B5
:107D7000F5FACDF808D02088ADF81000207A6D46CD
:107D80008DF8200037B102A958460BF0FFFE09B06C
:107D9000BDE8F08FBDF80400BDF80010BDF9067015
:107DA000401A401C0FFA80F9BDF80200ADF8060039
:107DB000484610F067F9824605900795002056B1B5
:107DC000B4F90600B4F904100844BDF9021091FB9F
:107DD000F0F200FB12108046BDF9025031E0494636
:107DE000504610F0E9FABDF900104B462AB2504651
:107DF0000BF066F98DF81800A6B178B1B4F904104B
:107E0000414502DA00208DF81800B4F90600B4F9F3
:107E100004100144414501DC4FF0000808F1010065
:107E20000FFA80F802A958460BF0B0FEBDF8020028
:107E3000401CADF80200BDF80600401CADF806007D
:107E40006D1CBD42CBDD504610F068F99FE77CB554
:107E500005460DF015F9446A28460DF0D9F8626A16
:107E60000546816868461432F9F7E4FC002835D0ED
:107E7000AE68C5F808D094F83C00800621D5628F22
:107E8000E08E824208D1212329462046FDF77EFF5D
:107E90002046628F21231DE0202329462046FDF73E
:107EA00075FF2046628F20232946FDF7C1FF20463B
:107EB000E28E01232946FDF769FF2046E28E012369
:107EC00008E02046628F20232946FDF75FFF628F7E
:107ED000204620232946FDF7ABFFAE607CBD0000A5
:107EE0002DE9F04FD5B005460DF0CAF80446008ED6
:107EF00000287DD028460DF08BF84F90608C49A962
:107F000040F004006084204611F0EEFD0025278C2F
:107F10002584608CA94640F004012E46C846618441
:107F200033A80BF047FC41A80AF0D0FE4FF4A02A7A
:107F300033AA5146204613F0E0F841AA51462046A4
:107F400013F033F8608C002120F004006084204698
:107F5000278412F02BFD53900021204612F018FCCC
:107F600052900021204612F079FC519000212046C9
:107F700012F0C2FC509020A84F9911F063FBB54855
:107F8000CDF8B4A0CDE9210812A824900AA8259024
:107F900054E1761CB6B2606AAFA150F82600F8F73B
:107FA0005DF90028F5D0E06A30F81500C0F3C00193
:107FB000002974D18846C0F3C01109B14FF00108FF
:107FC000C0F3401010B148F0800014E0A08EA84229
:107FD00012D1B80601D548F02008B80701D548F0FD
:107FE0000208780701D548F00408380704D500E0F6
:107FF0002CE148F008008046A06A00EBC50103A808
:1080000007F077FFBDF80C10BDF82401B8F1000FA0
:108010000144ADF80C10BDF80E20BDF826110A443D
:10802000ADF80E20BDF810201044ADF81000BDF8DA
:1080300012000844ADF8120026D0A4F82080608C0D
:1080400040F00401618412A80BF0B4FB0AA80AF006
:108050003DFE12AA5146204613F04FF80AAA514697
:10806000204612F0A2FF2784608C20F00401618476
:10807000E06A30F81500C0F3003000289DF8450094
:108080000ED040F001000DE0382233A912A810F004
:1080900093F8202241A90AA810F08EF8E8E7C9E079
:1080A00020F001008DF8450003A8239020AA1A2192
:1080B0002E9520460CF0E8FF9DF86B004108C9069C
:1080C0003CD520F03E001E308DF86B00B4F9143022
:1080D0005199BDF90C2019448A4203D120F00800BF
:1080E0008DF86B00B4F918205098BDF91010101AD3
:1080F000814205D19DF86B0020F010008DF86B00D7
:10810000B4F916205398BDF90E101044814205D1E0
:108110009DF86B0020F004008DF86B00B4F91A2074
:108120005298BDF91210101A814207D19DF86B00C8
:108130008108490061F345008DF86B00BDF812100D
:10814000BDF90E00091A491C0FFA81FB5FEA88612C
:1081500008D5E16A31F81510890503D5A0EB0B00AD
:10816000ADF80E0003AA12A94F980BF00FFB606A3E
:10817000BDF93C30BDF93A1050F826000890BDF822
:108180002801BDF824C10A9AA0EB0C00401C00B2E3
:10819000CDE900109DF845C0CDF808C054A8089955
:1081A00017F0F6F9BDF81010BDF80C00BDF950310C
:1081B000091A491C09B2C91A01EBD17100EB61001F
:1081C000ADF80C00BDF81210BDF80EC0BDF952217B
:1081D000A1EB0C01491C09B2891A01EBD1710CEB1E
:1081E000610109B21844ADF81000881802B2ADF868
:1081F0000E10ADF812205FEA88600ED5E06A30F804
:108200001500800509D50BEBDB70A1EB6001A2EB3B
:108210006000ADF80E10ADF81200CDF8009003AA82
:108220000AA9089B4F980AF0B1FA20AA1B21204600
:108230000CF02AFF6D1C761CADB2B6B2208EA8429F
:108240003FF6A9AE608C20F00400608455B0BDE814
:10825000F08F0000A48602080A0000002DE9F04F0C
:10826000A7B005460CF00CFF044628460CF0D0FEE3
:1082700022900021204612F0E3F905460021122247
:10828000204612F0BDFB28440FFA80FB0021132288
:10829000204612F0B5FB28440FFA80FA0021204650
:1082A00012F090FB28440FFA80F918A80AF00EFD8E
:1082B00018AA4FF40031204612F077FEA06A08B1E8
:1082C000179009E080200FF0DDFE05460146802270
:1082D00020460CF071FC179594F83C00002700F044
:1082E0000F00012800D1012720460021162212F09C
:1082F00087FBC0B2012800D10127E06A002868D0BE
:108300000EF004FA804602280DD002A9E06A0DF0B2
:1083100089FF01281BD04FF0FF363546E7B1A18A0F
:1083200001EB0B001CE0BDF972009DF87D2041F6C9
:10833000FF718DE80700BDF97430189A15A8E16A3D
:1083400017F026F9BDF95460BDF95650E6E70298DA
:10835000C0F38A26450DE1E7218BA1EB0A00801BC3
:10836000711EADF814000844ADF81800B8F1020F02
:108370005DD0204611F0F1FB401BE18A00EBD0708C
:1083800001EB6000ADF81600691E0844ADF81A0054
:1083900011A80AF0E1F94FF4003811AA414620462D
:1083A00012F0B3FD06EBD6704010ADF8480005EBB7
:1083B000D5704010ADF84A0020466D22414612F0BB
:1083C0001FFBADF8440005AA11A9E36A22980AF040
:1083D0009BF909A80AF07AFC09AA0021204612F0AC
:1083E000E4FDBDF936009DF8412041F6FF718DE8AE
:1083F0000700BDF9383007A8099A179917F0C8F88F
:10840000E18A01EB0900BDF81E10ADF80E0008442A
:10841000ADF81200E06AE0B13FB3218BA1EB0A0096
:10842000BDF81C10B0EB0100ADF80C0024E0E18AAF
:108430006D1E01EB0900ADF816002844ADF81A00D6
:108440000020009005AA18A9E36A22980AF09EF974
:10845000BFE7204612F082FCBDF91C10A28A401A28
:1084600000EBD07002EB6000DEE7A18A01EB0B00AD
:10847000BDF81C10ADF80C000844ADF81000002049
:10848000009003AA09A9179B22980AF07FF9A06A15
:10849000002802D117980FF041FE27B0BDE8F08FF9
:1084A0002DE9F04798B005460CF0EAFD0446284651
:1084B0000CF0AEFD064609A9204611F0B3FA94F877
:1084C00048000025C10600D50125800601D545F0EC
:1084D00002050021204612F07CFBA0F51C51D13989
:1084E00004D1608C400501D445F004050BA80AF0C6
:1084F000EDFBB4F84400ADF84200B4F84600ADF826
:1085000044008DF849500BAA0021204612F04DFD81
:108510009DF848004FF0010808B98DF84880E06BDD
:108520000C90206C0D900C994FF6FF7081421ED07C
:108530000D9981421BD04FF4802927465522494688
:10854000204612F05DFA024649463846F9F7B0FF78
:108550000090BDF80000ADF83A00204620224946C0
:1085600012F04EFA0090BDF80000ADF83C0094F80F
:10857000480041F6FF7A00F00700022801D00328E6
:108580001ED19DF84800022801D0032818D1BDF95A
:108590003E10CDE9001A0295BDF940300B9A16A89D
:1085A000616A16F0F5FFBDF82800BDF82410401AE6
:1085B000401CBDF9581000B2884201DA8DF848809D
:1085C00094F8480004F1300700F00700032809D0B0
:1085D000BDF82A00BDF82610401A401C00B2B0F5C4
:1085E000806F00DA002709A914A8B268F9F722F908
:1085F00000287DD094F8480040070BD1204611F0A8
:108600003FFC404202B2002109A807F0E7FC608B62
:10861000ADF82A0094F848000DF1500900F0070069
:10862000022813D0032811D0009709AA0BA93046BD
:10863000636A0AF0ABF8B068C6F80890804694F810
:10864000480000F0070003280FD05FE0D6F808804C
:10865000C6F80890009709AA0BA93046636A0AF089
:1086600095F84046C6F80880E6E7BDF93E10CDE92A
:10867000001A0295BDF940300B9A06A8616A16F0FF
:1086800087FFBDF82800BDF82410401A401CBDF932
:10869000181000B2884219DA202211460B980CF00B
:1086A00032FEB4F84410BDF8182000EB400011442D
:1086B0000844ADF84200B4F84600ADF84400009715
:1086C00009AA0BA93046636A0AF060F8BDF82A00CF
:1086D000BDF82610401A401C01B2BDF91A008142B3
:1086E00014DAB4F84410ADF842100B99098900E08F
:1086F0000EE0B4F84620009710440844ADF844005A
:1087000009AA0BA93046636A0AF040F8C6F8088047
:1087100018B0BDE8F0872DE9F04397B007460CF09C
:1087200071FC054638460CF0ABFC04464FF480263D
:10873000152D7ED0182D7DD138460CF069FC0546EC
:1087400007A80AF0C3FA07AA3146204612F02DFC0A
:1087500013A9204605F03CF813AA15A8A968F9F753
:1087600069F800287ED0204604F098FD8146204616
:1087700012F0F4FA064648460EF0DAFDBDF92E1066
:10878000CDE90016022202920146BDF9303005A85B
:10879000079A16F0FDFE204611F0DFF9B4F9161025
:1087A00000EBD076B9F9160001EB6601471A48468E
:1087B00011F0D3F9B90391FBF0F70021204612F034
:1087C00099F90799B0F90800B1F90810081A00EBF7
:1087D000D070BDF816104010091A09B2ADF8161085
:1087E000E28A794302EB660202EBA1310F1A002103
:1087F000204611F02BFF804620460021122212F065
:10880000FFF8064620460021132212F0F9F8A28A4A
:1088100006EB08011144ADF84010ADF84270218B11
:10882000081AA0EB0800ADF84400BDF81600384463
:1088300001E01AE016E0ADF846009DF8390040F07E
:1088400002008DF8390015A8AC68A86048460EF003
:108850006FFD03460020009010AA07A9284609F0E2
:1088600095FFAC6017B0BDE8F08338460CF0D0FB44
:10887000054610A9204604F0ABFF68460AF09AFFAF
:108880006A463146204612F038FC10AA694628464E
:108890000AF07CFFE6E72DE9F043ABB005460CF0AB
:1088A000EFFB044628460CF0B3FB8146002120462E
:1088B00011F0E6FF07460021204612F02FF8064689
:1088C0000021204612F08AF805460021204611F0CA
:1088D00071FFA18AE28AADF88A20238BADF88C3033
:1088E000B4F81AC03944ADF88810991BADF88C1053
:1088F000ACEB00005119ADF88E00ADF88A1006A857
:108900000AF058FF06AA4FF40031204612F0F5FB9A
:1089100022AA06A948460AF039FF204611F01DF99F
:108920000546208BA18A411A491C481B06B2606A81
:10893000411C06D07043C11700EB116040F30F27B4
:1089400008E0204611F0FAFD10F0010F01D0374683
:1089500000E0002720460021162212F051F8C0B294
:10896000012801D1F01B07B2A08A3844ADF80000FD
:108970002844ADF80400E08AADF80200608BADF841
:1089800006004FF440373946204611F079FF06467D
:108990003946204611F0C2FF80463946204612F083
:1089A0001DF805463946204611F004FFBDF80010B9
:1089B000BDF80420891BADF8001002EB0801ADF8EA
:1089C0000410BDF80210491BADF80210BDF80610E6
:1089D0000844ADF8060014A80AF0ECFE14AA3946C3
:1089E000204612F08AFB6A4614A948460AF0CEFED9
:1089F0002BB0BDE8F08300002DE9F04FE1B0054653
:108A00000CF03EFB044628460CF002FB82468268CE
:108A100004F1140130A8F8F70DFF00287ED0DAF831
:108A200008000F9030A8CAF8080020460021322222
:108A300011F0E6FF00B257900021204611F0D4FF5C
:108A40005B900021204611F0BBFE5D900021204686
:108A500011F01CFF5A900021204611F065FF59903B
:108A6000208C002609902684608C40F004006084ED
:108A700022A80AF09FFE4FF4A02522AA29462046EC
:108A800012F03BFB32A80AF021F932AA294620460F
:108A900012F08BFA09982084608C002720F00400E3
:108AA0006084204611F0FAF90146E28A5B9810448E
:108AB000411A57980844401EADF81600204611F0A0
:108AC000E6F958900021204611F081FD012800D0E0
:108AD00000208346514642A810F0B4FD4FF4A02078
:108AE0004F90EB4843900020449014A846903AA839
:108AF0004790002089E0E06A30F91910BDF81600AF
:108B00005491401C00B2491E0144ADF81200ADF86A
:108B10001610BDF9C61088427CDC00E07DE0BBF198
:108B2000000F0AD0218B5998091A5898091A57989A
:108B3000081A401EADF8100009E0A18A5A980144B5
:108B40005898091A57980844401EADF8140000259B
:108B500055E000205590A06A50F8270008B1007831
:108B60005590BBF1000F0CD0BDF81000401EADF8C1
:108B70001400216B31F81510401A401CADF810009C
:108B80000BE0BDF81400401CADF81000216B31F86B
:108B900015100844401EADF8140000261DE0A06A20
:108BA000B91950F82100E8B10078C0071AD0206B3D
:108BB000A919022202EB4101405EBBF1000F05D072
:108BC000BDF81010081AADF8100004E0BDF814103C
:108BD0000844ADF81400761CB6B2A08C7119401E82
:108BE0008142DCDBBDF91600BDF9C210884217DAFC
:108BF000B819401C87B2A81980B2401C85B2A08C5D
:108C0000A842A6D809F1010080B2E18C814649450D
:108C10003FF671AF0F99CAF8081061B0BDE8F08F48
:108C2000BDF91020ADF82820BDF91280ADF82A80DA
:108C3000BDF91410ADF82C10ADF82E0086469DF845
:108C4000AB00C0F3440043070DD5B4F914C05A9BE0
:108C500063449A4207DDBDF9A83003EBD373A2EB5E
:108C60006302ADF8282082070DD5B4F916305B9A5F
:108C70001A44904507DDBDF9A82002EBD272A8EB9B
:108C80006202ADF82A20020711D5B4F91830599ABA
:108C90009A1A521E91420ADABDF9A82002F0010385
:108CA00002EBD27203EB62021144ADF82C10C00744
:108CB00012D0B4F91A205D98101A401E86450BDABE
:108CC000BDF9A80000F0010100EBD07001EB6001DC
:108CD00001EB0E00ADF82E00E28E00214A457DD159
:108CE000A08EA8427AD1208C420602D4820600D5FA
:108CF0002021820701D541F00201420701D541F050
:108D00000401000701D541F00801002966D0218443
:108D1000608C40F00401618414A80AF04BFD3AA86D
:108D200009F0D4FF4FF4A02814AA4146204612F0BF
:108D3000E4F93AAA4146204612F037F9099820840E
:108D4000608C20F0040161840AA84590A18C42AA9D
:108D500009FB015050901A2120460CF095F90AAAFF
:108D600014A950460AF012FDA06A50F82700002806
:108D70007ED04FF4A0284146204611F087FD0C908C
:108D80004146204611F0D0FD12904146204611F098
:108D90002BFE02904146204611F012FDBDF8103026
:108DA0000C9ABDF812C01A440FFA82F8BDF81430BC
:108DB000129AADF840809A1A13B2ADF84430029A74
:108DC00001466244ADF84220BDF816200020511A39
:108DD000ADF846105599C1F3400100E018E05E91EE
:108DE00001B10220A3EB0801491CBDF9FA2009B228
:108DF0000092CDE90110A06ABDF9FC30329A50F81A
:108E000027105CA8491C16F0C3FB5E9858B11FE000
:108E1000382222A914A80FF0CFF9202232A93AA8AB
:108E20000FF0CAF990E75498BDF81210BDF97221FD
:108E300000EBD07001EB600302EBD272401000EB4C
:108E40006200A3EB62030844ADF84230ADF846007F
:108E500004AA30A95FA8F8F7EDFC48B15FA900208B
:108E6000CAF808100090A06A10AA50F8273000E055
:108E700007E03AA950465B1C09F088FC30A9CAF803
:108E8000081042AA1B2120460CF0FEF8B0E60000B4
:108E9000D88702082DE9F04F8B4607469088118845
:108EA000A9B0401A401C00B200EBD07046108819DF
:108EB000ADF8780050883044ADF87A0020A809F069
:108EC0003DFF4FF4A02420AA2146384612F0BAF8FC
:108ED00018A809F041FC18AA2146384612F015F8E6
:108EE0000021384611F012FC8246594602A810F0C3
:108EF000A9FB5F4803901EA80B9007F13000249057
:108F0000F9F737FAAEE0256813942079012801D0EB
:108F100098B3A3E0B5F92030E88B18440090D5E968
:108F20000512E0680FF062F8A98B628A00B2114462
:108F300031440DB2804616F067FA684347F6FF7970
:108F400090FBF9F0BDF87A100844ADF89A0040465D
:108F500016F055FA684390FBF9F0BDF87810084414
:108F6000ADF89800A08AADF88000208AADF88200A4
:108F70006079FD2802D9504603E016E000FB0AF0B4
:108F8000000A8DF888000120109020A8089026A8DB
:108F90000C9002AA1A2138460CF076F826AB1EAACD
:108FA00020A9584609F0BDFE53E02069F0B3B5F999
:108FB0002030E88B18440090D5E90512E0680FF0E6
:108FC00015F8054625A920690DF02CF9BDF87800A3
:108FD000A18A411AADF85810BDF87A00E28A801AC9
:108FE000ADF85A00259AC2F38A235B1E1944ADF8E6
:108FF0005C104FF0FF3101EB52510844ADF85E00B8
:109000006079FD2801D9504602E000FB0AF0000A11
:109010008DF86B00A08AADF86400E08AADF86600B8
:1090200005EB85004000B0F5616F00E016E001DD62
:10903000A0F56160ADF8600018A8099002AA1A2195
:1090400038460CF021F816AA18A95846236909F0E9
:109050005BFB02AA1B2138460CF016F82146249827
:10906000F9F784F904007FF44EAF29B0BDE8F08F22
:10907000504D020830B5054691F82A0089B00C46DB
:1090800002285FD9E08C00285CD0114604A806F0C5
:109090001EFF208DBDF81010401E091AADF81010EB
:1090A000BDF81210091AADF81210BDF814100144E1
:1090B000ADF81410BDF816100844ADF8160004A958
:1090C00006A806F004FFBDF81810E08CBDF81220C9
:1090D000091AADF81810BDF81C100844ADF81C00B2
:1090E000BDF81A00E18C401AADF81A00BDF81E0058
:1090F000E18C0844ADF81E00BDF81400BDF8101056
:10910000401ABDF81610401C891A491C00B209B259
:10911000B4F90020884200DA0146B2EB610F00DDAD
:109120004A10E08CA178104403B294F82A00CDE9EB
:109130000201A08CADF80400009204AA06A92846FA
:10914000FCF756FB09B030BDF8B504460BF098FFAC
:10915000064620460BF092FF0446406BB0F5A02F68
:1091600051D1A06B0025072805D22069C570206960
:1091700080F8225012E081B22022304607F02CFC09
:1091800060B12069C570206980F82250122013F068
:10919000FDFB00906069BDF800108181208F4FF4C5
:1091A000004281B2304607F017FC98B12169662071
:1091B000C870304615F0B4FE00902069BDF800106C
:1091C0008180304607F006FCA16B884202D12169FC
:1091D000B220C870208F4FF4804281B2304607F031
:1091E000FBFB00280FD02169FF2081F822003046C8
:1091F00015F096FE00902069BDF80010C18321692A
:10920000088C401C0884F8BD2DE9F0418CB005465F
:109210000BF036FF044628460BF0FAFE8046606AE3
:109220000EF086F8007800283BD1A06A002838D0DC
:109230000078002835D001A809F048FD01AA4FF4B4
:109240000021204611F0B1FE94F86000000705D51A
:109250009DF8210040F002008DF8210000212046F9
:1092600011F01AFB07460021204611F0C3FB064609
:109270000021204611F0F0F9054604F1140109A877
:1092800006F052FE701902B2781901B209A806F070
:10929000A5FE0020009009AA01A94046A36A09F092
:1092A00075FA0CB0BDE8F0817CB50446806961892F
:1092B0006D468668A08961B1002865D0814203D1DE
:1092C0002289E3889A427CD302297BD003297AD071
:1092D000AFE010BBE088218988421ED2B4F90600B5
:1092E00016F092F8B4F90410B4F90E20891A484324
:1092F0002168498801EBE030ADF80200E0885A307F
:1093000000B216F081F8B4F90410484321680988C6
:1093100001EBE030ADF8040040E020680088ADF8D3
:1093200000002068A18840880844ADF80600B4F920
:10933000060016F069F8B4F90410B4F90E20891A81
:1093400048432168498801EBE030ADF80200E0882D
:109350005A3000B216F058F8B4F9041032464843B7
:109360002168098801EBE030ADF804006946084641
:10937000F8F760FA30B1A0698560D4E90520216969
:109380000AF004FAA08970BB2068A188008808440C
:10939000ADF8040020684088ADF80200B4F9080078
:1093A00016F032F8B4F9041048432168498801EBFB
:1093B000E030ADF8060020895A3000B216F024F8EB
:1093C00002E015E012E00FE0B4F90410B4F90E2049
:1093D000891A484321683246098801EBE030ADF82C
:1093E000000069461AE024E0022801D0012820D1BB
:1093F000206832460088ADF8000020684088ADF84B
:1094000002002068A18800880844ADF804002068A4
:10941000A18840880844ADF8060029460846F8F7B8
:1094200009FA30B1A0698560D4E9052021690AF004
:10943000ADF9A06986607CBD7CB504468069618910
:109440006D468668A08901290CD0012867D0814229
:1094500003D12289E3889A427ED300297DD0032953
:109460007CD0B5E0012822D1E088218988421ED233
:10947000B4F9060015F0C8FFB4F904104843216898
:10948000498801EBE030ADF80600E0885A3000B2C0
:1094900015F0BAFFB4F90410B4F90E20891A484344
:1094A0002168098801EBE030ADF8040042E0206853
:1094B000A1880088401AADF8000020684088ADF807
:1094C0000200B4F9060015F09FFFB4F904104843F8
:1094D0002168498801EBE030ADF80600E0885A3099
:1094E00000B215F091FFB4F90410B4F90E20891AF6
:1094F000484321683246098801EBE030ADF80400AA
:1095000069460846F8F796F930B1A0698560D4E954
:10951000052021690AF03AF9A089012858D120686C
:109520000088401EADF804002068A18840880844E7
:10953000ADF80600B4F9080015F066FFB4F90410A0
:10954000B4F90E20891A48432168498801EBE030BC
:10955000ADF80200208902E018E010E014E05A3073
:1095600000B215F051FFB4F90410324648432168A7
:10957000098801EBE030ADF8000069461DE00228E3
:1095800004D0032802D023E0022821D12068A1883A
:1095900032460088401AADF8000020684088ADF8D7
:1095A000020020680088401EADF804002068A188F1
:1095B00040880844ADF8060029460846F8F73AF90D
:1095C00030B1A0698560D4E9052021690AF0DEF890
:1095D000A06986607CBD7CB50446806961896D4662
:1095E0008668A08902290CD002287ED0814203D14E
:1095F0002289E3889A4279D3002978D0012977D04B
:10960000D4E002283FD1E088218988423BD25A30F9
:1096100000B215F0F9FEB4F9041048432168098836
:1096200001EBE030ADF80000B4F9060015F0ECFEF7
:10963000B4F90410B4F90E20891A48432168498806
:1096400001EBE030ADF80600B4F9080015F0DCFEDF
:10965000B4F9041048432168498801EBE030ADF8C3
:10966000020020895A3000B215F0CEFEB4F9041081
:10967000B4F90E20891A48432168098801EBE030CB
:10968000ADF8040066E020680088401EADF80400D4
:109690002068A1884088401AADF80200E0885A305E
:1096A00000B215F0B1FEB4F90410484321680988EE
:1096B00001EBE030ADF80000B4F9060015F0A4FEAF
:1096C000B4F90410B4F90E20891A484321683246CF
:1096D000498801EBE030ADF8060069460846F8F726
:1096E000A9F858B1A069856003E00AE03BE034E0E6
:1096F00036E0D4E9052021690AF048F8A08902285B
:1097000054D12068A1880088401AADF80000206874
:109710004088401EADF8060020895A3000B215F08E
:1097200073FEB4F90410B4F90E20891A4843216875
:10973000098801EBE030ADF80400B4F9080015F039
:1097400063FEB4F9041048432168498801EBE03016
:10975000ADF80200324669461DE0032803D025E03B
:10976000032800D010BB2068A18832460088401A28
:10977000ADF800002068A1884088401AADF80200CA
:10978000206829460088401EADF804002068408803
:10979000401EADF806000846F8F74CF830B1A06955
:1097A0008560D4E90520216909F0F0FFA069866091
:1097B0007CBD7CB50446806961896D468668A08958
:1097C00003290ED0032867D0814203D12289E38880
:1097D0009A427ED302297DD001297CD002297BD0F8
:1097E000B1E003281FD1E088218988421BD25A307A
:1097F00000B215F009FEB4F90410B4F90E20891A6C
:1098000048432168098801EBE030ADF80000B4F965
:10981000060015F0F9FDB4F90410484321684988A1
:1098200001EBE03040E02068A18800880844ADF8F2
:10983000040020684088401EADF80600E0885A30D9
:1098400000B215F0E1FDB4F90410B4F90E20891A44
:1098500048432168098801EBE030ADF80000B4F915
:10986000060015F0D1FDB4F90410324648432168D2
:10987000498801EBE030ADF8020069460846F7F789
:10988000D9FF30B1A0698560D4E90520216909F0CC
:109890007DFFA089032856D120680088ADF800001C
:1098A0002068A1884088401AADF8020020895A300B
:1098B00000B215F0A9FDB4F90410484321680988E5
:1098C00001EBE030ADF80400B4F9080015F09CFDA0
:1098D00003E016E010E013E00FE0B4F90410B4F96F
:1098E0000E20891A484321683246498801EBE0304E
:1098F000ADF8060069461BE018B1012801D022E04E
:1099000008BB206832460088ADF800002068A188B6
:109910004088401AADF802002068A18800880844F9
:10992000ADF80400206829464088401EADF80600C6
:109930000846F7F77FFF30B1A0698560D4E90520BC
:10994000216909F023FFA06986607CBD70B5A4B0D1
:109950000C46054620AA22A910F0A7FA22A806F074
:10996000FEFA20B920A806F0FAFA00283ED012A983
:10997000284617F0A6FE012838D1214668460FF088
:1099800061FE1B4801900220029012A804904FF43F
:1099900080300D9022A806F0E2FA80B122A8039050
:1099A0006A461A2128460BF06FFB22AA12A920460C
:1099B00009F0ECFE6A461B2128460BF065FB20A847
:1099C00006F0CDFA002811D020AE6A461A212846AA
:1099D00003960BF059FB20AA12A92046039609F022
:1099E000D5FE6A461B2128460BF04EFB24B070BD05
:1099F000484602082DE9F04F0F468A68B5B0044684
:109A000000F1140115A8F7F715FF002874D0B86805
:109A10002F9015A8B8600021204610F007FF0646D9
:109A20000021204610F0AAFF8246204610F042F89E
:109A3000B4F88410484340F30F29204610F020F872
:109A4000B4F88610484340F30F20189004F1240026
:109A50001790F8F779FC05460021204610F0C2FE69
:109A6000B4F8841048434FEA2028B4F88200C0F1CB
:109A7000010303FB089191FBF0F001B2B1FBF5F09B
:109A800000B24FF4A0252D902946204610F0AAFEE2
:109A9000B4F88410484300123290204610F024F9A4
:109AA000301A0FFA80FB204610F0EAF9AAEB00000A
:109AB00000B231901AA809F07DFE1AAA2946204664
:109AC00011F01BFB9DF8770020F007008DF8770060
:109AD000FF208DF86B00608BBDF868100844ADF86E
:109AE000AE00394601A80FF0ADFD484802900420B1
:109AF0000E95002603907FE085E000BF09EB08018A
:109B0000714391FBF0F101EB0B00A18A0F96084421
:109B10000FFA80FA1798F8F72CFC69E0287BC00749
:109B200062D194F88800000701D4688900E0002021
:109B30002D9A329B524401B2D31A5046ADF8A8A0D8
:109B40005B1E0FFA82FA1BB2BDF95420ADF8AC309F
:109B5000934249DBBDF9582090424BDC2889ADF88F
:109B60006C00B4F88200314491FBF0F200FB12105B
:109B70002A7B6968C2F3001304EB430200B232F996
:109B80006C3F31F91010B2F90420C91ADDF860C039
:109B9000D21A01FB0CF191FBF2F2319BE18AACEBA2
:109BA00002021A441144ADF8AA10696831F9101084
:109BB000A1F5FE42FF3A17D02AA904911AA91295DD
:109BC0000591696801AA31F9100011901A21204607
:109BD0000BF05AFA2AAA1AA9384609F0D7FD01AAA9
:109BE0001B2120460BF050FA29461798F8F7BEFBC8
:109BF000050093D1761CB6B2B4F88200B0423FF6AD
:109C00007DAF2F98B86035B0BDE8F08F18480208D6
:109C10002DE9F04F89468A6800F11401C1B005466C
:109C20000F463CA8F7F706FE00287CD03CA9D9F8DF
:109C300008A0C9F80810B5F88200022873D30021E3
:109C4000284610F0F7FC04460021284610F0EEFDEF
:109C500006190021284610F091FE044428460FF012
:109C600029FFB5F88410484340F30F200F90284691
:109C70000FF006FFB5F88610484340F30F20099017
:109C8000284610F031F8A98A3144081A00B23990F8
:109C9000284610F0F5F8E98A2144081A00B23A90F3
:109CA00039463EA8D9F80820F7F7C4FD00283AD075
:109CB00027A809F043F827AA4FF4A021284611F05D
:109CC000C1F92AA809F076FD4FF400342AAA2146EA
:109CD000284611F012FA2146284610F074FF00EBD6
:109CE000D07047102146284610F0E0FC00EBD07001
:109CF00041108B46BDF99E005F4500DA394600EB06
:109D0000D072B1EB620F05DD9DF8A51041F0100196
:109D10008DF8A510012805D19DF8A50040F0100090
:109D20008DF8A50000E087E1B5F882100F98814218
:109D300001DB012000E000203B9005F12400389079
:109D4000F8F717FB73E1207BC0077CD12089ADF8C1
:109D50009C002089ADF8AC0095F88800000701D47C
:109D6000608900E0002000B20C903998ADF818002E
:109D7000ADF808000C98059013906168099B31F9C3
:109D80001000217BC1F3001205EB420131F96C2F69
:109D9000B1F90410801A5843891A90FBF1F0191A8E
:109DA0003A980844ADF80A00494614A80FF04AFC56
:109DB000A3481590032016904FF4A020219027A8C7
:109DC0001A902AA825941890BDF90A00039000263D
:109DD0000790E9E0BDF90810ADF81810BDF80A00C9
:109DE000ADF81A00BAF90420781C104481427BDCDB
:109DF0000F98B5F882207043531E90FBF3F3399807
:109E0000184400B2ADF808000C9B334493FBF2FCFD
:109E100002FB1C3212B205926368DDF824C033F9EC
:109E20001220237BC3F3001305EB4303B3F96C80CB
:109E3000B3F97030A2EB080202FB0CF2A3EB0803AB
:109E400092FBF3F200E0EEE0ACEB02033A9A1A4424
:109E500012B2ADF80A209046BAF90020D21B521E69
:109E600090423FDB002E3DD03B9AE2B36368139AE9
:109E700033F912C047F6FF72944533D0DDF814C0B1
:109E800033F91C3093422DD0079B984501DA1A46CE
:109E900000E04246039B0792984501DD1A4600E028
:109EA0004246039281427BD0401EADF81800ADF8C7
:109EB00008000798ADF81A20ADF80A00824202D1D6
:109EC000401CADF80A0002AB06AA27A9484608F0D4
:109ED00028FFBDF80800CDF80C80401CADF8080044
:109EE000CDF81C805CE000E063E0BDF81800C11B09
:109EF0003844ADF83800BDF81A00ADF83410A0EBC6
:109F00000B015844ADF83A00701E2290ADF836109F
:109F10006168139831F9101047F6FF70814201D043
:109F200006A900E000211D9162680599804632F97A
:109F30001110414501D002A800E000201E900DA89C
:109F400017906168139814AA31F9100024901A210F
:109F500028460BF099F86068139930F911204245B2
:109F60000AD0059930F91110414505D002AB06AA77
:109F700027A9484608F0D5FE6FB1BBF1000F0AD003
:109F80006168139831F91010414504D00DAA2AA92F
:109F9000484609F0FBFB14AA1B2128460BF074F875
:109FA0000598761CB6B21390B5F88200B0423FF621
:109FB00011AF3B98B8BBB5F88200B04233D16168AD
:109FC000059831F91010A1F5FE40FF382BD0BDF8EF
:109FD0000800761EC11B3844ADF83010ADF83400CF
:109FE000BDF80A0014AAA0EB0B015844ADF83600E6
:109FF00000201D901E900CA81790ADF832102296EC
:10A000006168059831F9100024901A2128460BF058
:10A010003BF80CAA2AA9484609F0B8FB14AA1B2150
:10A0200028460BF031F821463898F8F79FF90400DC
:10A030007FF489AEC9F808A041B0BDE8F08F0000F8
:10A04000184802082DE9F04F8A468A68B9B00546DB
:10A0500000F1140137A8F7F7EDFB00287DD0DAF8FE
:10A060000800349037A9CAF808100021284610F0DB
:10A07000E1FA04460021284610F0D8FB06460021EC
:10A08000284610F07BFC074628460FF013FDB5F874
:10A090008410484340F30F20339028460FF0F0FC23
:10A0A0000146B5F88600414341F30F20249028462D
:10A0B0000FF01AFE0146AA8A30191044401A00B265
:10A0C000259028460FF0DCFE0146EA8A3819104434
:10A0D000401A00B228902CA808F030FE2CAA4FF4A9
:10A0E000A021284610F0AEFF16A809F063FB4FF43C
:10A0F000003416AA2146284610F0FFFF21462846C4
:10A1000010F061FD00EBD0704FEA6009214628464F
:10A1100010F0CCFA00EBD07042109046BDF9B200BE
:10A120004946C14500DB114600EBD072B1EB620F2E
:10A1300005DD9DF8B91041F010018DF8B910012826
:10A1400005D19DF8B90040F010008DF8B90005F177
:10A1500024002A90F8F70DF941E146E1207BC00781
:10A160007ED12089ADF8B0002089ADF85C0095F86B
:10A170008800000701D4608900E0002006B225981D
:10A18000ADF8D8002996ADF89C006068B34630F869
:10A1900016000A282CD0339800902068002330F94C
:10A1A0001670207BC0F3C00105EB4100B0F97820A8
:10A1B000B0F9741038460DF019FF259900230844B2
:10A1C000ADF89C0024980090606830F91670207BF0
:10A1D000C0F3001105EB4100B0F97020B0F96C102C
:10A1E00038460DF003FF2499081A2899084402E024
:10A1F0007F48ADF89C00ADF89E00514602A80FF0D4
:10A2000021FA4FF4A0200F907A4803900320049085
:10A210002CA8089016A80027139406909FE000BF72
:10A22000BDF89C00ADF8D800BDF89E00ADF8DA008E
:10A230002998B5F88220C11991FBF2F002FB1010A9
:10A2400006B2606830F91600A0F5FE41FF3968D00B
:10A2500024990091217BC1F3001105EB410100E03D
:10A26000B9E0B1F97020B1F96C1000230DF0BEFE19
:10A2700024990023081A28990844ADF89E003398C1
:10A280000090217B2068C1F3C00105EB410130F94A
:10A290001600B1F97820B1F974100DF0A7FE2599D8
:10A2A0000844ADF89C00E7B3BDF8D800A0EB090165
:10A2B0004844ADF8C000BDF8DA00ADF8BC10A0EB22
:10A2C00008014044ADF8C200781EADF8BE101090F1
:10A2D000616831F91B10A1F5FE40FF3801D036A9A5
:10A2E00000E000210B91616831F91610A1F5FE40E4
:10A2F000FF3801D027A800E000200C902FA805907F
:10A30000616802AA31F91B0012901A2128460AF04E
:10A31000BBFE616847F6FF7031F91B20824216D000
:10A3200000E019E031F91610814210D027AB36AAAF
:10A330002CA9504608F0F5FCB9F1000F07D0B8F190
:10A34000000F04D02FAA16A9504609F01FFA02AA3E
:10A350001B2128460AF098FE7F1CB346BFB2B5F811
:10A360008200B8423FF65CAFB5F88200B84232D105
:10A37000606830F91610A1F5FE40FF382BD0BDF80B
:10A380009C007F1EA0EB09014844ADF8C000BDF859
:10A390009E00ADF8BC10A0EB08014044ADF8C2002F
:10A3A0000020ADF8BE100B900C902FA810970590D0
:10A3B000606802AA1A2130F91600129028460AF0A5
:10A3C00063FE2FAA16A9504609F0E0F902AA1B2144
:10A3D00028460AF059FE21462A98F7F7C7FF0400DD
:10A3E0007FF4BCAE3499CAF8081039B0BDE8F08FDC
:10A3F00001E0FFFF184802082DE9F74FB1F92E00E0
:10A40000AAB014460E46002872D096F836100229DB
:10A410006ED9012808D1B6F93400002804DC308E4A
:10A4200010B9708E0028EFD02088318E4218B08E7F
:10A43000121AADF82820A38819440144ADF82C1055
:10A440006088738E1844B38EC01AADF82A00E38872
:10A45000758E2B44B58E2B44ADF82E30B6F92E50A8
:10A4600005EBD575A2EB6502521EADF84C2001221A
:10A4700002EB65052944ADF85010B6F92E1001EB3A
:10A48000D171A0EB6100401EADF84E00B6F92E0070
:10A4900000EBD07002EB60001844ADF8520096F863
:10A4A00036002990FD2801D9FF2029902A9813A968
:10A4B000826827A8F7F7BEF90028A5D021461DA875
:10A4C00005F005FD4FF0FF38414642461DA805F056
:10A4D00078FDB6F900901DA805F061FD04461DA8A1
:10A4E00005F02BFD84421DA803DA05F058FD02E0BB
:10A4F000FEE305F022FDB9EB600F01DD4FEA6009D4
:10A50000B6F900400AA805F04AFD05460AA805F07C
:10A5100014FD85420AA802DA05F041FD01E005F0CC
:10A520000CFDB4EB600F00DD4410B6F92E000519E8
:10A5300005FB05F040000DF0A5FD10900146B6F9B1
:10A540002E2023460AA817F0E1F913A808F0F6FD1B
:10A55000012720B9F078FF2801D3B07860B1002737
:10A5600001234A461DA920A809F054F8002120A87B
:10A5700008F004FC269001E0CDF8988013A805F0BF
:10A580000EFD0DF07FFD83461C2115A80DF0E6FEA3
:10A59000CDF854D0CDF860B0CDF868D0B08DADF81E
:10A5A0005C0096F836008DF86C00B0788DF86D0080
:10A5B000BDF85000BDF84C10ADF80400421A521C12
:10A5C00012B202EBD27201EB62010FFA81FABDF80E
:10A5D0005220BDF84E10401B521A521C12B202EB10
:10A5E000D27201EB6202401C14B200B26A1EADF8D6
:10A5F0000000ADF80210114409B20992ADF806103E
:10A600005246504500DC1046ADF80000A14200DB88
:10A6100021462A98ADF806106946826806A8F7F721
:10A6200009F9D0B34A461DA906A8F7F72BF9A0BB34
:10A63000BDF81C00BDF91810BDF91A20401A401CC5
:10A6400000B20890BDF94E301098D21A02FB0500F6
:10A65000BDF95020521B891A0844401E059047B18D
:10A660004A461DA906A8F7F77DF910B101200F9001
:10A6700000E00F970898002827DDBDF81800ADF816
:10A680000000BDF81C00ADF804000220CDF860B059
:10A690008DF86400BDF91A8013E016E0ADF8028071
:10A6A0000F98ADF8068070B30598189015A92A98F0
:10A6B00009F06CFA05982844059008F101000FFA9A
:10A6C00080F8BDF91E104145E8DABDF85000ADF83C
:10A6D0000400401B401C00B2ADF80000BDF8522041
:10A6E000ADF80620511B491C09B2ADF802105246C4
:10A6F000504500DC1046ADF80000601C119081420E
:10A7000016DD084615E0FFE72A46584605990DF084
:10A7100053FDBDF9181042465846089B08F0D0FC7E
:10A720008DF864000128C1D102208DF86400BDE7D6
:10A73000601CADF802002A986946826806A8F7F7FF
:10A7400079F8D0B34A461DA906A8F7F79BF8A0BB35
:10A75000BDF81C00BDF91810BDF90620401A401CB8
:10A7600000B20890BDF91E301098D21A02FB050005
:10A77000BDF95020521B891A0844401E059047B16C
:10A780004A461DA906A8F7F7EDF810B101200F9071
:10A7900000E00F970898002827DDBDF81800ADF8F5
:10A7A0000000BDF81C00ADF804000220CDF860B038
:10A7B0008DF86400BDF91E8013E016E0ADF802804C
:10A7C0000F98ADF80680B0B30598189015A92A988F
:10A7D00009F0DCF9059828440590A8F101000FFA6A
:10A7E00080F8BDF91A104145E8DDBDF84C00099923
:10A7F0002844ADF80000BDF85000401BADF804003F
:10A80000BDF84E00ADF80200084400B2ADF80600F5
:10A81000A04200DB2046ADF806002A98694682680F
:10A8200006A8F7F707F8B0B34A461DA906A8F7F738
:10A8300029F8A8B17BE0FFE72A46584605990DF0B4
:10A84000BBFCBDF9181042465846089B08F038FC7E
:10A850008DF864000128B9D102208DF86400B5E7B5
:10A86000BDF81C00BDF81810BDF90220401A401CAC
:10A8700000B20890BDF91A101098891A01FB050062
:10A8800005904FB14A461DA906A8F7F76BF818B115
:10A8900001200F9001E04AE00F970898002846DD5C
:10A8A0000F9860B100201890BDF81800ADF80000B6
:10A8B000BDF81C00ADF80400BDF91A0032E0CDF877
:10A8C00060B0F1E7ADF802800F98ADF8068058B19E
:10A8D0002998FF280598007803D096F83610484349
:10A8E000000A8DF86C0013E00598089A0178584624
:10A8F0000DF002FDBDF9181042465846089B08F0BD
:10A90000DFFB8DF86400012802D102208DF864007D
:10A9100015A92A9809F03AF905982844059008F1F4
:10A92000010000B2BDF91E1080464145CADA96F812
:10A9300036008DF86C00BDF84C002844ADF80000DE
:10A94000BDF85000BDF85210401BADF80400481B84
:10A95000401CADF8061000B21199ADF80200884213
:10A9600000DC601CADF802002A986946826806A8DF
:10A97000F6F760FF78B34A461DA906A8F6F782FFEE
:10A9800048BBBDF81C00BDF81810BDF91E20401AC8
:10A99000401C00B20890BDF906101098891A01FBFE
:10A9A00005000590089800284FDD3FB14A461DA9D3
:10A9B00006A8F6F7D7FF0020189001E0CDF860B0A8
:10A9C000BDF81800ADF80000BDF81C00ADF804009B
:10A9D000BDF91E0034E038E0ADF80280ADF8068025
:10A9E00087B14A461DA906A8F6F7BCFF2998FF289B
:10A9F0000598007803D096F836104843000A8DF881
:10AA00006C0013E00598089A017858460DF074FC24
:10AA1000BDF9181042465846089B08F051FB8DF8C6
:10AA20006400012802D102208DF8640015A92A983B
:10AA300009F0ACF8059828440590A8F1010000B28F
:10AA4000BDF91A1080464145C6DD96F836008DF8EE
:10AA50006C00BDF85000ADF80400411BBDF84E007D
:10AA6000491C0AB22844ADF8002000B2ADF802003B
:10AA7000BDF85210119B491B09B2ADF8061098425F
:10AA800000DB601CADF80200A14200DC2146ADF8FD
:10AA900006105046524500DC02462A98ADF80020C8
:10AAA0006946826806A8F6F7C5FEB8B34A464E4620
:10AAB0001DA906A8F6F7E6FE80BBBDF81C00BDF98F
:10AAC0001810099A401A401C00B20890109802FB16
:10AAD0000500BDF95020521B891A0844401E0590FC
:10AAE000EFB132461DA906A8F6F73CFF10B14FF0B2
:10AAF000010800E0B846059818900898002835DD50
:10AB0000BDF81800ADF80000BDF81C00ADF8040059
:10AB100002208DF86400BDF91A6023E026E0B846F3
:10AB20005846E9E7ADF80260ADF80660B8F1000FED
:10AB300012D15846089A05990DF03EFBBDF9181040
:10AB400032465846089B08F0BBFA8DF8640001288D
:10AB500002D102208DF8640015A92A9809F016F890
:10AB6000761C36B2BDF91E00B042DBDA0020109A26
:10AB700017E000BF02EB050EAEF10101002305EB6B
:10AB8000D57608E092F800C091F8008002F8018BB9
:10AB900001F801C95B1CB3EB660FF3DB401C724686
:10ABA00000B2A842E6DBBDF84C000999ADF8000000
:10ABB0000844BDF84E1000B2294409B2ADF80210A5
:10ABC000BDF85220119B521BADF8040012B2ADF833
:10ABD0000620994200DB611CADF80210A24200DCA5
:10ABE0002246AAF10101ADF806200C91884200DB53
:10ABF0000846ADF804002A986946826806A8F6F768
:10AC000019FEA8B34A464E461DA906A8F6F73AFE15
:10AC100070BBBDF81C00BDF91810099A401A401C01
:10AC200000B20890109802FB0500BDF90020891AB7
:10AC300008440590EFB132461DA906A8F6F792FE2A
:10AC400010B14FF0010800E0B84605981890089838
:10AC5000002835DDBDF81800ADF80000BDF81C0077
:10AC6000ADF8040002208DF86400BDF91A6023E0FD
:10AC700026E0B8465846E9E7ADF80260ADF8066050
:10AC8000B8F1000F12D15846089A05990DF094FAC0
:10AC9000BDF9181032465846089B08F011FA8DF895
:10ACA0006400012802D102208DF8640015A92A98B9
:10ACB00008F06CFF761C36B2BDF91E00B042DBDA3C
:10ACC000BDF84C000999ADF800000844BDF84E10DD
:10ACD000099AADF80210114400B20C9AADF80400C4
:10ACE00009B2ADF80610904201DBAAF1010000E0C4
:10ACF00056E1ADF80400A14200DB21462A98ADF8E8
:10AD000006106946826806A8F6F794FDC0B34A4665
:10AD10001DA906A8F6F7B6FD90BBBDF81C00BDF94D
:10AD20001810BDF91A20401A401C00B20890BDF955
:10AD300002301098D21A02FB0500BDF90020891AD2
:10AD400001EB000847B14A461DA906A8F6F70AFE1E
:10AD500010B101200F9000E00F970898CDF860B077
:10AD6000002822DDBDF81800ADF80000BDF81C0079
:10AD7000ADF8040002208DF86400BDF91A6010E0FF
:10AD800013E000BFADF802600F98ADF80660C8B3DD
:10AD9000CDF8608015A92A9808F0F8FE761CA84422
:10ADA00036B2BDF91E00B042ECDABDF84C00ADF889
:10ADB00000000999BDF85220084401B2501BADF8BB
:10ADC0000410401CADF8062000B2119AADF8020044
:10ADD000904200DC601CADF802000C98814201DB5F
:10ADE000AAF101012A98ADF804106946826806A804
:10ADF000F6F720FDC8B34A461DA906A8F6F742FD9E
:10AE0000A8B15AE0FFE72A46414658460DF0D4F96A
:10AE1000BDF9181032465846089B08F051F98DF8D4
:10AE200064000128B6D102208DF86400B2E7BDF8B5
:10AE30001C00BDF91810BDF90620401A401C0FFA7D
:10AE400080FABDF91E301098D21A02FB0500BDF938
:10AE50000020891A0E184FB14A461DA906A8F6F718
:10AE600081FD18B14FF0010801E026E0B846CDF8A9
:10AE700060B0BAF1000F20DDBDF81800ADF8000099
:10AE8000BDF81C00ADF8040002208DF86400BDF987
:10AE90001E400EE0ADF80240ADF80640B8F1000FDC
:10AEA0002FD0189615A92A9808F070FE641E2E441B
:10AEB00024B2BDF91A00A042ECDDBDF84C00694691
:10AEC0002844ADF80000BDF85000401BADF8040068
:10AED000BDF84E00CDF860B02844ADF80200BDF8D2
:10AEE0005200401BADF806002A98826806A8F6F7C3
:10AEF000A1FCE8B34A461DA906A8F6F7C3FCA0B119
:10AF000041E02A46314658460DF056F9BDF9181071
:10AF100053462246584608F0D3F88DF864000128BD
:10AF2000C0D102208DF86400BCE7BDF91C10BDF94A
:10AF300018000A1A521C15B2002D24DDADF80410B9
:10AF4000ADF80000BDF91A4019E000BFADF80240AD
:10AF5000ADF80640294658460DF02EFABDF91810F6
:10AF60002B462246584608F0ABF88DF8640000E006
:10AF700009E015A92A9808F009FE641C24B2BDF95D
:10AF80001E00A042E2DA2FB920A808F0BBF82698EC
:10AF900008F0ECFB10980DF0C1F858460DF0BEF823
:10AFA0002DB0BDE8F08F00002DE9F74FD8B05898CC
:10AFB00049909088B2F90030D4885188C01A401C5A
:10AFC000611A00B2491C09B200EBD070401001EBCD
:10AFD000D171B0EB610F00DB48102A901844ADF836
:10AFE0000C0051882A980844ADF80E0027A807F0F5
:10AFF000A5FE4FF4C02427AA2146589810F022F845
:10B000009DF8A50040F010008DF8A5000DA807F0F0
:10B010005DFE0DAA214658980FF0C7FF15A8599953
:10B020000EF010FBE84816900320179027A81B90FD
:10B030004998229424300690F7F79BF9BDE12694B5
:10B04000A08B2A99BDF80C20084406B2A088BDF850
:10B050000E30311AA08947F6FF75301A0FFA80FBBF
:10B06000501AADF82801581AADF82A015018ADF859
:10B070002C015818ADF82E0101232A464AA943A8ED
:10B0800008F0C8FABDF80C10BDF80E20A1EB0B00BB
:10B09000ADF83001A2EB0B00ADF83201ABF10100CD
:10B0A0000144ADF834111044ADF8360101232A46AD
:10B0B0004CA933A808F0AEFABDF80C100023881B89
:10B0C000ADF83801BDF80E20901BADF83A01701EA6
:10B0D0000144ADF83C111044ADF83E012A464EA99A
:10B0E0002DA808F097FA00212DA807F047FE4190FF
:10B0F000608908B1401E01E04FF6FF7080460027CE
:10B1000047E100BF618908F101084FF0000A41459D
:10B1100002D1D0464FF0010AA06900906288002158
:10B120003846521E63690CF061FF81462590BAF1E2
:10B13000000F04D0A0683A902B90E08903E02068CB
:10B140003A902B90E08800B25290029049983030AB
:10B150000890F7F70EF941E0287902283AD1A9685A
:10B16000494537DCEA684A4534DB2B8A02981844A3
:10B1700000B20290688AAB8A984203D1688AADF81F
:10B18000E80027E0A87D4FF00003C0074FF0FF0064
:10B190000090484601D1D4E905120CF027FFC0B257
:10B1A000AA8A698A001DC308ADF8281088B28749A9
:10B1B00092B240EA004042EA024208400A40121AB3
:10B1C0005A4300EB5210084040EA1040ADF800002E
:10B1D00080B23A9029460898F7F7C8F80500BBD125
:10B1E000E08B784301026088401E91FBF0F1081269
:10B1F0000B90CAB2401C00920A90218C0B98084414
:10B2000000B214F001F90546218C0A98084400B2F6
:10B2100014F0FAF8009AC2F580710791694300FBB7
:10B2200002100512218C0B98084400B214F0E7F8C4
:10B230000890218C0A98084400B214F0E0F8DDE987
:10B2400007125143009A00FB02100112BDF8E800FA
:10B250000791ADF89C000298ADF89E003044414340
:10B26000BDF80C207F3102EBE131ADF8B01068433E
:10B27000BDF80E107F3001EBE030ADF8B20003A84E
:10B280001E902CA81F900DA823971A90BAF1000FBA
:10B290005BD0419808F06AFAB4F910100798ABEB4C
:10B2A00001014843BDF80C207F3002EBE0324D43F2
:10B2B000BDF80E007F35429200EBE53A20220DA941
:10B2C00039A80CF079FF39A81A904B4640A21021FA
:10B2D00054A812F08BF954A8209015AA1A21589856
:10B2E00009F0D2FEBDF94600002541F6FF718DE858
:10B2F0002300BDF9483053A80D9A209914F048F95D
:10B30000BDF94C01429A00EBD071A2EB6102BDF98C
:10B310004E11104401EBD17CAAEB6C03ADF82C006C
:10B32000ADF828205818ADF82A30ADF82E00009559
:10B330000AAA209B1A99599807F028FA00212DA8EB
:10B3400007F01CFD419033A808E000201A902090DF
:10B3500015AA1A21589809F097FE43A8002107F072
:10B360000DFD054603AB2CAA27A9599807F0D9FC77
:10B37000284608F0FBF915AA1621589809F084FE12
:10B38000BDF8AC00ADF89C0052987F1CADF89E0053
:10B39000BFB26088B8423FF6B5AE43A807F0B2FE30
:10B3A00033A807F0AFFE2DA807F0ACFE419808F0D7
:10B3B000DDF921460698F6F7D9FF04007FF43FAE89
:10B3C0005BB0BDE8F08F0000504D02081FF8E007A9
:10B3D000256400002DE9F74FB4B0904605461146AC
:10B3E00002F056FA04468068C0F30E01012976D9AE
:10B3F000000404D4208810B9608800286FD0002190
:10B4000028460FF013FA0646002128460FF012F9DD
:10B41000064428460EF04EFBB5F88410484340F32E
:10B420000F2723A807F052FC4FF4C02A23AA514645
:10B4300028460FF0BAFD28460EF056FCA98A314482
:10B44000081A0FFA80F92089B8F1020F4FEA00407C
:10B4500006D0002844DA514628460FF08FFA40E023
:10B46000002804DA514628460FF07AF900E000205F
:10B4700083463598B5F91A608068B0F90610B14274
:10B480002DDB2399B4F90020B0F90200B1F90810BE
:10B490000A4406EB0B011144814220DB1DA807F092
:10B4A0004DFC1DAA514628460FF0CCFD0020ADF8FA
:10B4B0007A00ADF8780003A835990EF0C3F88F48EC
:10B4C0000490062005900220CDE910A023A8089042
:10B4D0001DA80990B8F1020F07D0012006E00AE18B
:10B4E00000208346B5F91660D8E70020219095F832
:10B4F000880000F00700022816D1002128460FF02E
:10B5000071F9B5F8841048430012B5F882103A1862
:10B5100092FBF1F109B2081A00EBD07209EB62015B
:10B52000381A0FFA81F907B2ADF85A6020896168BC
:10B53000C0F30E00401EC1F30E4100FB01F80026CF
:10B54000D6E000BF60684FF0000AC0F30E40B6FBC3
:10B55000F0F100FB116008B94FF0010ABDF9760067
:10B56000381A7043B0FBF8F101EB0900ADF8580050
:10B57000ADF85400BDF95A10219848B1BAF1000F46
:10B5800002D0B4F9000001E0B4F90200081A08E0A2
:10B59000BAF1000F02D0B4F9000001E0B4F90200E2
:10B5A0000844ADF8560016A80C9015A80D9095F813
:10B5B000880000F00700032848D06068C0F30E4000
:10B5C000B6FBF0F31393BAF1000F68D020890004A2
:10B5D00065D54BA2102130A812F008F823A80890D6
:10B5E00030A80E9010200F9003AA1A21284609F0C7
:10B5F0004BFDBDF99E004FF0000A41F6FF728DE849
:10B600000504BDF9A0301CA8239A0E9913F0C0FFC1
:10B61000BDF97010BDF8540001EBD171A0EB6102CF
:10B6200000EB610000B2ADF8680012B2BDF8563010
:10B630002199ADF86420C1B1A3EB0B01BDF87230C4
:10B64000ADF86A10C91AADF8661017E021984246A5
:10B6500005EB4001B1F978000090B1F97430002198
:10B6600030460CF0C3FC0346ACE703EB0B01BDF81E
:10B670007230ADF866101944ADF86A10B5F91410BF
:10B68000884215DBB5F91800824211DCCDF800A024
:10B6900019AA23A90E9B359807F078F808E0002036
:10B6A00008900E900F9003AA1A21284609F0ECFC8E
:10B6B000BDF97600BDF9581000EBD07001EB6002C7
:10B6C000B5F914108A420DDBBDF95410A1EB6001ED
:10B6D000B5F91800814205DC15AB16AA1DA93598ED
:10B6E00007F01FFB03AA1B21284609F0CDFC761C9E
:10B6F00046457FF627AF37B0BDE8F08F18480208FF
:10B70000256400002DE9F74FB8B090460446114675
:10B7100002F0BEF805468068C0F30E01012973D916
:10B72000000404D4288810B9688800286CD05FEA27
:10B73000080000D001202990002120460EF07AFF59
:10B740000746002120460FF019F9064620460EF064
:10B7500097F9B4F88610484340F30F202B90204609
:10B760000EF08EFB0146E28AF0191044401A00B236
:10B770004FF4C0263290B8F1000F314620460DD06C
:10B780000FF0A2F82690B4F91800B5F900A0B5F9A9
:10B7900002908346B8F1010F06D00DE00FF046F895
:10B7A0002690B4F91400F0E7CAF100000FFA80FA0D
:10B7B000C9F100000FFA80F921A807F0BFFA21AA09
:10B7C000314620460FF03EFC18A807F07FFA18AA71
:10B7D000314620460FF0E9FB03A839990DF032FFFE
:10B7E000764804900620059021A80990CDE91068BC
:10B7F00018A808902889C0F30E0768687F1EC0F358
:10B800000E4047430026D3E0D5E000BFBDF98610C7
:10B810002B98401A7043B0FBF7F13298B8F1000F43
:10B820000844ADF85600ADF85E005846ADF854B087
:10B8300069D0401CADF85400002002906868C0F345
:10B840000E40B6FBF0F100FB1160002874D0BDF88B
:10B850005410A1EB090000BFADF85C0015A80C90D6
:10B8600017A80D9029983A4604EB4000B0F97010E3
:10B870000091B0F96C30B81B00210CF0B7FB034607
:10B8800013900298F0B32889000468D54CA21021C7
:10B8900033A811F0ABFE18A8089033A80E90102022
:10B8A0000F9003AA1A21204609F0EEFBBDF97200A1
:10B8B000002241F6FF718DE80700BDF974302CA815
:10B8C000189A0E9913F064FEBDF9B200BDF85E102F
:10B8D00000EBD070A1EB600212B201EB6000ADF89A
:10B8E000922001B22998ADF896100028BDF85C00AE
:10B8F00029D0269B0344ADF89030BDF8B030034406
:10B90000269801E02BE015E000EB0300ADF8940071
:10B91000B4F9160081422BDBB4F91A00824227DC0D
:10B920000020009024AA18A90E9B399806F02EFF3B
:10B930001EE001E0401E7DE70120BDF8541002909A
:10B94000A1EB0A0088E7BDF8B030A0EB030C269B02
:10B95000ACEB0303ADF89030269BC01AD6E700206D
:10B9600008900E900F9003AA1A21204609F08CFB34
:10B97000BDF98600BDF9561000EBD070B4F9162061
:10B9800001EB600191420DDBBDF95E10A1EB60019E
:10B99000B4F91A00814205DC17AB15AA21A9399820
:10B9A00007F0BFF903AA1B21204609F06DFB761CA6
:10B9B000BE427FF62BAF3BB0BDE8F08F18480208BF
:10B9C000256400002DE9FF5F0C4693468046202148
:10B9D000DDF838A00FF00BFA002878D0BAF1030F89
:10B9E00040461DD00EF045FA81460AF0E9FE0027D8
:10B9F00005463E46BAF1030F3946404613D00EF0D5
:10BA0000ABFF8246002140460EF098FE4946B9F150
:10BA1000010F5DD0022963D0B9F1030F66D13BE07D
:10BA20000EF020FAE0E70EF0EFFE824600214046DD
:10BA30000EF038FF4946B9F1010F1ED0022924D07B
:10BA4000B9F1030F52D1B8F81820B8F81410521AEF
:10BA5000521C13B2A3EB0A02101A00EBD0720AEBCD
:10BA60006200084407B2298BA88A091A491C09B246
:10BA700001EBD17100EB610027E0B8F81410B5F9C3
:10BA8000146001EB0A0007B230E0B8F81810B5F9FD
:10BA90001860081A07B229E0B8F81A20B8F816108A
:10BAA000521A521C13B2A3EB0A02101A00EBD07206
:10BAB0000AEB6200084407B2688BE98A401A401C0E
:10BAC00000B200EBD07001EB600006B20EE02FE098
:10BAD000B8F81610B5F9166001EB0A0007B205E0D8
:10BAE000B8F81A10B5F91A60081A07B2A01E03991F
:10BAF00000B2002910DAB9F1000F15D0BE4221DCE6
:10BB000012E0002C01DDA41C24B2E01704EB9070BD
:10BB1000801004B0BDE8F09FBBF1000F12DAB9F15C
:10BB2000000F01D0BE420DDB002CEADA0446E8E744
:10BB30000398E04202D50398404204B2BBEB0400F4
:10BB400000D55C462046E4E770B504460AF028FEBE
:10BB500048B1006882680AB1217A9047207E810747
:10BB600042D4C0077BD1002160680DF0E1FF0025C1
:10BB700018E0017ACA0910D0802904D0227A21F075
:10BB80008001914209D14168E160016820468847FF
:10BB9000207E810728D4C00761D16D1C29466068CA
:10BBA0000DF0C6FF18B101680029F6D0E1E7214683
:10BBB00000200DF0EBFE050053D0002160680DF071
:10BBC000B7FF002619E0016891B1017A0A060FD487
:10BBD00011B1227A91420BD14168E160016820469F
:10BBE0008847207E810701D5012070BDC00736D16E
:10BBF000761C314660680DF09BFF10B1012DE2D03C
:10BC00002FE0012D2DD16068416851B3217E490795
:10BC100027D4217A232919D0242917D0A9030FF07A
:10BC2000E6F8F0B1207A11381C280FD2DFE800F0D6
:10BC300019191919191919191919190E0E190E0EA0
:10BC4000191919190E0E0E0E19190E19606840688F
:10BC500060602046FFF778FF0546012801D00020EC
:10BC600070BD284670BD0000F0B5DDE9054531B373
:10BC7000060AB70702D51F462B463D46770702D571
:10BC800027462C463D4616F0060F4FEAC6771AD0D7
:10BC900017B11F4623463C46C0B22270CC43E7B2E0
:10BCA00002FB07F4240A2C70F4070FD0414300BFB5
:10BCB0006FEA1120C0B24243100A1870F0BD2A701A
:10BCC00022701A70F0BD002FE3D0E5E720B14042AA
:10BCD000C0B248430146EBE70802FBE72DE9FF4FFE
:10BCE0008A880B8889B0D21A521C17B2CA88498830
:10BCF0000446511ADDE916B8491C19980FFA81F962
:10BD0000012813D0022813D0032843D1434E00BF8B
:10BD10005FEA08000ED0002006902088ADF81400DD
:10BD200098F80000FD2838D35A4639E03C4EEFE73A
:10BD30003C4EEDE72088ADF80000ADF808005A460B
:10BD400000990C98B0470590002020E0002517E0EE
:10BD5000BDF8080034F8151088420BD004EB4500FC
:10BD60005A460088ADF81400ADF8080005990C9803
:10BD7000B047059004EB4500BDF8141001806D1C20
:10BD8000BD42E5DB0B9804EB400408F1010080465E
:10BD90004845DBDB0DB0BDE8F08F00FB0BF0020A7D
:10BDA00005990C98B0470890002033E0002528E062
:10BDB00018F8050020B30699884205D1BDF8141083
:10BDC00034F81520914216D0FD2801D35A4602E0DE
:10BDD00000FB0BF0020A04EB45000088ADF81800E8
:10BDE00006990C98B047089018F80500069034F8AA
:10BDF0001500ADF8140004EB4500BDF820100180DB
:10BE00006D1CBD42D4DB0B98189904EB40048844A8
:10BE10000AF1010082464845C8DBBBE7BF4A00087B
:10BE20004B4A00081F4B00082DE9FF4F0446888845
:10BE30000A8883B0801A401C05B2C8884988DDE9A9
:10BE400010A6401A401C0FFA80F976B1BDF8180010
:10BE5000BAF1FD0F00EB004000907CD3A5F104087F
:10BE60004FF0000BBDF818A033E1BAF1FD0F0FD36E
:10BE7000002608E02A462046069905F085FC05982C
:10BE8000761C04EB40044E45F4DB07B0BDE8F08FB0
:10BE9000BDF80010002060F3040189B260F34A117C
:10BEA00089B260F3CF21ADF8001088B20090BDF8E0
:10BEB0000000009001465246069805F083FD01906F
:10BEC0000AF104000699C008C00689B2000ECA0A29
:10BED000424362F30F06C1F34512424301F01F01D2
:10BEE000414361F30F0762F31F46BA46C0F1FF01F9
:10BEF00000224CE0002044E0BDF8007034F810301F
:10BF00009F4238D004EB4003B7B21B88ADF8003035
:10BF1000ADF808309BB24FEAD32C0CFB017707EB4E
:10BF2000C71C0CEBC737BDF80480C7F3C45767F3D1
:10BF3000CF28C3F3451C370C0CFB017707EBC71C5C
:10BF40000CEBC737C7F3C55767F34A181FFA8AF7D0
:10BF500003F01F0300E0C3E003FB017303EBC3170F
:10BF600007EBC333C3F3C45363F30408ADF8048091
:10BF70001FFA88F3019304EB4003BDF804701F809F
:10BF8000401CA842B8DB0598521C04EB40044A450B
:10BF9000B0DB7AE7002710E03278FF2A12D0208841
:10BFA000ADF804000199069805F00CFD0190BDF86C
:10BFB00004002080A41C761C7F1CAF425EDAB00710
:10BFC000EAD15BE0A4F800A0F4E73068411C44D05B
:10BFD000F0B33278FF2A54D02088ADF804000199DC
:10BFE000069805F0EFFC0190BDF80400A4F80000ED
:10BFF00016F8012FA41CFF2A46D02088ADF80400B3
:10C000000199069805F0DEFC0190BDF8040020803F
:10C0100016F8012FA41CFF2A39D02088ADF804009F
:10C020000199069805F0CEFC0190BDF8040020802F
:10C0300016F8012FA41CFF2A2CD02088ADF804008C
:10C040000199069805F0BEFC0190BDF8040000E0DF
:10C0500011E02080A41C761C0FE0A00707D0A4F8F4
:10C0600000A0022000990151A4F806A003E0009866
:10C070002060009860600834361D3F1D4745A4DDF0
:10C080001CE0A4F800A0B3E7A4F800A0C0E7A4F85F
:10C0900000A0CDE7A4F800A0DCE73278FF2A1CD08E
:10C0A0002088ADF804000199069805F08BFC0190FA
:10C0B000BDF804002080A41C761C7F1CAF42ECDB82
:10C0C00005980BF1010B401B04EB40041298401B38
:10C0D0000644CB45FFF65EAFD7E6A4F800A0EAE73A
:10C0E00000222188ADF800109346104633E0002767
:10C0F00027E0307818B3904205D0FF282FD000FBFE
:10C100000AF31B0A9B46904203D134F81700814280
:10C1100010D0BBF1FF0F24D004EB47005A46008833
:10C12000ADF800000099069805F04CFC00903278BC
:10C1300034F8171004EB4700BDF800300380761C7C
:10C140007F1CAF42D5DB059804EB40041298401BDE
:10C15000064408F1010080464845C8DB95E6534691
:10C16000D0E70698E2E700002DE9FF4F83B00C46C8
:10C17000DDF84480F6F754FBBDF818A08146B8F10D
:10C18000000F0CD0A0882188401A401C07B2E0881C
:10C190006188401A401C0FFA80FB002641E0B4F988
:10C1A000026017E0B4F900500FFA86F80DE010981D
:10C1B0000290ADF804A0CDF80080D9F800002BB2B1
:10C1C000059AC7690399B8476D1CB4F90400A842E1
:10C1D000EDDA761CB4F90600B042E3DA07B0BDE848
:10C1E000F08F002518E000BF18F8050098B11099ED
:10C1F000ADF804A04843000A0290608803993044D7
:10C2000000B200902088059A284403B2D9F80000B3
:10C21000D0F81CC0E0476D1CBD42E5DB1298761CCF
:10C2200080445E45DDDBD9E700680968884201D1BA
:10C23000012070470020704740680A6820F04040A5
:10C24000904200D20860002070472DE9F04F00278F
:10C2500087B00446BA460AF0A3FA00680025B4F98C
:10C26000141090F81890266AA846002900DC49426C
:10C27000B4F91600002800DC4042814201DD0125AE
:10C28000ADE04FF00108AAE0102130460EF0AFFDFE
:10C2900000287ED0CDE90058AB46CDF80880304666
:10C2A0000DF0FAFCC10700D18B46810701D40021B3
:10C2B0000091410701D400210291000701D4002020
:10C2C000019030460DF0DCFD059030460DF092FCFB
:10C2D000049030460DF008FD039030460DF064FDEB
:10C2E0000599002902DC0499002910DD029919B191
:10C2F000B4F916204A4507DA019941B1B4F916207C
:10C30000C9F100018A4202DC37464FF00C0A03995A
:10C31000002901DC002811DDBBF1000F03D0B4F9C6
:10C3200014204A4507DA009941B1B4F91420C9F143
:10C3300000018A4202DC37464FF0030A05990029C2
:10C3400001DC002102910499002901DC0021019106
:10C350000399002901DC4FF0000B002801DC0020CC
:10C360000090BBF1000F03D0B4F91410494517DA5F
:10C37000009828B1B4F91410C9F1000081420FDD12
:10C38000029818B1B4F91610494509DA019800B1BC
:10C3900000E010E0B4F91610C9F1000081420ADC97
:10C3A0000DB1032000E00C2094F83C1060F3030171
:10C3B00084F83C1016E04FF4807130460EF017FD03
:10C3C00035EA00000ED14FF4007130460EF00FFD3B
:10C3D00038EA000006D130460DF000FC0646002E7B
:10C3E0007FF452AF4FB194F83C1000206AF3030180
:10C3F00084F83C10A762A082E08207B03846BDE80E
:10C40000F08F00002DE9FF4F83B08B4682460DF080
:10C4100029FD060012D041F6FF784446002150461F
:10C420000EF0F2F90090002150460EF03BFA019018
:10C4300050460DF0D3FA074600255FE0002007B014
:10C44000BDE8F08FDAF808003149006850F825009F
:10C4500081460EF0D3FCE8BB4FF4805148460EF005
:10C46000C6FCB8B3012E04D0022E08D0032E44D14E
:10C470001AE0B9F91400BAF81420009932E0BAF8B9
:10C4800018200199B9F91800511A069A09B21044F6
:10C4900000B2584531DB059A90422EDC401A00B2BA
:10C4A000002821DD014620E0B9F81820B9F8141061
:10C4B000BAF81830501A401C00B200EBD070BAF82D
:10C4C000142001EB6000991A491C0BB2009900B2CC
:10C4D0005B1A00E011E00199591A01EBD173009940
:10C4E00001EB63011144D0E74142002C01DD2246FB
:10C4F00000E06242914200DA04466D1CBD42A1D3C5
:10C50000444501D1002000E0604200B297E70000FE
:10C51000010004002DE9FF4F83B08B4682460DF0E9
:10C52000A8FC060012D041F6FF7844460021504690
:10C530000EF012FA0090002150460EF0FFF8019024
:10C5400050460DF04BFA074600255FE0002007B08B
:10C55000BDE8F08FDAF808003149006850F825008E
:10C5600081460EF04BFCE8BB4FF4805148460EF07C
:10C570003EFCB8B3012E04D0022E08D0032E44D1C5
:10C580001AE0B9F91600BAF81620009932E0BAF8A4
:10C590001A200199B9F91A00511A069A09B21044E1
:10C5A00000B2584531DB059A90422EDC401A00B2A9
:10C5B000002821DD014620E0B9F81A20B9F816104C
:10C5C000BAF81A30501A401C00B200EBD070BAF81A
:10C5D000162001EB6000991A491C0BB2009900B2B9
:10C5E0005B1A00E011E00199591A01EBD17300992F
:10C5F00001EB63011144D0E74142002C01DD2246EA
:10C6000000E06242914200DA04466D1CBD42A1D3B3
:10C61000444501D1002000E0604200B297E70000ED
:10C62000010004002DE9FF4F83B00E46DDE910B490
:10C630001746002103980EF0BAFA05460021039828
:10C640000EF028F80146F07882070BD5C30742F2B6
:10C65000D17202D0954202D006E0914206D120F07C
:10C660000200F070C00701D07B4800E07B488146A3
:10C67000F078C00712D079484FF0000AA4F802A061
:10C68000A4F804A0C4F810A0A4F800A0C4F808A05E
:10C69000C4F80CA0804639460197A9E06E48EBE744
:10C6A0000198B84206D04FF4000128460EF09FFBD7
:10C6B00000286FD16A4928460EF0A0FB00286AD1F5
:10C6C000002128460DF0D6FF029070B32069401C6F
:10C6D0002061A28802EB0B01A180217DC9076DD0EA
:10C6E00000EB800080000BF0CDFC0090E0B1E16831
:10C6F00051B12069401E00EB8000820000980BF0D1
:10C700005BFDE0680BF00AFD206900EB80010098FA
:10C7100000EB81004FF0000140F8145CF078C00796
:10C72000284603D0022202E0FEE735E005220EF0A3
:10C7300067F9216900B201EB8102009901EB8201E6
:10C7400021F8100CF0784FF00001C007284601D006
:10C75000032200E006220EF053F9216900B201EB3A
:10C760008102009901EB820121F80E0C20690299E7
:10C7700000EB8002009800EB820040F8081C206962
:10C7800000EB8002009800EB820040F804AC0098B7
:10C79000E06013E032E020E0284649468847014641
:10C7A000F078800705D5B4F9040042180698824253
:10C7B00024DCA28801EB0B001044A08028464146EF
:10C7C00088470146B4F90000814202DD284641460F
:10C7D00088472080A068401CA060F078400702D500
:10C7E0004FF0FF3000E0012001994118019105D47C
:10C7F00003980DF0E1F8051E7FF452AFB4F9040080
:10C80000002802DDA0EB0B00A080206908B106988B
:10C8100001E0B4F904006080CDB10198B84216D1AE
:10C82000039901AA8968096851F82050F078C0F38B
:10C830008001039800F002FE4DB12846414688472A
:10C84000208028464946884760800120A0600198E2
:10C8500007B0BDE8F08F00005DAD01085B9B0108EB
:10C86000010006002DE9F04FB14D93B004460021C0
:10C870006A880EF0C5F89DF81710421C62F300019B
:10C88000820862F34101C00860F382018DF817103D
:10C8900020460021AA880EF0B3F88DF81400204637
:10C8A0000021EA880EF0ACF88DF815002046002132
:10C8B0002A890EF0A5F88DF81600002120460DF00B
:10C8C0006EFE012800D0002081469DF817004FF031
:10C8D0000001C00720460CD00EF02CF882469DF8CF
:10C8E00017004FF00001C007204605D00DF06EFF85
:10C8F00004E00DF06BFFF1E70EF01CF807909DF8D7
:10C900001700C007204602D00DF0D4F801E00DF06A
:10C91000B7F806902046002132220EF071F8054645
:10C920002046002110220EF06BF8E18A28444618B8
:10C9300020460DF0B3FA301AADF820002046002151
:10C9400012220EF05DF8A18A2844451820460DF009
:10C950009EFA281AADF840009DF817009DF8166061
:10C96000C00701D008AD00E010AD002120460EF058
:10C970001EF91190002120460DF08CFE83469DF893
:10C980001700C10708D0ABF51C52D13A02D1618C17
:10C99000890509D5C10708D1119AA2F51C51D139D1
:10C9A00003D1618C490500D40026B9F1000F08D0ED
:10C9B000C00706D116B1012E02D002E0012600E028
:10C9C00000260027ADF83C70B8468EB39DF81700DE
:10C9D000400703D5A0684268521E15E0002213E00C
:10C9E00000200E9009A90798CDE9000105A920466D
:10C9F000069BFFF717FE0246BDF8241007EB0A005E
:10CA0000084407B208F10108A0684068904201DDBF
:10CA1000002AE5DAB8F1000F02D0A7EB0A0007B24E
:10CA20009DF81700C007204603D00DF029F802E05A
:10CA30000BE00DF03FF80FA9CDE9005101460FFAC8
:10CA400088F33A46304613F027FC9DF8170041075B
:10CA500003D5A1684E68761E00E00026B9F1000FEC
:10CA600004D0C00702D128883844288009AFA068C4
:10CA70004068B04249DD002E47DB01200E90079848
:10CA8000CDE90007324605A92046069BFFF7CAFDFF
:10CA90008046B9F1000F08D09DF81700C00704D1F7
:10CAA0002888BDF82410401A2880DDE90601BDF968
:10CAB000202002AB019283E88300BDF94000009082
:10CAC0004346324605A92046F7F760FC46460C98D7
:10CAD0000BF024FB00200C90B9F1000F03D09DF85F
:10CAE0001700C0070AD02888BDF82410BDF83C20E4
:10CAF000014402EB0A0008442880B8E7BDF83C2056
:10CB0000298802EB0A00081AF6E7119942F2D1705F
:10CB1000814201D0834502D120460EF079FF0022E8
:10CB20002B21204608F0B0FA13B0BDE8F08F0000CA
:10CB30005C0000202DE9F74F0546007F93464FF03B
:10CB4000000AC00760D14FF00108EC680026C1461A
:10CB50007CB9287FC0F3C000401E304254D1B9F1E7
:10CB6000000F51D00199284688474FF0000804462D
:10CB7000C1460EB9261E47D0B8F1000F06D0214697
:10CB800028465A4690470446B0423DD04FF001082F
:10CB9000002CDED020680DF0D1FC0006D8D4276828
:10CBA0001FE0012138460EF022F9B0B12FB101216A
:10CBB00038460EF01CF90028CAD1E868A04223D0FC
:10CBC000B0B1284600F064FA0246E8680F21006818
:10CBD00008F05AFA012817D106E038460CF0FEFF9B
:10CBE0000746002FDDD1E8E7E86800680EF0CDFBCE
:10CBF0002846EC6000F04CFA0246E8680E21006816
:10CC000008F042FA012802D05046BDE8FE8FE868DD
:10CC100000680EF0BAFB296909B12846884701204F
:10CC2000F3E7828E818C12F0060F06D0C2F3410228
:10CC3000022A04D0012A07D004E0008D00E0C08C55
:10CC4000084481B208B27047B0F93020B0F93230F0
:10CC50001A4402EBD272B0F92E3052109342EEDB3E
:10CC6000EBE700002DE9F34F8FB0054669460CF065
:10CC70003BFF28460EF072F80B9028460CF06DFF33
:10CC80000A90002128460DF0E9FD07900021284672
:10CC90000DF032FE0746002128460DF087FE0446BF
:10CCA000002128460DF074FD8346002128460DF032
:10CCB0004DFE0646002128460DF09AFD06F00101C2
:10CCC00006EBD67201EB620100F0010200EBD070BE
:10CCD00002EB6000491C401C09B200B20D2900DBC8
:10CCE0000D218A460D2800DB0D2081460D2F00DB2B
:10CCF0000D27B8460D2C00DB0D2426465846BBF107
:10CD00000D0F01DA074600E00D2700246BE0A86A4A
:10CD100000EBC40108A803F0ECF8BDF92000079966
:10CD2000884213DCBDF900200D2900DB0D21511ACA
:10CD300000EB0100ADF82000BDF92200B04233DC69
:10CD4000BDF902100D2E07DA324606E0BDF80020CC
:10CD5000A2EB09010844EDE70D22891A00EB01005E
:10CD60000B99ADF82200BDF92400A1EB0801891E42
:10CD7000424688421EDBBDF90010B8F10D0F014498
:10CD8000104600DB0D2008440A99ADF82400BDF9D7
:10CD90002600C91B891E88421DDBBDF902100D2F1C
:10CDA00008440DDA39460CE0BDF80220A2EB0A0176
:10CDB0000844D5E7BDF80010014401EB0900E3E7A2
:10CDC0000D210844ADF82600002208A81099F4F7B8
:10CDD00019FE58B905E0BDF80210014401EB0A0044
:10CDE000F0E7641CA4B2288EA04290D8288EA042FE
:10CDF00001D14FF6FF7411B02046BDE8F08F10F05E
:10CE0000070000D101207047B0F90C00032101EBAD
:10CE1000400020F00300103070472DE9F05F894694
:10CE20009346824600210DF00DFD05460021504637
:10CE30000DF056FD8046002150460DF0ABFD044636
:10CE4000002150460DF098FC064650460DF086FF36
:10CE5000411BA1EB080750460CF07FFE001B801B16
:10CE60008742504605DA0DF079FF411BA1EB08001F
:10CE700003E00CF072FE001B801B00EBD07040F34F
:10CE80004F00BAF8141042191144A9F80010BAF86A
:10CE9000161002191144A9F80210BBF1000F01D0BD
:10CEA000ABF80000BDE8F09F024A002152880DF067
:10CEB000A7BD000068000020034A10B50021528978
:10CEC0000DF09EFDC0B210BD68000020034A10B5F1
:10CED000002192890DF094FDC0B210BD68000020C1
:10CEE000032901D2012300E00023C01A03EB43030E
:10CEF00001EB8301891EC1EB41110C23B1FBF3F15E
:10CF000011446422B0FBF2F2014401EB9001891A52
:10CF10004FF4C872B0FBF2F008440721B0FBF1F205
:10CF200001FB1200C0B270472DE9FC470F0023D06F
:10CF30000569686928B10168B94202D14068BDE855
:10CF4000FC87698A00224FF0040CC1F308040CE04E
:10CF5000AE6802EB820356F823100CEB8303F35AFE
:10CF6000791A8B420AD2521C92B29442F0D818B16C
:10CF700007606969002048600020E0E702EB820456
:10CF80001222A86802EB84020026825C4FF0060998
:10CF9000022A0CD04FF00C0A6AB1DFF8A8C00823AF
:10CFA0004FF01008032A0FD0012A26D043E009EBE6
:10CFB0008402805A06E00AEB840209EB840382585B
:10CFC000C05A515C461836E0ADF8041008EB8401F5
:10CFD000CDF800C003EB8408425A50F80810022331
:10CFE00001A8F5F771FD30B3A96851F80820801A3F
:10CFF00009EB84024010895A1CE0ADF8041008EBDC
:10D000008401CDF800C003EB8408425A50F80810A0
:10D01000022301A8F5F758FD68B1A96809EB84035C
:10D0200051F80820801A0AEB840240108A58C95A25
:10D0300032F810000E18686910B107606869466020
:10D0400030467CE70B4302082DE9F0410D460446CB
:10D0500000F01DF9071E19D0F88A00212D1A384654
:10D060000DF042FD0689002138460DF064FD00EB0D
:10D07000D07105EB6101304409B200B291FBF0F0D0
:10D08000A18E80B2814201D8491E88B2BDE8F081EC
:10D090002DE9F041002607463546304610E000BF36
:10D0A00009F0BFFB216DB94209D1022802D0042842
:10D0B00003D003E02046BDE8F08126462546204601
:10D0C00009F074FB0400EBD10EB13046F3E70DB16B
:10D0D0002846F0E7BDE8F041002009F067BB0000FA
:10D0E0007CB50369006900255B8AC4689E04A36857
:10D0F0002BD4980F17D00120B0EB937F31D101EBE7
:10D1000002402668019018480090A068042320F08F
:10D110004042314601A8F5F7D7FC10B3801B8010C0
:10D1200061680D561DE001EB02202668ADF8040091
:10D130000E4823F0404200900223314601A8F5F743
:10D14000C3FC70B1801B4010EAE76068405C995CEA
:10D1500038B131B1637B2268401E00FB0320491EB9
:10D16000455628467CBD000053EF000867EF0008D5
:10D170002DE9F84F0C460646002120460DF0F7F940
:10D1800000EBD07045084FF44037394620460DF08B
:10D1900053FB8246394620460DF09CFB00903946F1
:10D1A00020460DF0F1FB8346394620460DF0DEFAAD
:10D1B0000146A08A228D0244531BA3EB0A0060F3B0
:10D1C0000F08E08A638D034400985C1B201A60F30B
:10D1D0001F4805EB0B00104460F30F096818184452
:10D1E00060F31F49C6F80080C6F80490BDE8F88FC8
:10D1F0002DE9FF4F81B00E461D4617464FF4003112
:10D2000001980DF0BAF900EBD0704410381B07B24A
:10D210000198FFF706FD81465A3000B212F0F4F88B
:10D2200078434FEAE038484612F0EEF87843C713E7
:10D230004FF44039494601980DF004FB83464946B6
:10D2400001980DF04DFB0090494601980DF0A2FBAE
:10D250008246494601980DF08FFA328820444244B4
:10D26000A2EB0B01091B298032880099424421441A
:10D270001144A9807188CA19A2EB0A01091B6980AF
:10D28000718839440844E88005B0BDE8F08F406AF1
:10D29000002802D000210CF08FBB704700210CF059
:10D2A0008BBB00002DE9F04105460F46698C00203C
:10D2B0000426C1F3C503EA680FE000BF06EBC00413
:10D2C00014595FEAC41C07D524F07F44BC4203D143
:10D2D00052F83000BDE8F081401C8342EED84FF098
:10D2E000806000EB71204FEAF0506884C0F3C50005
:10D2F000C10010460AF048FFE860C0B3688CC0F374
:10D30000C504641E16D06FF003025300E86802EBF8
:10D31000C40141585FEAC11C0CD489010AD403EB53
:10D32000C40C00EBC4018444641EDCE9000CC1E9B8
:10D33000000CEBD1E868082100EBC4000BF00EF8FC
:10D3400008200AF071FEE96841F8340010F08FFB04
:10D35000EA6806EBC400115841F080711150EA6888
:10D3600067F317011150E86850F83400B2E7FFE79F
:10D37000FEE700002DE9FC410068C068C068B0FB12
:10D38000F1F4944200DD1446154F78680068806916
:10D3900020B30020ADF80000ADF80400ADF80200A5
:10D3A00025B2681E06B2ADF8066078686946006866
:10D3B00082699047BDF80600BDF80210401A401C73
:10D3C00000B2A04202DD351EEBDC01E0002D02DCE4
:10D3D0000020BDE8FC81BDF90640641C2046F8E74A
:10D3E00040000020491E01D5401E0C310C2901DBF4
:10D3F000401C0C3901290DD0072091FBF0F200FBF5
:10D40000121000EBD07121F00101401AC0F11F0091
:10D41000C0B2704781070CD16421B0FBF1F201FB6F
:10D42000120149B94FF4C871B0FBF1F201FB1200CF
:10D4300010B100201C30EBE70120FBE7136821B19D
:10D440005B1E13600BD4806805E05B1C1360806872
:10D4500041688B4203DA006850F8230070470020CF
:10D4600070472DE9F84315460E46044609F098F931
:10D4700009F0D7F901280AD0032808D04FF6FF7029
:10D4800005B1288006B130800020BDE8F88309F09E
:10D4900087F9694609F09AF94FF0000875B32046FC
:10D4A0000CF0F5FCBDF80010084407B2002120463E
:10D4B0000DF08DF801280CD0A08A00213F1A2046DB
:10D4C0000DF0E4F9381A02B240460021A5F80080B8
:10D4D00010E0002120460DF027FA218B081AC01B0E
:10D4E000F1E7236B33F81030194409B28A4205DBA7
:10D4F000401C2880A38C80B29842F2D3FEB1204613
:10D500000CF0CCFCBDF802100844E18A451A002159
:10D5100020460DF069FA281A02B240460021A6F80A
:10D52000008008E0E36A33F81030194409B28A42F7
:10D5300005DB401C3080E38C80B29842F2D301209E
:10D54000A3E72DE9FF4F83B005461F460598F5F781
:10D550006EF9014601208840B5F8209000F0FF08E0
:10D560006FEA090080B2019095F822004FF0FF3673
:10D57000C0F3800A00244FF0040B22E0E96801EBBD
:10D58000C4004268920148D5BAF1000F18D10BEBE4
:10D59000C4028958049AC1F30741090491420FD18A
:10D5A0000068817911EA080F0AD06A46059910F0DF
:10D5B0002DFA28B100983860012007B0BDE8F08F3F
:10D5C000641C688CC0F3C500A042D7D825E0E96888
:10D5D00051F83400827912EA080F1DD00BEBC40217
:10D5E0008A58C2F307411FFA82FA049A0904914249
:10D5F00012D1019A1AEA020F0ED1B2450CDD6A4629
:10D60000059910F003FA38B15046CA45D2D05645B4
:10D6100002DA064600983860641C688CC0F3C500C6
:10D62000A042D4D8002EC5DA0020C6E72DE9F04785
:10D63000814642F30006C0F15A001D460F465408C9
:10D6400000B2761C11F0E0FEA7EB040800FB08F026
:10D65000C711484611F0D8FE00FB08F0C011002F9A
:10D6600006DD7F3F39120A1B32442A80214405E03F
:10D670007F3739120A1B21442A80891BA980002880
:10D6800006DD7F380012011B31446980204405E02B
:10D690007F300012011B20446980801BE880BDE8B8
:10D6A000F0870000024A0021D2880DF0A9B90000DD
:10D6B000680000202DE9FF4F85B007460798DDE997
:10D6C000153200891A4410440FFA80FA0492B88C7B
:10D6D000484384B2A14600255CE0BA6A52F824109F
:10D6E000A1B33B6B00264FF0020E33F915B0401E7C
:10D6F00018E000BF04EB060C52F82CC0BCF1000F80
:10D7000014D09CF800C05FEACC7C0FD005EB060873
:10D710000EEB480C33F80C80761C08EB0B0C0FFA60
:10D720008CFBB6B206EB050C8445E3DB087880077A
:10D730000DD507981599B0F90800014416980844CA
:10D740005146504500DC08460FFA80FA1EE0DDE93C
:10D7500013020244ABEB020000B2129ACDE90020A2
:10D7600000230293DDE9072303A8491C11F010FFF1
:10D77000BDF90E10049808445146504500DC084697
:10D780000FFA80FAA01984B2A81985B2641C6D1C26
:10D79000A4B2ADB2B88C00EB0901A1429DD809B08A
:10D7A0005046BDE8F08F0000034A10B50021128AF0
:10D7B0000DF026F9C0B210BD68000020034A10B574
:10D7C0000021528A0DF01CF9C0B210BD6800002083
:10D7D0002DE9FC410C46064600210DF08BF905466B
:10D7E0004FF4802130460DF085F9B5F90870B0F995
:10D7F0000850002130460DF0AAF9E91901EBD1716A
:10D8000000EB610005B230460CF0A7F9F18A00EB9D
:10D81000D07001EB600005EBD571A0EB610060807A
:10D820002844E080694630460CF05EF9BDF80000FF
:10D830002080BDF80400A080BDE8FC812DE9FF41F7
:10D840000646FFF72BFD040020D04FF48027394611
:10D8500030460DF04FF905463046582239460DF056
:10D86000CFF806B2204609F063FD0146002041F6DC
:10D87000FF72CDE90002029033462A4603A811F058
:10D8800087FEBDF90C0004B0BDE8F0810020FAE786
:10D8900039B1012909D0022905D0042907D0002077
:10D8A00070473C30704748307047543070476030A4
:10D8B000704700002DE9F04104460D46668C0020BB
:10D8C0000423C6F3C501E2680BE000BF03EBC00709
:10D8D000D7595FEA871C03D527F07F47AF4202D0B4
:10D8E000401C8142F2D8814203D002EBC000BDE867
:10D8F000F0814FF0806000EB76204FEAF0506084BA
:10D90000C0F3C500C10010460AF03EFCE060608C28
:10D91000C0F3C500401E0DD06FF00702E16802EBB6
:10D92000C00601EBC0030E44401ED6E90016C3E951
:10D930000016F3D10821E0680AF010FD08200AF073
:10D9400073FBE168086010F092F8E168486840F005
:10D9500000704860E16865F317004860E068C6E75A
:10D9600038B50C480D46144690F820004FF00201DF
:10D97000C0074FF0120002D00EF0D6FF01E00EF00B
:10D98000EBFF2246294604F051F80090BDF8000054
:10D9900038BD0000340400202DE9F0474FF0000CA2
:10D9A000DDE90964089DDDF82CA0E1466F1E09BB86
:10D9B000052A03D0062A01D0042A02D10023012D12
:10D9C00001D0002109E001225FF000019C4436F8FB
:10D9D0001180491CC4440FFA8CFCA942F6D3ACEB6D
:10D9E000030109B2072A2AD2DFE802F004070B2953
:10D9F00021160D00A4F8009021E0411A01EBD1712D
:10DA000012E0411A11E0411A09B23AB291FBF2F167
:10DA1000A4F800900BB212E0411A09B22AB291FBAD
:10DA2000F2F10BB203EBD3714910218007E0411AE8
:10DA30000AB2691C09B292FBF1F10BB223800021FA
:10DA40000BE000BF34F8112036F811C0624404EB3B
:10DA5000410C1A44ACF80220491CB942F2D304EB41
:10DA6000450106EB450231F8021C32F8022C114444
:10DA70002288891A0AB2BAF1000F0CD0002108E0FE
:10DA800034F8113036F81170C31ADB1B24F811304A
:10DA9000491CA942F4D31046BDE8F08770B58AB09E
:10DAA0000446FFF701FA05462046FFF7FBFD002D6F
:10DAB0005CD000285AD069462046F6F72DF90C2193
:10DAC00007A80AF04BFC2046002132220CF098FFF8
:10DAD00005462046002112220CF092FF46192046EE
:10DAE000002110220CF08CFF054420460CF0CFF9E9
:10DAF000A18A3144081AADF8240020460CF0CEF972
:10DB0000E18A2944081AADF82600002507E00068DC
:10DB100007AA694650F8250001F096F86D1CA06828
:10DB20004168A942F3D800980AF0F8FA01980AF07F
:10DB3000F5FA02980AF0F2FA03980AF0EFFA0021D7
:10DB400020460DF03AF80546002120460CF0A8FDCD
:10DB500042F2D1718D4201D0884202D120460DF0AF
:10DB600057FF00222B21204607F08EFA0AB070BD25
:10DB70000021A0F13002092A01D8D1B216E06128B3
:10DB800001D32038C0B2413806280FD2DFE800F0B8
:10DB9000030507090B0D0A2108E00B2106E00C2103
:10DBA00004E00D2102E00E2100E00F21084670473D
:10DBB0002DE9F0470446406A4FF4404102F023FC4F
:10DBC00094F92E10A08D0122FFF78AF90546206BEB
:10DBD00018B300264FF002084FF00309AF1D4FF4B1
:10DBE000004A17E0206BA28D30F8261091420FD129
:10DBF00008EB8601415694F92E20914208D109EB99
:10DC0000860140565246384481B2606A02F0F0FE06
:10DC1000761CB6B2A08EB042E4D8A08D218D884289
:10DC200011D194F92E1094F92A0081420BD194F964
:10DC30002B00AD1D284481B2606ABDE8F0474FF467
:10DC4000804202F0D5BEBDE8F0872DE9F0410446E0
:10DC5000406D0D4600282BD0A968022230F92170B2
:10DC600002EB8101465EA87B01280AD1B4F90C00C1
:10DC7000B84203D1B4F90E00B04202D0201D00F02A
:10DC8000C3FC201D00F030FD002811D127816681E2
:10DC9000A87B012804F104000CD000F0B5FC201D85
:10DCA00000F022FD002803D12089A0816089E08155
:10DCB000BDE8F08100F0B2FBF1E7000070B5254C43
:10DCC0000546042160680DF092F8002828D0E96A22
:10DCD0006068814224D00BF03BFF0646E86A08B139
:10DCE0000BF036FF86421CD11EB1606807F012FEB1
:10DCF0000FE0E86A40B10F21A26807F0C5F9284695
:10DD000000F0F2FC00280BD1D4E901020E2107F04B
:10DD1000BBF9284600F0E8FC002801D16068E86201
:10DD200070BD78B1EB6A53B1A26888B11021184672
:10DD300007F0AAF9284600F0D7FC0028F0D1002E01
:10DD4000E2D0D2E7E86A0028F9D00F21A268EFE715
:10DD50000F21ECE7200000202DE9F0470D46044696
:10DD6000897B40794FF0000801292AD0010708D5A6
:10DD700020F0080121F00101C4F84480617184F8A9
:10DD80000880277AA87B20726868E060D4F85090F9
:10DD90005FEA09007ED007F027FEBF4E00287060C2
:10DDA00078D0A87B08B1A5F80C80484607F01CFE87
:10DDB000706000286ED0A97B012905D000296AD0A7
:10DDC0000EE1000766D4DCE717B1012F36D007E17A
:10DDD00011F0C4F8606469680A2906D0142917D0C4
:10DDE000132918D01B291AD024E070680DF00AFB03
:10DDF00020B9102170680CF0FAFF08B1012700E08B
:10DE00000027484607F0EAFD8743D9D101216AE09F
:10DE1000A889401E01E0A889401CA881E0E01B21E0
:10DE2000484607F04BFE201D00F05EFC002831D173
:10DE3000202158E0484607F041FE58E06079C007CD
:10DE40003ED1606C11F084F82168898B884260793A
:10DE500034D940F00100607111F080F8A064686866
:10DE60000A281CD170680DF0CDFA20B91021706815
:10DE70000CF0BDFFB8B1484607F0BDFD01280ED932
:10DE8000484607F0ABFD80F00101484607F027FE49
:10DE9000202101E090E030E070680BF0B3F9607988
:10DEA00040F001009BE0D6E90102052107F0ECF803
:10DEB000201D00F019FC00287ED1F0E7C0071BD020
:10DEC000A06C11F045F82168C98B884214D911F073
:10DED00045F8A06469680A2904D0142998D0132948
:10DEE000A8D198E70621D6E9010207F0CDF8201D58
:10DEF00000F0FAFB00285FD172E0012F70D1696851
:10DF00000A2967D10DF07EFA20B9102170680CF053
:10DF10006EFFA8B3484607F061FD002860794FEA1C
:10DF2000C07052D020B1484607F065FD012847D89F
:10DF3000D6E90102082107F0A7F8201D00F0D4FB64
:10DF400000286FD1D6E90102042107F09DF8201DB9
:10DF500000F0CAFB002865D1D6E90102072107F0CD
:10DF600093F8201D00F0C0FB00285BD10A21484631
:10DF700007F0A4FD201D00F0B7FB002852D129E0D6
:10DF8000FFE7D6E90102082107F07EF8201D00F026
:10DF9000ABFB002846D16079C00704D1D6E9010265
:10DFA000042107F071F8201D00F09EFB002839D1F4
:10DFB000D6E90102072100E034E007F065F8D9E76F
:10DFC000202170680BF01EF904E018B901214846C1
:10DFD00007F085FDC4F84480607920F0010060718D
:10DFE000C6F80480A88900281CD0484607F0F6FC33
:10DFF0000028B5F90C0029D0002815DA4FF00006EA
:10E000000BE000BF4FF01401484607F057FD201DFC
:10E0100000F06AFB002805D1761CB5F90C004042DF
:10E02000B042EFDCBDE8F087FCDD002609E01321FB
:10E03000484607F043FD201D00F056FB0028F1D1B3
:10E04000761CB5F90C00B042F1DCEBE7002811DAE0
:10E050004FF0000608E0484607F0A4FC201D00F041
:10E0600043FB0028DED1761CB5F90C004042B042DB
:10E07000F1DCD7E7D6DD002608E0484607F034FC9F
:10E08000201D00F031FB0028CCD1761CB5F90C0026
:10E09000B042F2DCC6E700002000002070B5044664
:10E0A000806A002870D194F83D00C0076CD14FF40D
:10E0B0000046256A03E028460BF090FD0546002D3A
:10E0C00062D0314628460CF092FE0028F3D1B4F914
:10E0D0001000002801DD014600E041422B4A926811
:10E0E00013689B7E994209DAB4F91210002900DC0A
:10E0F0004942994202DA002121876187218F084431
:10E1000000B22087618F638A0028194409B26187B1
:10E1100001DD034600E043421668F67EB34206DCAA
:10E12000002901DD0B4600E04B42B3422CDD012308
:10E1300084F83D30002801DD034600E04342002919
:10E1400001DD0E4600E04E42B34209DD002894F89E
:10E150003C0020F0F00001DD20300AE0103008E043
:10E1600094F83C00002920F0F00001DD803000E050
:10E17000403084F83C000C21284606F085FF2046FC
:10E18000BDE8704000F0B0BA70BD00002000002073
:10E190002DE9F0470E460446897B40794FF0000890
:10E1A000012923D0010708D520F0080121F0010141
:10E1B000C4F84480617184F80880D4F850905FEA14
:10E1C00009007CD007F010FC664D0028686076D00E
:10E1D00080210CF018FE0746E1687068E060207A44
:10E1E000B27B2272B27B012A03D003E0000766D41F
:10E1F000E3E708B1AFB3B0E010F0B0FE606471685F
:10E20000092903D00B2909D087B1A6E0002148468F
:10E2100007F065FC484607F067FB56E000214846DA
:10E2200007F05DFC484607F0BDFB4EE00A2902D02E
:10E230001B290BD016E00A21484607F03FFC201DA1
:10E2400000F052FA00283AD1012137E01B2148465C
:10E2500007F034FC201D00F047FA00287FD1202170
:10E260002CE003E0484607F029FC2EE0012A01D00B
:10E2700032B372E0012870D170680A2809D1D5E95B
:10E280000102022106F000FF201D00F02DFA0028F7
:10E2900065D16079C00720D1606C10F059FE21680B
:10E2A000898B8842607916D940F0010060717068EE
:10E2B0000A2852D110F052FE0521A06401E04EE080
:10E2C0001FE0D5E9010206F0DFFE201D00F00CFA88
:10E2D000002844D141E0C0073FD0A06C10F038FEC8
:10E2E0002168C98B884238D910F038FEA064716863
:10E2F0000A2904D0092989D00B29B3D18EE7062138
:10E30000DCE7012829D171600A2920D1D5E9010271
:10E31000082106F0B9FE201D00F0E6F900281ED104
:10E320006079C00709D1D5E90102042106F0ACFEED
:10E33000201D00F0D9F9002811D1D5E901020721EB
:10E3400006F0A2FE201D00F0CFF9002807D1C4F886
:10E350004480607920F001006071C5F80480BDE858
:10E36000F08700002000002070B5044600680D46CC
:10E37000098800692182698861820268117CC1F381
:10E380000111022901D003290AD111882A88891A8A
:10E39000491E298001686A884988891A491E69804E
:10E3A0000168097CC1F30111012901D0032907D1BA
:10E3B00069882A886A8000684088401A401E288040
:10E3C0002068006903F042FF2068006903F084FFC1
:10E3D000E06C78B1B4F90C20B5F900108A4205D18F
:10E3E000B4F90E20B5F902309A4203D0B5F90220F3
:10E3F0000EF066F8288820816888608120790128DD
:10E4000004F1040006D000F0FFF82089A0816089A3
:10E41000E08170BD00F002F8F7E700002DE9F0415F
:10E42000784D0446006A6860617809077ED4A9685F
:10E43000002609680F6930B1A16A39BB4FF4005159
:10E440000CF0D5FC10BB384603F016FF211D08F078
:10E45000C3FA686070B9384603F016FF211D08F052
:10E46000BBFA686030B9384603F020FF211D08F080
:10E47000B3FA6860606A48B1268366832046F3F782
:10E48000CDFD204600F030F900284FD101231A4677
:10E49000211D68680EF0FEF9206A696888423CD048
:10E4A000A1882181E188618140B10321AA6806F039
:10E4B000EBFD204600F018F9002837D1686820628B
:10E4C000606250B310F04AFD20646078012120F0B2
:10E4D00001006070A682E68294F83C0020F0FF0004
:10E4E00084F83C0084F83D60268766872682668231
:10E4F000D5E9010206F0C8FD204600F0F5F8002835
:10E500007DD1A8684179090779D4001DFFF7D6FBB2
:10E51000204600F0E9F8002871D1A0882189401A2E
:10E5200002B22282E0886189401A00E067E000B20E
:10E530006082B4F918104B10B4F91A1003EB6202A0
:10E540004910228301EB60006083A069E061686884
:10E55000002854D00221AA6806F096FD204600F05B
:10E56000C3F800284BD1A8684079000747D420465B
:10E57000F3F7C8FC204600F0B7F800283FD120464A
:10E58000FFF78CFD204600F0AFF8002837D1A06AD5
:10E59000002834D16078C0071DD1206C10F0D8FC61
:10E5A000AA681168898B88420FD90521686806F02E
:10E5B0006BFD204600F098F8002820D1607840F0EC
:10E5C0000100607010F0CAFC6064A06A002816D1D7
:10E5D0006078C00713D0606C10F0BAFCAA681168AC
:10E5E000C98B88420BD90621686806F04DFD20468C
:10E5F00000F07AF8002802D110F0B0FC6064BDE8A9
:10E60000F0810000200000202DE9F0410446407810
:10E61000254D00074FF0000611D5206A0321AA6896
:10E6200006F032FD204600F05FF8002839D126625E
:10E63000666226646664607820F008006070206A74
:10E640006860A76A18B30821AA6806F01DFD204675
:10E6500000F04AF8002824D1B7B96078C00709D182
:10E66000D5E90102042106F00FFD204600F03CF838
:10E67000002816D1D5E90102072106F005FD204644
:10E6800000F032F800280CD1266226646664002F60
:10E6900007D02046F3F7C2FC2046BDE8F04100F069
:10E6A00023B8BDE8F08100002000002042799107E6
:10E6B00016D5002141628162C16241648164018397
:10E6C000418390F8403022F0030223F00F0380F8DA
:10E6D00040308183C1838187C18742710148416095
:10E6E00070470000200000204078810702D5034ACF
:10E6F00000215160C0F3400070470000200000205E
:10E700002DE9F041044690F82A00C00738D0A08CCB
:10E710000721B0FBF1F0E18CB1FBF0F200FB12122B
:10E7200000EB40010A4492B2B2FBF0F300FB13206D
:10E730000844E2842085002120460CF0DBF90546E0
:10E74000002120460CF003FA0746B5F90850204690
:10E750000BF096F906462046FEF7A0FD0246E18C36
:10E76000E819414306EBD67005EBD573BDE8F041DF
:10E770004010A0EB6300401A01B210460EF06FB8D3
:10E78000BDE8F0812DE9F843856A044680212846DA
:10E790000CF02DFB4D4FFE0CC8B128460BF069FB69
:10E7A00001281DD0022828D0032837D06786E686A6
:10E7B00028460BF057FB012847D0022850D00328E9
:10E7C0005AD02786A686208E002872D072E0334663
:10E7D00039463A4604F13000009601F00CFCF2E7AD
:10E7E000E88A0023401C01B232462846FDF792FE1B
:10E7F0006086E88A401E02B209E0B5F91A100023CB
:10E8000032462846FDF786FE6086B5F91A200023B9
:10E8100039462846FDF77EFEE086C9E7688BE98A1F
:10E820000023401A401C00B200EBD07001EB6008DE
:10E8300008F1010001B232462846FDF76BFE608602
:10E84000A8F10100002302B2E2E7B5F91410002399
:10E8500032462846FDF7D6FD2086B5F9142009E09A
:10E86000B5F91810002332462846FDF7CBFD208667
:10E87000B5F91820002315E0288BA98A0023401A37
:10E88000401C00B200EBD07001EB600808F1010001
:10E8900001B232462846FDF7B5FD2086A8F10100F9
:10E8A000002302B239462846FDF7ACFDA0868AE770
:10E8B000FFE72786A08E00B9A686608E00B967861E
:10E8C000E08E002800D1E686BDE8F88301E0FFFF76
:10E8D00070B50D4C064600200D460A4620601D21ED
:10E8E000304606F0D1FB206858B1017839B129468D
:10E8F000F1F7B4FC28B1304621680FF02BFF00205F
:10E9000070BD012070BD0000140200202DE9F0410F
:10E9100088B01F4614460D4606460CF0A5FD00289B
:10E9200042D0A54240D04FF4B470854202D9A5F53B
:10E93000B475ADB2844202D9A4F5B474A4B2B18C5A
:10E940004A1995B221448CB2854202D9A5F5B47515
:10E95000ADB2844202D9A4F5B474A4B207AA06A940
:10E960003046FEF75AFA394630460BF006FE80462E
:10E970003046394651220CF043F804A908B101226F
:10E9800000E00022CDE90221CDE90048BDF81C00DD
:10E99000BDF91A1082B2BDF918002B4603F0F0FC45
:10E9A00004A930460CF014FD08B0BDE8F0811FB595
:10E9B000044603AA02A9FEF730FA6B46BDF90C2003
:10E9C00002A92046FEF714FC694620460CF000FD23
:10E9D0001FBDF0B50546A1F57F408BB00E46FF3850
:10E9E00058D0288EB04255D9A86A00EBC6016846B7
:10E9F00001F07FFA03A928460BF076F8002128469B
:10EA00000BF0A4FF0746002128460BF0F1FE044658
:10EA100028460BF06FF803F007FC0A2190FBF1F297
:10EA2000BA4201DB90FBF1F790FBF1F33AB2A3425B
:10EA300001DB90FBF1F4BDF80C30BDF80000991A31
:10EA40000844ADF80000BDF80E10BDF802000F1B21
:10EA50003844BDF8047000B23B441A44ADF80420B9
:10EA6000BDF80620ADF802001144214409B2ADF80A
:10EA70000610AA8EB24209D1EA6A32F8162092052F
:10EA800004D5091A491C401AADF802006946284607
:10EA90000CF09EFC0BB0F0BD1CB504460146684668
:10EAA000FEF766FB694620460CF092FC1CBD2DE982
:10EAB000FC470446B0F882000D46A8427DD92046A6
:10EAC0000AF0F8FFB4F88410484340F30F262046BC
:10EAD0000BF00AF9074694F88800010705D500F005
:10EAE0000700012806D002286DD02046BDE8FC476B
:10EAF0000CF04BBC002120460BF09CFD8046002111
:10EB000020460BF093FEA28A40441044C01B0FFA2B
:10EB100080F920464FF4A02149220BF071FF0FFA33
:10EB200080F84FF4003120460CF04DF80746A08ADB
:10EB3000ADF80000E28AADF80220208BADF80400A9
:10EB400008EB0700618B121A0844ADF80220ADF8FB
:10EB50000600B4F88200401EA84217DD06FB05F14E
:10EB600091FBF0F24A44A2EB0801C91BADF800107A
:10EB7000691C714391FBF0F1494401EB08003844F2
:10EB8000ADF80400694620460CF022FC002D41D06F
:10EB9000681E06FB00F1B4F88200401E91FBF0F203
:10EBA0004A44A2EB0801C91BADF800106E4396FB66
:10EBB000F0F1494401EB080001E02BE003E03844A8
:10EBC000ADF8040022E0002120460BF00BFEB4F863
:10EBD000841048434FEA2028B4F8820006EB08016D
:10EBE00091FBF0F67543002120460BF01FFEA18A31
:10EBF00028444518694620460AF076FFE81B81192B
:10EC0000A0EB0800ADF80410ADF8000069462046FE
:10EC10000CF0DEFBBDE8FC8770B505460CF09EF8F5
:10EC2000044628460AF099FF844201DB012070BDAA
:10EC3000002070BD28B10A2803D00D2801D0002083
:10EC400070470120704700002DE9F74F0D4682B054
:10EC50000446B0490CF0D2F800287DD12046FEF7DA
:10EC600035F982462046FEF7A9FD5FEA000973D018
:10EC7000BAF1000F70D02046FEF71EF90746204675
:10EC8000FEF792FDDFF890B2064620460021BBF861
:10EC90000E200BF0B5FE00F0FF0820460021BBF867
:10ECA00014200BF0ADFEC0B201902B6807EB0A00F8
:10ECB0006FF00102D5F808C033F8171002EB4000DE
:10ECC0001B5A3CF800001844401A00B200906B68D0
:10ECD00006EB090002EB400033F816101A5AEB68F5
:10ECE000185A1044401A0FFA80FB002120460BF0FE
:10ECF0005CFC01280AD1B8F1000F03D0B8F1020F73
:10ED000002D003E0022000E000208046208BA18A90
:10ED1000401A401C0FFA80FA608BE18A401A401CAE
:10ED20000FFA80F94046B8F1010F1BD0022824D019
:10ED30002868B8F1030F30F9170028D18046608C9D
:10ED4000DDF800A040F480606084019801287BD049
:10ED5000022877D0032800E0D8E0686830F9167000
:10ED600071D119E029680098A0EB0A0031F817105A
:10ED700000EBD07001EB600008E020460BF0EEFFE6
:10ED8000296831F8172000991144081A00B280460A
:10ED9000608C20F48060D7E7608CD94640F4007026
:10EDA000608420460BF0DAFF504504D120460AF07B
:10EDB000D4FE484527D0A08AADF80000E08AADF81F
:10EDC0000200208BADF80400608BADF806002046F1
:10EDD0000CF0DBFA04F114005146054601F017F976
:10EDE0004946284601F00EF920460CF0CEFA6A4654
:10EDF0002921204606F048F920460AF0EFFE224677
:10EE0000222106F041F9204600216A220BF0F8FD8C
:10EE100006B2204600216B220BF0F2FD05B220461F
:10EE20000BF09CFF814620460AF097FE0146C6F390
:10EE3000413064224FF4FA634FF47A7C01281BD0EE
:10EE400027E001E00AE013E06968ABEB090000EBA2
:10EE5000D07031F8161001EB600008E020460AF08F
:10EE60007CFE696831F8162002EB0B01081A07B224
:10EE7000608C20F4007093E726F4C040984208DCD0
:10EE8000604501DDC0F57A7000FB09F090FBF2F0FF
:10EE900006B2C5F3413001280BD125F4C040984299
:10EEA00007DC604501DDC0F57A70484390FBF2F065
:10EEB00005B2049A08EB0600791912891044A28A57
:10EEC000801A05B2049840890844E18A401A06B2C3
:10EED00055EA06001AD020460CF057FAA08A2844BA
:10EEE000A082208B28442083E08A3044E082608B1B
:10EEF0003044608320460CF048FA05B0324629467B
:10EF00002046BDE8F04F00230CF0E6BA05B0BDE89E
:10EF1000F08F000001000600680000202DE9F0419C
:10EF2000064615460F46002005E039462046B04704
:10EF300001280AD0204611F0FFF8040002D06068D2
:10EF40008000F2D10020BDE8F08105B12C600120E5
:10EF5000F9E703880A88934201D0981A70474088DD
:10EF60004988401A704703780A78934201D0981A6A
:10EF7000704740784978401A704700002DE9F04109
:10EF80004268096822F040428A4227D10446FDF7D0
:10EF90003BFFDFF84C800546D8F80820131BA2EB96
:10EFA00005005E1BC8F8080015D0274661193246D7
:10EFB000384609F001F906E0A068401BA060204631
:10EFC000FDF722FF0444D8F808008442F4D1B819B0
:10EFD000294609F0C3F90120BDE8F0810020FBE7D4
:10EFE0004800002070B5054606F00CF80446284697
:10EFF00006F046F806460AF0F1FD05462A2C01D037
:10F00000292C0BD10021304608F07CFD284611F058
:10F010009FFB2846BDE8704012F05EBD70BD000049
:10F0200070B505460AF0DAFC0646002406E0A8683A
:10F03000006850F82400FFF7F3FF641CB442F6D3D5
:10F04000688CC1071ED020F00100688428460CF0AF
:10F05000DFFC28460CF0FEFB002E13D000212846D2
:10F060000BF030FB00280DD007494968884209D8C9
:10F070000649096801EBC00050E902212846BDE8B5
:10F080007040104770BD000034000020980100203F
:10F090002DE9F0478046089D1F46E86900FB01F313
:10F0A0009B12002807DD934207DD00BF95F828007A
:10F0B00080070DD48BE09342F8DBCB1943439B12BE
:10F0C000002808DD934239DA95F8280080077ED4BD
:10F0D0000120BDE8F0879342F6DCA869521C50433A
:10F0E00040F395000312C0B2FF22002828D000BFD1
:10F0F0006E6AC0F1FF0404FB06F4A2EB242600BFF5
:10F10000A3EB0104A14636D0002C15DBBC4213DA78
:10F11000C0F1FF00C6F1FF014843A2EB6020C1B27D
:10F1200095F82800800701D5C1F1FF0118F8040007
:10F1300010F0DAFE08F80400641C1CE0A869CEE7B1
:10F140004FF0FF06DCE7002C10DBBC420EDAA6EB2A
:10F150006000C1B295F82800800701D5C1F1FF0118
:10F1600018F8040010F0C0FE08F80400686A641C77
:10F17000361ABC4202DA686AB042E4DBBC4218DAF2
:10F18000002C16DBA869704380127043C0F347213E
:10F19000E869002801DAC1F1FF0195F8280080072D
:10F1A00001D5C1F1FF0118F8040010F09DFE08F828
:10F1B000040095F82800800707D54946B94506DCC4
:10F1C00000290DDB404609E001E0641C01D5002068
:10F1D0007FE7BC4204DC391B08EB040009F0BEF8F1
:10F1E000022076E72DE9F05F06460A9F8A461D4613
:10F1F000B86900FB02F18C12002800DD641C97F84E
:10F200002830544502DA980707D4D5E08C120AEB6F
:10F21000050CA44502DA98077ED483E0521C4243D1
:10F2200041F3950142F395044FEA2129221204F09B
:10F23000FF08C9B2A9EB0A04914505D0002803DAFA
:10F2400011B9FF219146641E914528D1002C0CDB99
:10F25000AC420ADA01EB08004108980701D5C1F178
:10F26000FF01305D10F040FE305597F82800641C17
:10F27000800706D5A9EB0A01A9424DDA8EE0304697
:10F280000AE0AC4200DD2C46002C45D006DD00BF74
:10F29000A5EB040106EB040009F060F889E04FF0EB
:10F2A000FF0B002844DAF869404248434FEAA0289F
:10F2B000002C0DDBAC420BDA08FB01F0C0F3472158
:10F2C000980701D5C1F1FF01305D10F00DFE3055FA
:10F2D000B969A8F1FF0041438812641E11D4AC4201
:10F2E0000FDAC8F1FF014143ABEB6120C1B297F8DF
:10F2F0002800800701D5C1F1FF01305D10F0F4FD59
:10F30000305597F82800A41C800709D5A9EB0A01FD
:10F31000491EA9424DDC00E04EE00029AFDC48E088
:10F32000AC4202DD0120BDE8F09F002CB0DA40E0E5
:10F33000C1F1FF00F96941434FEAA128002C0EDB1F
:10F34000AC420CDA00FB08F0ABEB6020C1B29807CE
:10F3500001D5C1F1FF01305D10F0C6FD3055B9692E
:10F36000C8F1FF0041438912641C0ED4AC420CDA90
:10F370004843C0F3472197F82800800701D5C1F121
:10F38000FF01305D10F0B0FD305597F82800641C87
:10F39000800707D5A9EB0A01A9420DDC0029BFF6B9
:10F3A0006EAF06E0AC4200DD2C46002C04D03FF7E7
:10F3B0006FAF4FF00200B6E74FF00000B3E77CB547
:10F3C000446A07F0EDF9054607F02BFA04280CD142
:10F3D000E18E204621870AF0BBFB064606F0FEFAC6
:10F3E00018B10021304606F07AFB284607F019FADA
:10F3F000012804D0284607F014FA03280AD101A9ED
:10F40000284607F0E3F9BDF906102046FDF71CFE7B
:10F41000E0862087204605F0D3FAA06A10B920467E
:10F420000BF0B3FFE08E00906A461C21204605F0E9
:10F430002BFE7CBD2DE9F041074688460026124888
:10F44000F2F77EFF044619E021460F48F2F78AFFE3
:10F4500005462068B84200D07FB96168414502D0B6
:10F46000B8F1000F09D121460748F2F7D3FF204633
:10F4700008F066FEF3F7F6FF01262C46002CE3D1D8
:10F480003046BDE8F08100008804002070B50546D4
:10F490000C460948F2F754FF0BE00168A94204D179
:10F4A0004168A14207D0002C05D001460248F2F77E
:10F4B00059FF0028F1D170BD8804002010B5044622
:10F4C000402108F04BFF4FF4FA70A0620020E06189
:10F4D000642060620120A0870448A06194F83E0087
:10F4E00040F0010084F83E0010BD000057F5000810
:10F4F00038B504464FF480650095D4E90A2000230E
:10F50000194608F073FD4FF46E7332220021009506
:10F5100000F022FFE269616A891A414302EBA120EF
:10F5200038BD38B504464FF480650095D4E90A200B
:10F530000023194608F05AFD40F2B6334FF46172C9
:10F540000021009500F008FFE269616A891A4143D1
:10F5500002EBA12038BD38B504464FF4806000901E
:10F56000D4E90A200023194608F040FDE269616AE7
:10F57000891A414302EBA12038BDD0E90A128A4220
:10F5800001DB406A7047C06970478B1A002B00DCB2
:10F59000531A4FF47A714B43B3FBF0F0002800D1BB
:10F5A0000120704770B54168054611B12868FFF722
:10F5B00041FF1948F2F725FF184E10B10FF0CEFCAD
:10F5C00070601548F2F7E1FE040024D0402229467D
:10F5D00008F0F2FD2868A84200D12460717894F800
:10F5E0003E0061F3820084F83E00C0070FD021691D
:10F5F00039B120468847E1690144E161616A084404
:10F60000606262681AB1206808B1E1699047F3F757
:10F6100029FF204670BDFEE78804002080010020FD
:10F6200010B500200C468884872161852D22A28593
:10F63000E18449002185A18E21F00601A1864FF4C5
:10F640000041E185A18E2086642041F0080160869A
:10F6500088B220F00100A0861001E0860FF07EFC49
:10F66000A063208DA0870221204609F0BDF94FF448
:10F670004471204609F08CFD2046BDE810400D2164
:10F680000CF039BE2DE9F04FAFB0044605F0F8FCA0
:10F690000746204605F0BCFC2A9028AA2CA938462B
:10F6A000FDF7BBFB06A82A9909F0CCFFBDF9A00025
:10F6B000DFF888810DF1B00A0DF1080B00282DDD6F
:10F6C000584602F03DFE02AA002138460BF0CFFB5F
:10F6D0000020CDF83CA01390CDE90780BDF8A00034
:10F6E000ADF8540006AA1A213846CDF838B005F016
:10F6F000CBFCB98DB88C7A8D0144104489B280B2AC
:10F70000CDE90001BDF854302CAA02A92A9802F0D4
:10F7100007FE06AA1B21384605F0B6FC4FF4003957
:10F72000494638460BF08EF80646494638460BF0F7
:10F73000D7F80546494638460BF02CF904464946A9
:10F7400038460BF019F8AE4201DD314600E029469B
:10F75000844201DD224600E00246914205DDAE42D0
:10F7600001DD304604E0284602E0844200DD204608
:10F77000BDF8A010081A04B2002C34DD02A802F073
:10F78000DFFD02AA4D46494638460BF070FB0120CA
:10F79000CDF83CA01395CDE90780ADF8544006AAFA
:10F7A0001A213846CDF838B005F06EFCBDF90A10C4
:10F7B000BDF95400814201DDADF80A00398DB88CE5
:10F7C000FA8C0144104489B280B2CDE90001BDF841
:10F7D00054302CAA02A92A9802F0A2FD06AA1B21E5
:10F7E000384605F051FC2DABBDF9A0202CA93846B8
:10F7F000FDF7FEFC18A803F0DDFF4FF4403418AA13
:10F80000214638460BF079FC02201394CDE907809D
:10F810002DA8099018A80A9006AA1A21384605F0C2
:10F8200033FC2DAA18A92A9803F0B0FF06AA1B21C1
:10F83000384605F029FC2FB0BDE8F08F508602084D
:10F840002DE9F04786B08A46FE480AF09FF8012865
:10F850007ED1504605F0D6FB0646504605F010FC1A
:10F860000546504605F00CFC0446022E11D0082E29
:10F870006FD0032EFCD00D2E6CD0112E6BD0132E1A
:10F880006AD0152E64D106B05046BDE8F047FFF7A8
:10F89000F9BE06F085FF06005AD006F0C2FF012827
:10F8A00056D101A9304606F091FF03AA02A92846C5
:10F8B000FDF7B3FABDF80400BDF80810401AADF822
:10F8C0000400BDF80600BDF80A10401AADF80600A5
:10F8D00094F83400C00742D14FF4003128460AF0B2
:10F8E0004CFE0646BDF80C004FF48031801BADF88D
:10F8F0000C0028460BF07BFA10B1BDF80C0008E0B4
:10F90000BDF90C00C11700EB9171B6EBA10F00DA45
:10F910008E10801BADF80C0000B2012802DA012025
:10F92000ADF80C00BDF90410BDF90600494300FB19
:10F930000011BDF90C004043814206DDA08E40F06D
:10F940000100A0860FF00AFBA06394F8340004E0E5
:10F9500084E096E0AFE0D2E012E1C0077ED0BDF9CE
:10F96000041019B9BDF80600002877D0B4F92C604E
:10F97000628DB0B2904202D200F5B47006B2BDF909
:10F98000060000F049FBA18C628D401A801A00B27B
:10F99000002802DA00F5B47000B2B11AA38F09B2E0
:10F9A0009A1A0FFA82F8A0EB080212B202F58C72D2
:10F9B000B2F50C7F07D994F83400000701D5002078
:10F9C0000DE008460BE001EBD171B0EB610FA18EA9
:10F9D00002DA41F0080101E021F00801A186A0EB64
:10F9E000080007B2A06B0FF0B3FAE18E41434FF469
:10F9F0007A70B1FBF0F000B2874201DD074603E008
:10FA00004042874200DA07B2618DB4F93220B4F97E
:10FA10003030A6EB010CD01A4FEACC0C9CFBF0F076
:10FA20004744001D07EB2010B4F92E7008440092E3
:10FA300000B2324608F0DAFA06B2B5F92E00B0424A
:10FA400011D00FF08BFAA0633146284600F0F5F98B
:10FA5000BE4208D000221C21284600E00EE005F03E
:10FA600013FB01280AD1B4F93000B04203D0B4F935
:10FA70003200B04202D10FF071FAA06306B0BDE8C7
:10FA8000F087A08E20F00100A08628460AF060F8DA
:10FA9000054605F0A3FF044606F082FE06F0C1FE0F
:10FAA0000428EBD1002CE9D006B02846BDE8F04789
:10FAB000002106F014B8504605F0E0FA0078B4F9D9
:10FAC0002E60132806D0112804D0142805D012283F
:10FAD00003D008E0E88D401C01E0E88D401E01B233
:10FAE000284600F0AAF9B4F92E00B042C6D006B0FC
:10FAF0002846BDE8F04700221C2105F0C5BA504653
:10FB000005F0BCFA044604AA03A92846FDF785F9C6
:10FB1000A868002608B1B0F91460002128460AF050
:10FB20002CFD0546BDF810103044081ABDF80E2013
:10FB3000ADF81000111809B20091BDF80C10121A9E
:10FB40000B18081A01B21BB212B201A800F053FA46
:10FB500047F6FF773A4601A82168F1F753FF08B14D
:10FB600000200BE005EB460002B2114601A800F0B0
:10FB700028FA3A4601A82168F1F744FF20717DE791
:10FB8000002128460AF05EFE0746002128460AF0BA
:10FB9000A7FE0646002128460AF0FCFE0446002186
:10FBA00028460AF0E9FDB74201DD394600E031465A
:10FBB000844201DD224600E00246914205DDB74263
:10FBC00001DD384604E0304602E0844200DD204694
:10FBD00080464FF44039494628460AF033FE044631
:10FBE000494628460AF07CFE0746494628460AF060
:10FBF000D1FE0646494628460AF0BEFDBC4201DD5C
:10FC0000214600E03946864201DD324600E00246E8
:10FC1000914205DDBC4201DD204604E0384602E0A9
:10FC2000864200DD3046801C04B2504605F026FABC
:10FC3000B0F90020A4EB08018A4200DD11460180E2
:10FC40001CE700005086020870B50C4605461146B8
:10FC500000F07EF821462846BDE8704000F0B4B8B8
:10FC600070B50C460546114600F006F821462846B8
:10FC7000BDE8704000F036B870B54FF4B473054677
:10FC80000C46994202D9A1F5B474A4B2A88D698D2D
:10FC9000421A611A12B209B2002A02DA02F5B472EB
:10FCA00012B2002902DA01F5B47109B28E1AB43623
:10FCB0009E4203D928460BF068FB0DE0914203DA1F
:10FCC00000230246214604E08A4205DA0023224648
:10FCD00001462846FEF71AFE2846AC85BDE870406E
:10FCE00014F01CBC70B54FF4B47305460C46994231
:10FCF00002D9A1F5B474A4B2A98D688D0A1A091BA2
:10FD000012B209B2002A02DA02F5B47212B2002964
:10FD100002DA01F5B47109B28E1AB4369E4203D9E3
:10FD200028460BF032FB0DE0914203DA0023224615
:10FD3000014604E08A4205DA0023024621462846AD
:10FD4000FEF7E4FD28466C85BDE8704014F0E6BB84
:10FD500070B54FF4B47305460C46994202D9A1F52B
:10FD6000B474A4B2288DE98C421A611A12B209B295
:10FD7000002A02DA02F5B47212B2002902DA01F5A1
:10FD8000B47109B28E1AB4369E4203D928460BF0DC
:10FD9000FCFA0DE04FF40033914202DA02462146AC
:10FDA00003E08A4204DA224601462846FEF7AEFD09
:10FDB0002846FEF7FCFD28462C85BDE87040FEF77E
:10FDC000F6BD81840BF0E1BA70B54FF4B47305460B
:10FDD0000C46994202D9A1F5B474A4B2298DE88CDD
:10FDE0000A1A091B12B209B2002A02DA02F5B47229
:10FDF00012B2002902DA01F5B47109B28E1AB436D2
:10FE00009E4203D928460BF0C0FA0DE04FF40033B0
:10FE1000914202DA2246014603E08A4204DA0246AF
:10FE200021462846FEF772FD2846FEF7C0FD28460B
:10FE3000EC84BDE87040FEF7BABDB0F92E308B42BD
:10FE40000ED0B0F932208A4200DA1146B0F93020E3
:10FE50008A4200DD11468B4202D0C18514F05EBBA0
:10FE600070470A8802804A8842808A888280C988CE
:10FE7000C18070470A8802804A8842808A888280CE
:10FE8000C988C18070470A8802804A8842808A886F
:10FE90008280C988C18070470A8802804A8842806F
:10FEA0008A888280C988C18070470A8802804A880F
:10FEB00042808A888280C988C18070470A8802800F
:10FEC0004A8842808A888280C988C18070470A88AF
:10FED00002804A8842808A888280C988C1807047AF
:10FEE0000A8802804A8842808A888280C988C180C4
:10FEF00070470A8802804A8842808A888280C9883E
:10FF0000C18070470A8802804A8842808A8882803D
:10FF1000C988C18070470A8802804A8842808A88DE
:10FF20008280C988C18070470A8802804A884280DE
:10FF30008A888280C988C1807047C1884088081A31
:10FF4000401C00B27047C1884088081A401C00B2AB
:10FF50007047C1884088081A401C00B27047B0F949
:10FF60000410B0F90020891AB0F90620B0F9020097
:10FF7000101A401C491C4843704781880088081AA1
:10FF8000401C00B2704781880088081A401C00B2EB
:10FF9000704781880088081A401C00B27047818829
:10FFA0000088081A401C00B2704781880088081A2F
:10FFB000401C00B2704781880088081A401C00B2BB
:10FFC000704703885B1A03808388194481804188C5
:10FFD000891A4180C1881144C180704703880B444D
:10FFE0000380838819448180418811444180C188FD
:10FFF0001144C180704710B5029C0180428083800B
:020000040801F1
:10000000C48010BD4288491E1144C18070470288D7
:10001000491E1144818070470022002801DA012224
:100020004042002901DA4942921C884207D9C1EBBB
:10003000011101EB4101B1FBF0F3103205E0C0EB1F
:10004000001000EB4000B0FBF1F30020D9B21629FC
:100050000BD92C2900D80120292900D8401C25299A
:1000600000D8401C20290BD90BE0022900D3012025
:10007000062900D3401C0A2900D3401C0F2900D3B5
:10008000401C1844D10601D5C0F15A0091074FEA2F
:10009000C27105D509B1B43005E0C0F1B40002E089
:1000A00009B1C0F5B47080B27047C16000680BF050
:1000B0006CB900684FF0FF320168C26001F13C0288
:1000C000904202D182684A6205E001F14C029042FE
:1000D00001D182680A6300680BF057B910B50C466D
:1000E00000206421C4E90A0120636062A0862087A1
:1000F000E086608784F85C0004F13C01204600F053
:10010000A6F804F14C01204600F0A1F80821204691
:1001100009F03EF81021204609F03AF82046002266
:10012000BDE81040114600F0BEB810B50C460021E5
:1001300004F13C00FFF77EF904F14C00BDE81040EB
:100140000021FFF777B900002DE9F0410D46314855
:1001500009F01CFC012854D1284604F053FF044642
:10016000284604F08DFF8046132C0AD0012C4AD07B
:10017000082C48D0152C44D12846BDE8F041F6F7AC
:1001800049BE4FF4003108F0D1FE0446284604F081
:1001900075FF0546B0F90000A04200DD04462C8042
:1001A000002140460AF054FB0746002140460AF071
:1001B0009DFB0646002140460AF0F2FB0446002162
:1001C00040460AF0DFFAB74201DA394600E031462C
:1001D000844201DA224600E00246914205DAB74243
:1001E00001DA384604E0304602E0844200DA204674
:1001F000002806DAB5F900104042814200DC0146D1
:100200002980BDE8F08108F134014046BDE8F041A5
:100210000BF0DEB86C86020890F85C0000F003007A
:10022000704790F85C1001F00301022901D0806A48
:100230007047816D491C01D0406D7047006B70475D
:10024000816C491C01D0406C7047406A704708605F
:10025000002048608860401EC860704738B513466B
:1002600090F85C2002F00302022A1BD1D0E90A4276
:100270008A4201DD0D4600E01546AC4201DD214613
:1002800002E08A4200DC1146426A8A4200DA1146E4
:10029000026B8A4206D0009300F14C0300F1300259
:1002A00000F022F838BDF8B5456A13468D421AD0E1
:1002B000D0E90A428A4201DD0E4600E01646B44209
:1002C00001DD214602E08A4200DC1146026B8A42CF
:1002D00000DD11468D4206D0009300F13C0300F191
:1002E000240200F001F8F8BD30B591B0054614982D
:1002F0001C4618B3E068401C27D0A068C4E901017F
:10030000116000211846FFF795F86846FFF7D6F808
:100310000F484FF48071CDE900400020CDE908017D
:1003200007900C4803902846002164220AF068FBDD
:100330000A906846FFF736F911B030BD116011B070
:100340002846BDE830400BF020B81068D6E7000022
:10035000AB000108B3000108F0B5C0F5806404FBF0
:1003600004F5AD0A05FB04F64FEA962C00FB00F6F7
:10037000B60A06FB00F745435543BF0A0CFB01FCD8
:1003800074434FEA9C2105EB45005C43DDF814E023
:1003900004EB440201EB105007FB0EF700EB125088
:1003A00000EB9720F0BD10B50C461021204608F058
:1003B000EFFE2046BDE810404FF4806108F014BB0A
:1003C00010B50146034808F035FE044608F0A6FEC5
:1003D000204610BD8886020870B50446008E15467A
:1003E00088420FD9E06A30F81120AA4320F8112082
:1003F0002046FEF7EEFAA80504D52046BDE8704079
:100400000BF05CBC70BD70B50E460546002406E0DE
:10041000324621462846FFF7DFFF641CA4B2288E2F
:10042000A042F5D870BD0000084600210186418633
:100430004FF6FF7282868162C162416280F8361097
:10044000014900F015BB0000F801002010B501467D
:10045000034808F0EFFD044608F060FE204610BD9A
:10046000A486020810B50C46886A07F069FEE06AA7
:1004700007F066FE0020A062E06210BD2DE9FC4797
:100480008846FE4809F082FA012827D1404604F048
:10049000B9FD0646404604F0F3FD00270446132E3E
:1004A0001ED02A2E4BD0292E49D04FF6FF75012E93
:1004B00049D0022E7CD0082E7BD0062E7AD0032E77
:1004C00079D00E2E78D00F2E77D0102EFCD00D2E96
:1004D00074D0152E02D14046F7F702FDBDE8FC8727
:1004E000404604F0CBFD8146608EA04620B3002537
:1004F000D8F8246014E000BFD8F82C0030F81500BC
:10050000C0F3402050B1608E28B1204609F0B8FAFF
:10051000618E90FBF1F0A9F80000DFE76D1CADB231
:1005200056F8250040B1D6A1EFF798FE20B156F855
:10053000250000780028DFD1A9F80070CEE7616AB5
:1005400000F096FACAE7404604F098FD06462046B9
:10055000A18EFEF73EFA06F023F906F062F90128B3
:1005600001D0032817D16946304606F02FF96946B5
:100570002046FCF777FBA8420DD0E16A31F8101055
:10058000C1F340123AB9C1F3C00121B9A0860146B6
:100590002046FEF71EFAA18EA9429FD0E06A30F8ED
:1005A0001100C0F30022002A98D1C0F340229EE03F
:1005B0000CE053E093E0A2E0A3E0E1E0E7E000BF5D
:1005C000C0F3C000002889D1019141E0404604F009
:1005D00055FD074606F0E4F8064606F022F9042821
:1005E0009BD0022899D06946304606F0EFF869465C
:1005F0002046FCF737FB0646A18E2046B1428CD040
:10060000A94201D0FEF7E5F9A686384606F0BAF908
:10061000AE4293D0E06A30F81600C0F340110029D2
:100620008CD1C0F3C000002888D131462046FEF7A7
:10063000D0F9E06A30F81610C1F300210029B3D1D7
:10064000A18E30F81100C0F340200028ACD10196F3
:1006500001AA1C21204604F017FD3FE7A18EA94204
:1006600038D0E26A32F81100C0F38013B3B1C0F39E
:1006700040139BB9C0F3C0131BB194F83630DB07AD
:1006800014D040F0800000BF22F8110094F836002A
:10069000C00703D02046A18E0FF08CF9A18EE26A2C
:1006A00032F81100C0F3002232B902E020F08000DD
:1006B000EAE7C0F340226AB1C0F3401252B9C0F376
:1006C000C00038B9019101AA1C21204604F0DCFCCD
:1006D0000128C2D12046A18EFEF77BF9FEE6A18E4D
:1006E000A942BAD0E06A30F81100C0F30012002A23
:1006F000B3D1C0F34012002A3FF462AFEEE6A18E00
:1007000041E0404604F0BAFC074606F08AF8064687
:100710002FB9002006F04AF806F083F80646204676
:1007200009F016FA05F05AF9A18EA94295D1022EC8
:1007300002D0042E29D140B394F836100020E26A8A
:10074000C90701D110E0401C32F81010C1F3C003FA
:10075000002BF8D1C1F34013002BF4D1C1F3C01129
:100760000029F0D00AE0401C32F81010C1F3C00399
:10077000002BF8D1C1F340110029F4D1A086ADE6D9
:10078000A18EA94201D0FEF724F9A586A6E6A18E86
:10079000FEF71FF9404604F071FC0078132813D0CF
:1007A000142831D004264FF0020912284AD011280B
:1007B00090D1002120460AF01BF8A28E8446AA425E
:1007C0005BD1A786E26A9AE0A08EA84201D1A786F3
:1007D00001E0401CA086A18E208E814200D3A78616
:1007E000E26AA18E32F81100C0F3C0033BB1491C8C
:1007F00088B2A086218E8842F3D3A786F1E7C0F3A2
:1008000040100028F3D165E7A08EA84201D1A78649
:1008100000E000B9208E401EA086E26A06E011B119
:10082000491EA18602E0208E401EA086A18E32F8CD
:100830001100C0F3C003002BF1D1C0F34010002819
:10084000EDD147E70021204609F0D2FF8046A08E77
:100850000146A8421BD1A786E26A06E0491C88B27D
:10086000A086218E884200D3A786A18E32F811007F
:10087000C0F3C003002BF1D104E04CE0A4860208D1
:100880000A000000C0F340100028E7D122E7A26A66
:1008900006EBC103D35A32F830505B1B5B1C43F3A9
:1008A0004E032B440FFA83FC238E1CE009EBC00798
:1008B00009EBC105D75F555FAF4212DD32F9305009
:1008C00065450EDC06EBC005555F4544654508DB14
:1008D000E56A35F81070C7F3401515B9C7F3C005C0
:1008E0001DB1401C80B28342E0D8834245D8F1E676
:1008F000491C88B2A086218E884200D3A786A18E8B
:1009000032F81100C0F3C003002BF1D1C0F3401046
:100910000028EDD1DEE6A16A06EBC200085A31F8E4
:100920003230C01A401C40F34E00184405B2B4F9EE
:1009300034001DE009EBC00709EBC203CF5FCB5EBB
:100940009F4213DA31F93030A3EB0C03AB420DDCDC
:1009500006EBC003CB5EAB4208DBE36A33F8103032
:10096000C3F3401717B9C3F3C00323B1401E00B24D
:100970000028DFDAAEE6002888DBA086AAE60000C1
:100980002DE9F0410F46A1F57F41FF3918D005460A
:10099000008EB84214D3002426460CE0641C686A1A
:1009A000A4B2761CB6B250F8240009A1EFF756FCA9
:1009B00008B9641CA4B2BE42F0D1288EB04202D164
:1009C0000020BDE8F081686A50F82400F9E70000D3
:1009D0000A000000808E7047038E8B4204D9C06AE3
:1009E00030F81100824301D0002070470120704789
:1009F00070B50446008E0E461546B0421AD994F8DA
:100A00003600C00705D0280603D580212046FFF711
:100A1000FAFCE06A30F81610294320F81610314627
:100A20002046FDF7D6FFA80504D52046BDE8704056
:100A30000BF044B970BD70B50E460546002406E0C3
:100A4000324621462846FFF7D3FF641CA4B2288E05
:100A5000A042F5D870BD10B50446008E4200E06A91
:100A600007F0AAFB2046616ABDE81040AFF30080A2
:100A70002DE9F34F97B00D0079D0179C2046F2F77F
:100A8000ADFB656200211622179809F0B9FFC0B2CC
:100A900012900021179809F0E1FE0B9000211798A1
:100AA00009F084FF0F900021179809F04FFF029082
:100AB0000021179809F09CFE0990179808F0FAFF9A
:100AC0000490179808F0DCFF618E0027C1F1010245
:100AD0000299A94601FB020000B21090384685E059
:100AE0004FF0000B5D460AE0E06A791930F811001A
:100AF000FCF785F958446D1C1FFA80FBADB259F81C
:100B0000250040B142A1EFF7A9FB20B159F825001B
:100B100000780028E8D15DB31099608E01FB08F1E0
:100B2000B1FBF0F20F995318029A08FB023109B297
:100B30000891109908F101025143B1FBF0F10F9AAD
:100B40000298491E08FB0020084400B2149009993D
:100B50000498C5F1010201FB020000B20E900028CA
:100B600001DA00200E904FF0000A564636E04BE0C6
:100B7000FFE709F1040036E0E06A30F81700FCF7FF
:100B80003EF90E9901FB0AF1B1FBFBF2099982448F
:100B900006FB01210E9A09B20AFB02F0B0FBFBF042
:100BA000099A401E06FB0200129A00B2012A06D1E1
:100BB0000A460499081A01B20498801A00B20B9AE6
:100BC000104403B2149800901144A06A09B200EBDB
:100BD000C700089AFFF70FFA761C7F1CAE42CBD3F2
:100BE00009EB8500001D814608F101008046608EFA
:100BF00040453FF675AF17980BF060F8179819B09D
:100C0000BDE8F04F0AF0C1BB19B0BDE8F08F00009D
:100C10000A00000080F8361000210EF0CBBE70B53F
:100C20000446008E0D46A84203D8A5F57F40FF3844
:100C30000AD12046A18EFDF7CCFE2046A586294686
:100C4000BDE87040FDF7C5BE70BD00002DE9F04164
:100C50000F460C4640F2E4712185012084F82A00F9
:100C600084F82B00A18584F82E0084F82F00002042
:100C70002063A086A82104F58C7007F06FFB00218B
:100C800008462D4B782506E028B14207B2F1604FA7
:100C900008D0072808D253F8202000BF04EB8006B4
:100CA000B2630CE025A2F9E704EB810204EB8006B5
:100CB00082F8185102F58C72491CC9B2B263401C0B
:100CC000C0B23828E0D31EA0C4F814013846FFF79C
:100CD000BDFB04F138016062FFF7CAFE54F8240F2F
:100CE0004FF48871FFF7A7FE00231A2215492068E8
:100CF00007F02EFE42F2640120680BF084FD012112
:100D000038460BF01DFB012120680BF029FB94F9FC
:100D10000A202189384600F019F894F9073094F92F
:100D20000620A188384600F0ADF82068BDE8F04103
:100D30004FF4804107F058BEA00000200A000000D8
:100D400000000000499100082C3070472DE9F05F49
:100D5000044688B2A08555B284F82E50012184F84B
:100D60002F1082462021606AFFF74DFB0026B1B2AA
:100D70002022606AFFF73CFE761C072EF7D356460A
:100D800029463046FCF72EFB834629460122304691
:100D9000FCF7A6F8064637464FF001080BEB0709AB
:100DA0000EE000BF04EB8700434635A2042100F5A6
:100DB0008C700CF01BFC08F1010000F0FF087F1C98
:100DC000B945EFD8691E5046FCF70CFB0025801B87
:100DD000401CC7B212E000BF04EB85003B4628A2CE
:100DE000042100F58C700CF001FCE81D81B220227A
:100DF000606AFFF7FDFD7F1CFFB26D1CB542EBD3AF
:100E000006EB0B05012711E004EB85003B461CA215
:100E1000042100F58C700CF0E9FBE81D81B2202262
:100E2000606AFFF7E5FD7F1CFFB26D1C2A2DEBD336
:100E30002046FCF7BDFE606AFFF7CCFDA0F57F41C0
:100E4000FF3903D0F11D606AFFF7E9FE20460AF082
:100E50009CFA204608F0C2FD064600250BE0294614
:100E6000204608F0A9FD616A814203D022461C2178
:100E700004F00AF96D1CB542F1D3BDE8F09F000003
:100E800025640000018580F82A2080F82B30FCF7CB
:100E90008FBE10B50C46102104F12400F1F76DFA55
:100EA000102104F13000F1F768FA002024F86C0FEB
:100EB0002081608060816420A080A081E080E0814A
:100EC000032060820520A0820A20E08247F6FF709E
:100ED0002082207F20F00700401C20F008002077AF
:100EE0004FF480702083608310BD000070B50C4605
:100EF00001F1240610E000BFF1F722FA0546007B5D
:100F0000400702D4686807F01BF929463046F1F71C
:100F100081FA284607F014F9A06A00283046EBD180
:100F2000F1F7F8F904F130050AE000BFF1F708FA2B
:100F3000064601462846F1F76DFA304607F000F9FB
:100F4000606B00282846F1D1BDE87040F1F7E2B9A6
:100F5000F8B50D467E4808F019FD012874D12846E1
:100F600004F050F80646284604F08AF80446012E9C
:100F70002DD0082E69D0292E68D0132E67D02C2EA4
:100F80007ED0152E7FD1284604F042F80546014652
:100F90002046F5F7F9FB2646002229462046FAF7B7
:100FA000B1FB012229463046FAF7ACFB0222294662
:100FB0003046FAF70FFA042229463046FAF70AFAC1
:100FC00004F12400F1F71DFA002871D0B9E005F012
:100FD000E7FB694605F0FAFBBDF80010A08A25463C
:100FE000081AADF80000284608F07EFEBDF8001093
:100FF0004618284608F05EFDB5F88410484340F3D3
:101000000F270021284609F011FC301A00B20026F3
:10101000002822DBB84203DDB5F88260761E1CE0B2
:1010200095F8881001F00701012902D002290FD09C
:1010300013E0B5F88210491E414307EBD77001EB6E
:10104000600090FBF7F608E01DE01DE024E027E0DB
:10105000B5F88210414391FBF7F6B4F97C00B04239
:1010600011D0B1B22046FDF722FD2046B4F87C1025
:10107000FDF71DFD00222046A4F87C601C2100E045
:1010800031E004F001F8F8BD34F87C1FFDF70FFDE6
:1010900047F6FF702080F8BDBDE8F8400AF03ABE80
:1010A000B4F94020B4F94C00824202DD164601E05A
:1010B0002EE0064634F9581FB4F90C30994201DD90
:1010C0000C4600E01C46A64205DD824201DD1146C9
:1010D00004E0014602E0994200DC19462846BDE8DA
:1010E000F84003F0F1BF284603F0C8FF054620464C
:1010F00008F0E0FCB4F88410484300122880204631
:1011000008F0BEFCB4F88610484300126880F8BDB1
:1011100094F8880000F00700012804D0022807D0C6
:1011200003280AD00DE029462046F8F771FD08E0B3
:1011300029462046F8F75EFC03E029462046F8F7EA
:1011400081FF29462046BDE8F840F5F753B9000075
:10115000184802082DE9F04F89B090460E46050068
:101160001C460AD056B1B5F88210414507D8002078
:101170002080588009B0BDE8F08FFEE7FEE72846E2
:1011800008F098FCB5F88410484340F30F27284630
:1011900008F076FCB5F88610484340F30F2995F81F
:1011A000880000F00700012804D003280AD0022894
:1011B00019D05AE0B5F8820007FB08F7401E97FBEC
:1011C000F0F051E000973168002331F91800317BCD
:1011D000C1F3C00205EB4201B1F97820B1F97410F6
:1011E00006F004FF40E005F1240000900490F1F7C0
:1011F000ABF882464FF4A021284609F0F3FAB5F87F
:10120000841048434FEA202B0021284609F0EAFACF
:10121000B5F8841048430112B5F88200C0F101020C
:1012200002FB017191FBF0F107FB08F70AB297FB93
:10123000F0F0B2FBFAF120800FFA81FA0498F1F78E
:1012400098F808E0B14208D0228802EB0A0020801A
:101250000098F1F78BF80100F4D1AAEB0B0021887C
:1012600000EBD07001EB600020800021284609F0DF
:10127000E1F907460021284609F0D8FA21883844C8
:1012800008442080284608F02FFD2188081A208075
:10129000716831F91800317BC1F3001205EB42028D
:1012A00032F96C1F401AB2F9042000FB09F0511A00
:1012B00090FBF1F0A9EB000060800021284609F0C6
:1012C0005DFB6188384408446080284608F0D8FDFA
:1012D0006188081A60804DE710B50AA048620120B5
:1012E0000C4688620221204607F07EFB082120463A
:1012F00007F07AFB2046BDE810404FF4806107F00C
:1013000073BB0000436865636B20626F7800000068
:1013100010B591F828000C46C00704D1606A06F0A9
:101320000FFF0020606210BD2DE9F04FBDB00546F3
:1013300003F0A6FE0446284603F06AFE3B90002117
:10134000204609F0CEFB3290B0F90870002132221D
:10135000204609F055FB05460021204609F02CFBEC
:1013600000EB050B0021204609F07EFA0544002120
:10137000204609F043FA34904FF40031204609F03A
:1013800073FA81464FF40031204609F0BBFA064655
:101390004FF40031204609F00FFB33904FF4003139
:1013A000204609F0FBF9359068224FF400312046C1
:1013B00009F026FB824669224FF40031204609F0ED
:1013C0001FFB804615A802F0F5F915AA4FF400316D
:1013D000204609F092FEA08A4119CA1909EB0600BD
:1013E0000244A2F10109E28A339802EB0B05359A17
:1013F000EB1910441E18A1EB0A00ADF8E40009EB4C
:101400000A00ADF8E800A5EB0800ADF8E600761E8E
:1014100006EB0800ADF8EA0003A83B9908F012F9C2
:1014200015A807902D484FF00008CDE9040839A809
:1014300006904FF40030109003AA1A21204603F0C2
:1014400023FE39AA15A93B9802F0A0F903AA1B2193
:10145000204603F019FE0021204609F066FB824673
:101460000021204609F04FFB41F6FF72CDF800A0A5
:10147000CDE901280346616A2FA8329A0EF088F858
:1014800027A801F023FC27AA0021204609F08DFDA2
:10149000701B401C00B2C01B00EBD0704110349890
:1014A0004844ADF89400BDF8BC201044ADF8980055
:1014B000E28A0BEB01001044ADF89600BDF8BE10B7
:1014C000CDF800800844ADF89A0025AA27A9636AE0
:1014D0003B9801F05BF93DB0BDE8F08FC086020893
:1014E0002DE9FF5F0E463C4808F050FA012862D112
:1014F000304603F087FD0546304603F0C1FD044643
:101500004FF400382C2D09D0132D56D0152D52D163
:1015100004B03046BDE8F05FFFF706BF304603F089
:10152000ADFD05460021204609F0DBFA0646078995
:101530000021204609F0F9FA81460021204609F0F1
:10154000E2FA002141F6FF72CDF80090CDE90121C9
:101550000346324603A8616A0EF01AF800212046BD
:1015600009F04CF9834646464146204609F07CF98D
:1015700081463146204609F0C5F98046314620466D
:1015800009F01AFA82463146204609F007F9024668
:1015900007EB0A00104407EB0901BDF80C20414499
:1015A0000A4402EB0B012980BDF90E1000B28842FB
:1015B00000DC08466880BDE8FF9F304603F05EFD12
:1015C00005464146204607F0B1FCB5F900108142BE
:1015D00000DD08462880EEE7C0860208F0B5044624
:1015E0004FF4FA66C1F341307710642501280BD11E
:1015F00021F4C040B04207DCB84201DDC0F57A708A
:10160000584390FBF5F001B2C2F3413001280BD1F1
:1016100022F4C040B04207DCB84201DDC0F57A7068
:10162000584390FBF5F002B2944201DA204600E004
:101630001046884201DA0846F0BD944201DA20469D
:10164000F0BD1046F0BDF0B504464FF4FA66C1F3A4
:1016500041307710642501280BD121F4C040B042FD
:1016600007DCB84201DDC0F57A70584390FBF5F015
:1016700001B2C2F3413001280BD122F4C040B04284
:1016800007DCB84201DDC0F57A70584390FBF5F0F5
:1016900002B2944201DA204600E01046884201DAA4
:1016A0000846F0BD944201DA2046F0BD1046F0BD78
:1016B000002208B51146104600F00BF90090BDF865
:1016C000000008BD002208B51146104600F019F9C7
:1016D0000090BDF8000008BD08B50020BDF800105E
:1016E00060F3040189B260F34A1189B260F3CF213B
:1016F000ADF8001088B20090BDF8000008BD0022CF
:1017000008B51146104600F02CF90090BDF8000015
:1017100008BD80B2C20AC2EBC20303EB0222D21D93
:10172000520962F31741C0F3451202EB420303EB87
:101730000222D21C920962F30F2100F01F00C0EBBD
:10174000C00202EB0020C01D400960F30701FF202A
:1017500060F31F61C1F30740C1F3072200EB4000B3
:1017600000EB8200C9B20844C0F3C700704738B527
:101770000C460546FFF7C3FF2246294600F08AF9CA
:101780000090BDF8000038BD07B58107BDF80430F2
:1017900002D020F8023B521EBDF8041001EB0141BB
:1017A0000EE002C0103A02C040F8081B40F8041CCA
:1017B00040F8101B40F80C1C40F8081C40F8041CB2
:1017C000102AEED803E000BF20F8023B521E002A88
:1017D000FAD10EBD4FF478414FF4FC6201EA1021BA
:1017E00002EA501208B51143C0F3C4000143ADF83A
:1017F000001088B208BDF8B5C0EB00204FF4B473F8
:10180000B0FBF3F083B2C1EB01206421B0FBF1F037
:10181000C2EB0222B2FBF1F110F0FF00CAB223D0FA
:101820002B21B3FBF1F1C9B2552401FB043303EBC7
:1018300043035B061D0E00FB05F4FF26C0F1FF030A
:10184000C5F1FF054543A6EB1424A6EB1520534331
:10185000544350431B0A240A050A052918D2DFE81D
:1018600001F006090D1114001146084613E0104658
:10187000294601E0204611461A460CE0114618465A
:101880002A4608E01846214605E02846194602E0A7
:1018900010461946224600F064F80090BDF800009A
:1018A000F8BD08B5D308BDF8002063F30402ADF815
:1018B00000208A08BDF8001062F34A11ADF800104C
:1018C000C108BDF8000061F3CF20ADF8000080B280
:1018D00008BD08B5D308BDF8002063F30402ADF8D5
:1018E00000208A08BDF8001062F34A11ADF800101C
:1018F000C108BDF8000061F3CF20ADF8000080B250
:1019000008BD08B5D308BDF8002063F30402ADF8A4
:1019100000208A08BDF8001062F34A11ADF80010EB
:10192000C108BDF8000061F3CF20ADF8000080B21F
:1019300008BD08B5D308BDF8002063F30402ADF874
:1019400000208A08BDF8001062F34A11ADF80010BB
:10195000C108BDF8000061F3CF20ADF8000080B2EF
:1019600008BD08B5D308BDF8002063F30402ADF844
:1019700000208A08BDF8001062F34A11ADF800108B
:10198000C108BDF8000061F3CF20ADF8000080B2BF
:1019900008BD08B5D308BDF8002063F30402ADF814
:1019A00000208A08BDF8001062F34A11ADF800105B
:1019B000C108BDF8000061F3CF20ADF8000080B28F
:1019C00008BD000008B5121DD3080A4A89B280B2CA
:1019D00041EA014140EA004011401040401A58439A
:1019E00001EB5010104040EA1040ADF8000080B20A
:1019F00008BD00001FF8E00708B5121DD3080A4A09
:101A000089B280B241EA014140EA004011401040F1
:101A1000401A584301EB5010104040EA1040ADF816
:101A2000000080B208BD00001FF8E00708B5121DD5
:101A3000D3080A4A89B280B241EA014140EA004033
:101A400011401040401A584301EB5010104040EA3A
:101A50001040ADF8000080B208BD00001FF8E0079C
:101A600008B5121DD3080A4A89B280B241EA014181
:101A700040EA004011401040401A584301EB50101A
:101A8000104040EA1040ADF8000080B208BD0000F0
:101A90001FF8E00708B5121DD3080A4A89B280B2C0
:101AA00041EA014140EA004011401040401A5843C9
:101AB00001EB5010104040EA1040ADF8000080B239
:101AC00008BD00001FF8E00782B2D00AC0EBC003D7
:101AD00003EB0020C01D400960F317410846C2F324
:101AE000451101EB410303EB0121C91C890961F395
:101AF0000F2002F01F01C1EBC10202EB0121C91D41
:101B0000490961F30700FF2161F31F607047FF225D
:101B100008B511461046FFF7F4FE0090BDF800002E
:101B200008BD08B51F20BDF800103F2260F3040176
:101B300089B262F34A1189B260F3CF21ADF8001087
:101B400088B20090BDF8000008BD000010B500206C
:101B50000C468884642184F8261084F8271094F8B1
:101B60003C1021F0070184F83C10206360630948B1
:101B70004FF48031C07884F82C00204606F034FF02
:101B80004FF44071204607F003FB2046BDE81040AB
:101B90000EF038BFF40000202DE9F04391B08946E3
:101BA000FD4807F0F3FE012827D1484603F02AFA42
:101BB0000646484603F064FA04464FF44037132EB5
:101BC0001ED0292E50D02A2E67D04FF4B4750D2E7A
:101BD00068D0012E7DD0022E7CD047F6FF75112EE5
:101BE00079D0152E78D0122E07D1484603F046FA48
:101BF0000178022901D00121017011B0BDE8F08304
